:020000040800F2
:1000000060040020010100089F0200089B02000814
:100010009D02000849010008990400080000000042
:10002000000000000000000000000000690300085C
:100030004B01000800000000A1020008A70300080F
:100040001B0100081B0100081B0100081B01000820
:100050001B0100081B0100081B0100081B01000810
:100060001B0100081B0100081B0100081B01000800
:100070001B0100081B0100081B0100081B010008F0
:100080001B0100081B0100081B0100081B010008E0
:100090001B0100081B0100081B0100081B010008D0
:1000A0001B0100081B0100081B0100081B010008C0
:1000B0001B0100081B0100081B0100081B010008B0
:1000C0001B0100081B0100081B0100081B010008A0
:1000D0001B0100081B0100081B0100081B01000890
:1000E0001B0100081B0100081B010008DFF80CD0F1
:1000F00000F018F800480047DD0600086004002002
:100100000648804706480047FEE7FEE7FEE7FEE7B1
:10011000FEE7FEE7FEE7FEE7FEE7FEE7A9030008CD
:10012000ED000008064C074D06E0E06840F00103D2
:1001300094E8070098471034AC42F6D3FFF7DAFF93
:10014000A4090008C4090008FEE770472DE9F84338
:100150000121042000F0A6F80121082000F0A2F8F7
:100160000121102000F09EF80324ADF800408DF826
:10017000024010258DF803506946184800F034F805
:100180000C20ADF80000164F8DF802408DF803509A
:100190006946384600F028F84FF47C40ADF800007E
:1001A000DFF840808DF802408DF8035069464046E4
:1001B00000F01AF82E01ADF800606946404600F0E4
:1001C00013F8ADF800608DF802408DF803506946D1
:1001D000384600F009F8BDE8F88300000008014047
:1001E00000100140000C01402DE9F001CB78002205
:1001F00003F00F0C13F0100F1CBF8B7843EA0C0CAC
:100200000B780F260125002B18BF04681AD000BFF9
:100210000F8805FA02F31F409F420FD1970006FA9C
:1002200007F824EA08040CFA07F73C43CF78282F94
:1002300008BF436102D0482F08BF0361521C082A3F
:10024000E6D304600A88FF2A87BF44680022BDE81D
:10025000F001704702F108030F8805FA03F31F400D
:100260009F420FD1970006FA07F824EA08040CFA17
:1002700007F73C43CF78282F08BF4361CF78482F3A
:1002800008BF0361521C082AE4D34460BDE8F001B2
:1002900070474161704701617047FEE7FEE77047B4
:1002A00070470000044A0029916914BF084321EAFD
:1002B000000090617047000000100240254910B412
:1002C0004A6812F00C03244A18BF042B01D0082BF3
:1002D00001D0026015E04A684B6802F470124FF0DA
:1002E000020C13F4803F0CEB924203D04B6813F4E2
:1002F000003F03D0194B5A43026002E0164B5A43A9
:1003000002604A680F2303EA1212154B9A5CD0F878
:1003100000C02CFA02F24260D1F804C0072404EABB
:100320001C2C13F80CC022FA0CFCC0F808C0D1F841
:1003300004C004EADC2C13F80C30DA40C2604968CF
:10034000032303EA9131074B595CB2FBF1F10161E0
:1003500010BC70470010024000127A0000093D00F6
:10036000040000200000002070474FF0E021042826
:1003700008690CBF40F0040020F0040008617047D9
:100380004FF0E021012804BF086940F0010008D0C7
:10039000801C07BF086920F001000020886118BF99
:1003A0007047086170477047374882B0016841F074
:1003B000010101604168354A11404160016821F442
:1003C000102121F080710160016821F48021016019
:1003D000416821F4FE0141604FF41F018160002259
:1003E00001920092016841F480310160016801F4DA
:1003F000003100910199491C0191009919B90199A5
:10040000B1F5A06FF2D1016811F4003F08BF00926E
:1004100033D0012100911E490A6842F010020A609F
:100420000A6822F003020A600A6842F002020A60C7
:100430004168416041684160416841F480614160C8
:10044000416821F47C114160416841F4E811416048
:10045000016841F080710160016811F0007FFBD0FC
:10046000416821F003014160416841F002014160AF
:10047000416801F00C010829FAD106494FF00060EB
:10048000086002B070470000001002400000FFF852
:100490000020024008ED00E0FEE702E008C8121F5D
:1004A00008C1002AFAD170477047002001E001C15D
:1004B000121F002AFBD1704700B585B06846FFF7D0
:1004C000FDFE6FF00400FFF750FF4FF0E0200169E0
:1004D00021F002010161074901984FF4FA52B0FB83
:1004E000F1F1054801700199B1FBF2F1418005B0CD
:1004F00000BD000000127A0058000020114A00B52B
:1005000051884843B0F1807F28BF6FF07F404FF0A3
:10051000E02358610020FFF733FF0120FFF730FF91
:100520001969002011F4803F18BF01205070012884
:10053000F6D1C01EFFF724FF00205DF804EBFFF7A3
:100540001FBF000058000020491ECA1701EB12729D
:1005500022F00F02891A012804D001F1C000C0B2B4
:1005600000F070B801F18000C0B200F06BB800007C
:1005700070B5324C2068C0F3090020606420FFF79A
:10058000BDFF032000F05EF80120FFF7B7FF2068F1
:1005900040F40060206044F61F60401EB0F1FF3F51
:1005A000FBDC206820F4006020600120FFF7A6FF3C
:1005B000206840F40060206044F61E60401EB0F1E8
:1005C000FF3FFBDC206820F400602060022000F088
:1005D00039F80120FFF792FF332000F033F8322082
:1005E00000F030F8282000F02DF80C2000F02AF858
:1005F000134C0026E51C6670207800F023F8A670E6
:100600006078A17805EBC000405C00F043F9A07869
:10061000401CC0B2A0700728F2D9207808302070A2
:100620006078401CC0B260700728E5D9012000F056
:1006300009F8BDE870400520FFF760BF0C0C0140D1
:10064000140000201D4A1168C1F3090111601168EE
:1006500000F0F00341EA03211160116841F40061E8
:10066000116044F61F61491EB1F1FF3FFBDC1168C8
:1006700021F40061116044F61E61491EB1F1FF3F93
:10068000FBDC1168C1F309011160116841EA003017
:100690001060106840F40060106044F61E60401E58
:1006A000B0F1FF3FFBDC106820F40060106044F6FE
:1006B0001E60401EB0F1FF3FFBDC70470C0C014098
:1006C00010B504460078002808BF10BD14F8010BCF
:1006D00000F0E0F820780028F8D110BD0025DFF800
:1006E00084812C46FFF732FDFFF7E6FE5E4E4FF4A5
:1006F00080713046FFF7CDFDFFF73AFF5BA0FFF7B3
:10070000DFFF01210220FFF71FFF5DA0FFF7D8FFE9
:100710004FF4FA70FFF7F2FE5D4F07E035B1012D9F
:1007200022D0022D3ED0032D77D159E00121384649
:10073000FFF7B1FD02213846FFF7ABFD042130463B
:10074000FFF7A7FD08213046FFF7A3FD4FF48071A6
:100750003046FFF7A0FD0120FFF7D0FE4FF4807177
:100760003046FFF796FD58E001213846FFF791FD2E
:1007700002213846FFF78FFD04213046FFF789FD3F
:1007800008213046FFF785FD4FF480713046FFF7B2
:1007900082FD0120FFF7B2FE4FF480713046FFF773
:1007A00078FD3AE001213846FFF773FD0221384613
:1007B000FFF76FFD04213046FFF76DFD082130463D
:1007C000FFF767FD4FF480713046FFF764FD0120AD
:1007D000FFF794FE4FF480713046FFF75AFD1CE09E
:1007E00001213846FFF755FD02213846FFF751FD3C
:1007F00004213046FFF74DFD08213046FFF74BFD41
:100800004FF480713046FFF746FD0120FFF776FE7A
:100810004FF480713046FFF73CFD01210846FFF799
:1008200093FE08EB5400FFF74BFF601CC4B26E2C24
:100830000DD100244FF480713046FFF72CFDC82005
:10084000FFF75CFE4FF480713046FFF722FD502029
:10085000FFF754FE681CC5B2042D7FF45FAF00257E
:1008600064E700005C09000800100140544553543F
:100870002020557967756C616D6173FD0000000083
:100880007777772E4578704B6974732E636F6D00A0
:1008900000080140E72816D00CDCDC281BD004DC63
:1008A000C72810D0D62817D111E0DD280DD0DE28BA
:1008B00012D10EE0F6280AD0FC280CD0FD2804D076
:1008C000FE2809D105E0002006E0012004E0022016
:1008D00002E0032000E004201F4A1168C1F309016F
:1008E0001160116800F0F00C131543EA0C2C41EA7A
:1008F0000C011160116841F40061116044F61E6141
:10090000491EB1F1FF3FFBDC116821F40061116069
:1009100044F61E61491EB1F1FF3FFBDC1168C1F3D3
:1009200009011160116843EA003008431060106843
:1009300040F40060106044F61E60401EB0F1FF3FBE
:10094000FBDC106820F40060106044F61E60401E5E
:10095000B0F1FF3FFBDC70470C0C01402020202051
:100960002020202020202020202020207777772E74
:100970004578704B6974732E636F6D202D47656EDB
:10098000656C205465737420557967756C616D6171
:1009900073FD2D202020202020202020202020201A
:1009A00020202000C4090008000000205C00000096
:1009B0009A040008200A00085C00002004040000DB
:1009C000AA04000802040608000000000102030453
:1009D0000102030406070809400000000E10101170
:1009E0000E040000000C0404040E000A000E111195
:1009F000110E00000F100E011E04000A001111114B
:100A0000110E0002060E1E0E06020000040404046D
:100A100004040000100804020100000000000000AF
:04000005080000ED02
:00000001FF
