:020000040800F2
:1000000078040020010100087D0800087908000834
:100010007B0800081D070008750A000800000000A2
:10002000000000000000000000000000450900087A
:100030001F070008000000007F080008830900086F
:100040001B0100081B0100081B0100081B01000820
:100050001B0100081B0100081B0100081B01000810
:100060001B0100081B0100081B0100081B01000800
:100070001B0100081B0100081B0100081B010008F0
:100080001B0100081B0100081B0100081B010008E0
:100090001B0100081B0100081B0100081B010008D0
:1000A0001B0100081B0100081B0100081B010008C0
:1000B0001B0100081B0100081B0100081B010008B0
:1000C0001B0100081B0100081B0100081B010008A0
:1000D0001B0100081B0100081B0100081B01000890
:1000E0001B0100081B0100081B010008DFF80CD0F1
:1000F00000F072FA00480047E1150008780400207B
:100100000648804706480047FEE7FEE7FEE7FEE7B1
:10011000FEE7FEE7FEE7FEE7FEE7FEE785090008EB
:10012000ED000008420005D0C0F3C7525242914290
:1001300001DC0020704700EBC1507047C10F80EA1E
:10014000E0700844CA079623002100F063B800F06D
:10015000004230F000400AD0C10D01F56071C0F3DB
:10016000160042EA0151C2084007114370470020BF
:100170000146704730B50B4601460020202201247D
:1001800009E021FA02F59D4205D303FA02F5491B65
:1001900004FA02F52844151EA2F10102F1DC30BD7B
:1001A0002DE9F05F0546002092469B4688460646AC
:1001B000814640241BE0284641464746224600F03F
:1001C0002CFA53465A46C01A914110D3114618468C
:1001D000224600F013FA2D1A67EB01084F4622461B
:1001E0000120002100F00AFA17EB00094E41201E01
:1001F000A4F10104DFDC484631462A464346BDE807
:10020000F09F0029A8BF7047401C490008BF20F09C
:100210000100704710B4B0FA80FC00FA0CF050EA0C
:10022000010404BF10BC704749B1CCF1200421FA8D
:1002300004F411FA0CF118BF012121430843A3EB88
:100240000C01CB1D0106000A002BBEBF002010BC14
:10025000704700EBC35010440029A4BF10BC704786
:10026000401C490008BF20F0010010BC70472DE978
:10027000FE4F804681EA0300C00F0C46009021F03B
:10028000004123F00045B8EB0200A94105D24046E9
:10029000214690461C460B46024623F00040104380
:1002A00004D14046214603B0BDE8F08F270DC7F3C7
:1002B0000A00C3F30A510290401A0190402866DAFE
:1002C000C3F3130040F4801B0098924620B1002332
:1002D000D2EB030A63EB0B0B01985946C0F14002C5
:1002E000504600F08BF906460D4650465946019A95
:1002F00000F0A3F910EB08006141002487EA1152D5
:1003000084EAE7731A433BD0009A3AB3019A012A70
:100310004FEA075210DC001B61EB02014FF0004274
:1003200002EA0752CDE90042001C41F58011324635
:100330002B4600F0A1F9B6E7001B61EB0201001C9F
:1003400041F5801300185B412018A2F5001747EB18
:10035000030140EAD570B6196D4111E06D084FEA0E
:10036000360645EAC0754FEA0752001B61EB0201F1
:10037000001C41F5801149084FEA30000019514135
:1003800032462B4603B0BDE8F04F00F068B9009844
:10039000012240000023D0EB020263EBE0730098DF
:1003A00021464FEAE074B8EB000061EB0401E9E795
:1003B00083F000435BE781F0004158E72DE9FE4FF1
:1003C00081EA030404F0004421F0004100944FF05E
:1003D000000B23F0004350EA010402D052EA030468
:1003E00004D10020014603B0BDE8F08FC3F30A54E6
:1003F000C1F30A552C44A4F2F3340194A0FB025437
:10040000C1F3130141F48011C3F3130343F48013C8
:1004100001FB024400FB034E840A970A44EA81541C
:1004200047EA8357A4FB076802958D0A05FB0785F9
:100430004FEA932C04FB0C542705029D4FEA065803
:1004400047EA1637B5EB08056EEB070C870E920EE0
:1004500047EA811742EA8312A7FB0201B6EB0B01C0
:1004600064EB00042B0D43EA0C335E1844EB1C5084
:10047000DA465146E7FB0201C5F313044FEA0B339A
:1004800043EA14534FEA0432019C43EA0603A4F101
:100490000C040294009CCDE900B400F0EDF8A2E752
:1004A0002DE9F04D81EA030404F0004B21F00045F2
:1004B00014464FF0000A23F0004150EA050220D014
:1004C00054EA01021DD0C5F30A570246C5F31303CF
:1004D000C1F31300C1F30A5640F4801543F48013AE
:1004E000A7EB0608101BD64608F2FD3873EB050093
:1004F00002D308F1010801E092185B41B8F1000F46
:1005000003DA00200146BDE8F08D00204FF4801191
:10051000064684460EE0171B73EB050705D3121B36
:1005200063EB050306434CEA010C49084FEA30002F
:1005300092185B4150EA0107EDD152EA030012D054
:1005400082EA040083EA0501084303D100224FF048
:10055000004308E0101BAB4102D20122002302E05D
:100560006FF0010253101AEB06004CEB085110EB30
:100570000A0041EB0B01BDE8F04D00F070B8C1F38B
:100580000A52C1F3130140F2FF3341F480119A4241
:1005900002DA00200146704740F233439A42A2F249
:1005A000334202DC524200F038B800F027B80000B5
:1005B00030B5002904DB4FF00044404264EB0101F8
:1005C000002B04DB4FF00044524264EB03039942DA
:1005D00008BF904230BD0000064C074D06E0E068C1
:1005E00040F0010394E8070098471034AC42F6D37A
:1005F000FFF780FD4C1900086C190008202A04DB65
:10060000203A00FA02F1002070479140C2F1200325
:1006100020FA03F3194390407047202A04DB203A64
:1006200021FA02F00021704721FA02F3D040C2F112
:1006300020029140084319467047202A06DBCB1759
:10064000203A41FA02F043EAE07306E041FA02F38D
:10065000D040C2F12002914008431946704710B5BE
:10066000002B08DA401C41F1000192185B411A434B
:1006700001D120F0010010BD2DE9F04D92469B46BE
:1006800011B1B1FA81F202E0B0FA80F22032904664
:10069000FFF7B4FF04460F4640EA0A0041EA0B01A7
:1006A00053465A46084303D120463946BDE8F08DEB
:1006B000114653EA010015D0C8F140025046FFF739
:1006C000ACFF05460E46504659464246FFF796FF98
:1006D000084301D0012000E00020054346EAE0760F
:1006E0002C4337430A984FEA4453A0EB08004FEAE3
:1006F000D4240A304FF0000244EA47544FEAD72589
:1007000002D500200146D1E7010510196941DDE954
:10071000084500196941BDE8F04DA0E7FEE77047C4
:100720002DE9F8430121042000F0AAF80121082056
:1007300000F0A6F80121102000F0A2F80324ADF883
:1007400000408DF8024010258DF803506946184886
:1007500000F034F80C20ADF80000164F8DF8024080
:100760008DF803506946384600F028F84FF47C4075
:10077000ADF80000DFF840808DF802408DF803509E
:100780006946404600F01AF82E01ADF8006069464F
:10079000404600F013F8ADF800608DF802408DF887
:1007A00003506946384600F009F8BDE8F8830000B8
:1007B0000008014000100140000C01402DE9F0014B
:1007C000CB78002203F00F0C13F0100F1CBF8B78B6
:1007D00043EA0C0C0B780F260125002B18BF046888
:1007E0001AD000BF0F8805FA02F31F409F420FD1B5
:1007F000970006FA07F824EA08040CFA07F73C43C6
:10080000CF78282F08BF436102D0482F08BF03616B
:10081000521C082AE6D304600A88FF2A87BF44686E
:100820000022BDE8F001704702F108030F8805FAC5
:1008300003F31F409F420FD1970006FA07F824EAFE
:1008400008040CFA07F73C43CF78282F08BF436110
:10085000CF78482F08BF0361521C082AE4D34460B4
:10086000BDE8F00170470246002092680A4218BFB6
:100870000120704741617047FEE7FEE7704770470F
:10088000044A0029916914BF084321EA00009061DD
:100890007047000000100240254910B44A6812F069
:1008A0000C03244A18BF042B01D0082B01D002608E
:1008B00015E04A684B6802F470124FF0020C13F412
:1008C000803F0CEB924203D04B6813F4003F03D0FF
:1008D000194B5A43026002E0164B5A4302604A68C1
:1008E0000F2303EA1212154B9A5CD0F800C02CFAC1
:1008F00002F24260D1F804C0072404EA1C2C13F869
:100900000CC022FA0CFCC0F808C0D1F804C004EAFC
:10091000DC2C13F80C30DA40C2604968032303EA88
:100920009131074B595CB2FBF1F1016110BC70478A
:100930000010024000127A0000093D00040000206F
:100940000000002070474FF0E021042808690CBF28
:1009500040F0040020F00400086170474FF0E021EF
:10096000012804BF086940F0010008D0801C07BFBF
:10097000086920F001000020886118BF70470861F5
:1009800070477047374882B0016841F0010101604B
:100990004168354A11404160016821F4102121F07D
:1009A00080710160016821F480210160416821F4B7
:1009B000FE0141604FF41F0181600022019200920C
:1009C000016841F480310160016801F40031009157
:1009D0000199491C0191009919B90199B1F5A06FCC
:1009E000F2D1016811F4003F08BF009233D0012119
:1009F00000911E490A6842F010020A600A6822F05B
:100A000003020A600A6842F002020A60416841601B
:100A100041684160416841F480614160416821F46E
:100A20007C114160416841F4E8114160016841F086
:100A300080710160016811F0007FFBD0416821F0F6
:100A400003014160416841F002014160416801F0E9
:100A50000C010829FAD106494FF00060086002B085
:100A600070470000001002400000FFF80020024024
:100A700008ED00E0FEE700000FB4084B10B504A934
:100A800002AA039800F0CAF8044602A9002000F068
:100A900068FC204610BC5DF814FB000063130008DE
:100AA00002E008C8121F08C1002AFAD17047704737
:100AB000002001E001C1121F002AFBD17047000095
:100AC0002DE9FF5FDDE90220010DDDF838B00243BA
:100AD00010D10F9801244CA2012808D000210098C1
:100AE0000F9BC0E90021C0E90243BDE8FF9F6FEA08
:100AF0000B01F4E7A1F2FF3144F6105041430D140D
:100B00000F9801280ED0A5EB0B00401C4FF00004FD
:100B10003E4EDFF8FC90B0F1000AA04605DACAF1BB
:100B2000000717E0CBF10000F0E7074612E0F807F6
:100B300007D02246334640464946FFF73FFC8046F1
:100B400089462246334610461946FFF737FC0446CD
:100B50000E467F10002FEAD1DDE90201BAF1000F45
:100B600042464B4602DAFFF729FC01E0FFF798FC0A
:100B700004460E460022274BFFF71AFD03D84FF01C
:100B8000FF30014607E00022234B20463146FFF7A5
:100B90006EFBFFF7F4FC102409E0002C0ADB0A22AC
:100BA0000023FFF7FDFA019B30321A55641E50EA0C
:100BB0000102F2D1641C019AC4F1110314440F9A8A
:100BC000012A09D00122084301D15B450FDD4FF016
:100BD000000205F101050DE0084303D1A3EB0B056D
:100BE0006D1E09E000204FF0110B0F9088E701DA2D
:100BF00000226D1E002A83D000980F99C0E90231AF
:100C0000C0E9004571E7000030000000000024400A
:100C10000000F03F0000F0430000E03F2DE9FF4FEF
:100C200095B09B4689460646002512E2252878D1D4
:100C30000024761CF94A2746012105943378203B8D
:100C400001FA03F0104202D00443761CF6E7307834
:100C50002A2811D06FF02F033078A0F13002092A32
:100C600016D8059A44F0020402EB820203EB42021A
:100C70001044761C0590EFE759F8042B0592002AE2
:100C800003DA504244F40054059044F00204761C08
:100C900030782E2816D116F8010F44F004042A28C3
:100CA0000DD06FF02F023078A0F13003092B09D856
:100CB00007EB870302EB4303C718761CF3E759F8E9
:100CC000047B761C30786C280FD006DC4C2817D0BB
:100CD00068280DD06A2814D104E0742810D07A282E
:100CE0000FD10DE044F400140AE044F4801401E054
:100CF00044F440147278824202D1761C04F58014C8
:100D0000761C307866280BD013DC582877D009DCA5
:100D1000002875D04528F6D04628F4D047281AD1A7
:100D20009FE118E0632835D0642879D0652812D176
:100D300097E1702873D008DC6728F1D069286FD05C
:100D40006E280DD06F2806D1B5E073282CD07528F9
:100D500075D0782874D05A46179990476D1C76E163
:100D6000C4F30250022809D003280DD0D9F800108E
:100D700004280DD00D6009F1040968E1D9F80010CC
:100D8000EA17C1E90052F6E7D9F800100D80F2E742
:100D90000D70F0E719F8041B8DF8001000208DF895
:100DA0000100EA46012003E059F804AB4FF0FF30A0
:100DB00061074FF0000102D40DE008F101018846FF
:100DC000B9420FDA8045F8DB1AF808100029F4D18F
:100DD00008E008F1010188468142FADB1AF80810A0
:100DE0000029F6D105985B46A0EB08072146384656
:100DF000179A00F09EFA284400EB080507E04DE042
:100E00002BE10DE01AF8010B5A4617999047B8F1FB
:100E10000108F7D25B4621463846179A14E142E0B2
:100E20000A220092C4F302524FF0000A022A08D0AC
:100E300059F804CB032A4FEAEC710AD00DE029E0FF
:100E40002AE009F1070121F00702F2E802C1914608
:100E500009E00FFA8CFC4FEAEC71042A03D14FFA37
:100E60008CFC4FEAEC71002907DA0A460021DCF11C
:100E7000000C61EB02012D2202E0220504D52B2299
:100E80008DF80420012203E0E20701D02022F7E7D9
:100E9000904653E00A2102E010220DE010214FF0AD
:100EA000000A00910BE010224FF0000A44F0040405
:100EB0000827009203E008224FF0000A0092C4F3D2
:100EC0000252022A05D059F804CB0021032A08D087
:100ED00009E009F1070121F00702F2E802C1914699
:100EE00005E01FFA8CFC042A01D10CF0FF0C4FF036
:100EF0000008220722D5702827D0009B83F010031A
:100F000053EA0A0309D15CEA010206D030228DF8C7
:100F100004208DF8050002229046009B83F0080310
:100F200053EA0A030AD15CEA010201D1620705D53E
:100F300030228DF804204FF001087F1E582809D078
:100F400037A003900EA8029013E040228DF80420F1
:100F50000122E1E737A0F4E753466046009AFFF725
:100F60001FF984460398825C0298A0F10100029068
:100F700002705CEA0100EFD1029806A9A1EB000023
:100F800000F1200A600702D524F4803400E0012734
:100F9000574502DDA7EB0A0000E0002000EB0A0144
:100FA000009005984144A0EB01000590E00306D4B1
:100FB0005B462146179A059800F0BBF905440027C7
:100FC00006E001A85A46C05D179990476D1C7F1C2A
:100FD0004745F6DBE0030CD55B462146179A05989A
:100FE00000F0A7F9054404E030205A4617999047CD
:100FF0006D1C0099481E00900029F5DC08E002985D
:1010000002995A460078491C0291179990476D1C25
:10101000BAF10001AAF1010AF1DC6BE10928010033
:10102000303132333435363738396162636465665E
:101030000000000030313233343536373839414220
:10104000434445460000000000F060F9054406F105
:101050000106307800287FF4E9AD19B02846BDE8D4
:10106000F08F620700D4062709F1070222F0070C6F
:10107000FCE80223E14603F000485FEA080C02D0D6
:101080000FF27C2C0DE05FEA045C02D50FF2742CA9
:1010900007E05FEAC47C02D00FF26C2C01E0AFF2F3
:1010A000700C4FF0FF3823F00043CDF850C0652896
:1010B0000CD006DC452809D046281DD047283ED153
:1010C0003EE0662818D0672839D139E00021112F79
:1010D00001DB112000E0781CCDE9000106A90EA873
:1010E000FFF7EEFCDDE90F010E9A0391002100925B
:1010F00007F1010A04914EE04FF000400097CDE95E
:10110000011006A90EA8FFF7DBFCDDE90F02039230
:101110000E9B11990022DDF80CA00093049219B9DE
:1011200007F1010100EB010AB7EB0A0004D4C0F19A
:10113000FF3007F1010A0490AAEB0700019046E096
:10114000012F00DA01270021112F01DD112000E01D
:101150003846CDE9000106A90EA8FFF7B1FCDDE98C
:101160000F010E9A0391002104910092BA462107C3
:101170000CD40399514500DA8A46BAF1010F05DD16
:10118000009AAAF10101515C302908D0B84202DA74
:1011900010F1040F06DA0121CDE9011017E0AAF1E0
:1011A0000101E9E7002805DC049901440491AAEB58
:1011B000000102E0411C514500DD8A460499A0EB84
:1011C000010000F1010001904FF000400290200763
:1011D00004D40198504501DBCDF8048000208DF83F
:1011E0004F0002980DF14F07B0F1004F25D02B2092
:1011F0000E9002984FF0020800280CDA404202904C
:101200002D200E9007E00A210298FEF7B3FF30313F
:10121000029007F8011DB8F10001A8F10108F2DC05
:1012200002980028EFD1791E0E980870307800F0EF
:10123000200040F0450007F8020D12A8A0EB0700BF
:1012400000F107081498007800B1012000EB0A01B2
:10125000019801EBE07105984144A0EB0100A0F179
:1012600001000590E00306D45B462146179A0598D5
:1012700000F05FF805441498007820B15A46179999
:10128000904705F10105E00323D55B462146179AF7
:10129000059800F04EF805441BE00498002807DB91
:1012A000DDE90301884203DD0098405C179901E005
:1012B000179930205A46904704986D1C401C0490A2
:1012C0000198401E019004D12E205A46179990474C
:1012D0006D1CBAF10001AAF1010ADEDC05E017F885
:1012E000010B5A46179990476D1CB8F10001A8F1FF
:1012F0000108F4DC5B462146179A0598A4E6000035
:101300002D0000002B000000200000002DE9F0411E
:10131000044600251E461746880405D406E03946D3
:101320002020B04705F10105641EF8D52846BDE828
:10133000F0812DE9F041044600251E469046C80381
:1013400001D5302700E02027880405D506E0414676
:101350003846B04705F10105641EF8D52846BDE8BA
:10136000F0810A68531C0B601070704700B585B09F
:101370006846FFF791FA6FF00400FFF7E4FA4FF0C8
:10138000E020016921F002010161074901984FF451
:10139000FA52B0FBF1F1054801700199B1FBF2F18D
:1013A000418005B000BD000000127A0060000020FE
:1013B000114A00B551884843B0F1807F28BF6FF0D3
:1013C0007F404FF0E02358610020FFF7C7FA01206B
:1013D000FFF7C4FA1969002011F4803F18BF0120FB
:1013E00050700128F6D1C01EFFF7B8FA00205DF852
:1013F00004EBFFF7B3BA00006000002010B500F066
:10140000B5F9CC2000F0E8F9442000F0E5F91CB96A
:1014100000F05EF90028FBD000F0A8F9CC2000F025
:10142000DBF9BE2000F0D8F900F052F9044600F0D4
:101430004FF904EB0020FEF781FE6FF00301FEF789
:1014400071FE0446FA20FFF7B3FF204610BD491E87
:10145000CA1701EB127222F00F02891A012804D078
:1014600001F1C000C0B200F06FB801F18000C0B25D
:1014700000F06AB870B5324C2068C0F309002060F3
:101480006420FFF795FF032000F05EF80120FFF7CE
:101490008FFF206840F40060206044F61F60401E0B
:1014A000B0F1FF3FFBDC206820F4006020600120E9
:1014B000FFF77EFF206840F40060206044F61E6065
:1014C000401EB0F1FF3FFBDC206820F4006020608C
:1014D000022000F039F80120FFF76AFF332000F006
:1014E00033F8322000F030F8282000F02DF80C20DE
:1014F00000F02AF8134C0026E51C6670207800F0F6
:1015000023F8A6706078A17805EBC000405C00F07D
:10151000B9F9A078401CC0B2A0700728F2D9207891
:10152000083020706078401CC0B260700728E5D990
:10153000012000F009F8BDE870400520FFF738BF32
:101540000C0C01401C0000201D4A1168C1F3090168
:101550001160116800F0F00341EA03211160116885
:1015600041F40061116044F61F61491EB1F1FF3F73
:10157000FBDC116821F40061116044F61E61491E14
:10158000B1F1FF3FFBDC1168C1F309011160116883
:1015900041EA00301060106840F40060106044F6CA
:1015A0001E60401EB0F1FF3FFBDC106820F40060BD
:1015B000106044F61E60401EB0F1FF3FFBDC704738
:1015C0000C0C014010B504460078002808BF10BD7F
:1015D00014F8010B00F056F920780028F8D110BD5E
:1015E00082B0FFF79DF8FFF7C1FE4FF480711C48F1
:1015F000FFF740F9FFF73EFF1AA0FFF7E3FF0121D5
:101600000220FFF724FF1CA0FFF7DCFF40F2DC50B4
:10161000FFF7CEFE01210220FFF719FF1BA0FFF705
:10162000D1FF1F4D1F4CDF26FFF7E8FE2060A842C8
:1016300004DD1DA12148FFF71FFA08E0FEF787FD32
:1016400002460B461EA11D480096FFF715FA012120
:101650000220FFF7FCFE1948FFF7B4FFE4E70000A3
:1016600000100140202020204453313842323020E5
:1016700020202020000000007777772E4578704BDF
:101680006974732E636F6D200000000020202020FD
:1016900020202020202020202020202000000000CA
:1016A00000F07F451400002020202053656E73F663
:1016B0007220596F6B202020000000006400002081
:1016C00020204973FD3A2025332E316625634300DF
:1016D0002DE9F05F4FF00008224C234F01264546CC
:1016E0004FF400794FF0030A4FF0040BA4F8009078
:1016F00084F802A01420E0701A493846FFF75EF81B
:101700004FF400713846FFF7B5F85F20401EB0F186
:10171000FF3FFBDCA4F8009084F802A084F803B03B
:1017200010493846FFF74AF83F20401EB0F1FF3F0E
:10173000FBDC4FF400713846FFF795F810F0010F0D
:1017400018BF48EA060840F21F30401EB0F1FF3FC4
:10175000FBDC7006060E681CC5B2082DC6D34046D9
:10176000BDE8F09F18000020000C01402DE9F04179
:10177000174C4FF4007503262580DFF85880A670BB
:101780001427E77021464046FFF718F829464046DF
:10179000FFF770F841F6FF51491EB1F1FF3FFBDC46
:1017A0002580A6700420E07009494046FFF706F83E
:1017B00041F6FF01491EB1F1FF3FFBDC2580A67019
:1017C000E7704046BDE8F0410149FEF7F7BF000071
:1017D00018000020000C01402DE9F05F01270026D1
:1017E000264CDFF89C9082464FF0140B4FF40078A3
:1017F000032500BFA4F80080A57020491AEA070F4E
:1018000084F803B048461BD0FEF7D8FF4FF40071B0
:101810004846FFF72FF82F20401EB0F1FF3FFBDCBA
:10182000A4F80080A5700420E07014494846FEF733
:10183000C5FF40F2BF30401EB0F1FF3FFBDC15E0BA
:10184000FEF7BCFF4FF400714846FFF713F840F273
:10185000BF30401EB0F1FF3FFBDCA4F80080A57054
:101860000420E07005494846FEF7A8FF7806070EF9
:10187000701CC6B2082EBDD3BDE8F09F1800002032
:10188000000C0140E72816D00CDCDC281BD004DC5F
:10189000C72810D0D62817D111E0DD280DD0DE28BA
:1018A00012D10EE0F6280AD0FC280CD0FD2804D076
:1018B000FE2809D105E0002006E0012004E0022016
:1018C00002E0032000E004201F4A1168C1F309016F
:1018D0001160116800F0F00C131543EA0C2C41EA7A
:1018E0000C011160116841F40061116044F61E6141
:1018F000491EB1F1FF3FFBDC116821F4006111606A
:1019000044F61E61491EB1F1FF3FFBDC1168C1F3D3
:1019100009011160116843EA003008431060106843
:1019200040F40060106044F61E60401EB0F1FF3FBE
:10193000FBDC106820F40060106044F61E60401E5E
:10194000B0F1FF3FFBDC70470C0C01406C19000844
:101950000000002064000000A00A0008D019000860
:101960006400002014040000B00A00080204060805
:101970000000000001020304010203040607080935
:101980000000000000000000400000000E101011D8
:101990000E040000000C0404040E000A000E1111D5
:1019A000110E00000F100E011E04000A001111118B
:1019B000110E0002060E1E0E0602000004040404AE
:1019C00004040000100804020100000000000000F0
:04000005080000ED02
:00000001FF
