:020000040800F2
:1000000070040020010100085B0B0008530B00087E
:10001000570B0008F30800085D0E00080000000000
:10002000000000000000000000000000550C000867
:10003000F7080008000000005D0B0008CD0D000867
:100040001B0100081B0100081B0100081B01000820
:100050001B0100081B0100081B0100081B01000810
:100060001B0100081B0100081B0100081B01000800
:100070001B0100081B0100081B0100081B010008F0
:100080001B0100081B0100081B0100081B010008E0
:100090001B0100081B0100081B0100081B010008D0
:1000A0001B0100081B0100081B0100081B010008C0
:1000B0001B0100081B0100081B0100081B010008B0
:1000C0001B0100081B0100081B0100081B010008A0
:1000D0001B0100081B0100081B0100081B01000890
:1000E0001B0100081B0100081B010008DFF80CD0F1
:1000F00000F098FA00480047A91900087004002091
:100100000648804706480047FEE7FEE7FEE7FEE7B1
:10011000FEE7FEE7FEE7FEE7FEE7FEE7FD0D00086F
:10012000ED00000880EA010210B502F00043400033
:1001300022D04A001FD0010E01EB1261C0F356001D
:10014000C2F3560240F4000042F40002A0FB022079
:1001500000047F39140400D0401C50EA124001D43E
:100160004000491EC2B20C0604EBD010401C4008EF
:10017000802A02D003E0002010BD20F001000029F9
:1001800000DA0020184310BD96230022114600F02B
:1001900063B800F0004230F000400AD0C10D01F514
:1001A0006071C0F3160042EA0151C20840071143D2
:1001B000704700200146704730B50B4601460020CD
:1001C0002022012409E021FA02F59D4205D303FA19
:1001D00002F5491B04FA02F52844151EA2F101029A
:1001E000F1DC30BD2DE9F05F0546002092469B46CC
:1001F00088460646814640241BE02846414647463D
:10020000224600F030FA53465A46C01A914110D3A4
:1002100011461846224600F017FA2D1A67EB01081E
:100220004F4622460120002100F00EFA17EB00098C
:100230004E41201EA4F10104DFDC484631462A4627
:100240004346BDE8F09F0029A8BF7047401C490005
:1002500008BF20F00100704710B4B0FA80FC00FA2B
:100260000CF050EA010404BF10BC704749B1CCF156
:10027000200421FA04F411FA0CF118BF01212143E2
:100280000843A3EB0C01CB1D4FEA00614FEA10209D
:1002900042BF002010BC704700EBC350104400293F
:1002A000A4BF10BC7047401C490008BF20F00100EB
:1002B00010BC70472DE9FE4F804681EA0300C00F55
:1002C0000C46009021F0004123F00045B8EB0200FD
:1002D000A94105D24046214690461C460B4602469F
:1002E00023F00040104347D0270DC7F30A00C3F3A3
:1002F0000A510290401A019040286BDAC3F31300B0
:1003000040F4801B0098924620B10023D2EB030AF0
:1003100063EB0B0B01985946C0F14002504600F0C8
:1003200093F906460D4650465946019A00F0ABF93E
:1003300010EB08006141002487EA115284EAE77358
:100340001A4340D0009A62B3019A012A4FEA075239
:1003500015DC001B61EB02014FF0004202EA07527C
:10036000CDE90042001C41F5801132462B4600F0D9
:10037000ABF903B0BDE8F08F40462146F9E7001B1A
:1003800061EB0201001C41F5801300185B4120184D
:10039000A2F5001747EB030140EAD570B6196D418D
:1003A00011E06D084FEA360645EAC0754FEA07527C
:1003B000001B61EB0201001C41F5801149084FEA66
:1003C00030000019514132462B4603B0BDE8F04FD2
:1003D00000F06BB90098012240000023D0EB02022C
:1003E00063EBE073009821464FEAE074B8EB00003D
:1003F00061EB0401E9E783F000435BE781F0004132
:1004000058E72DE9FE4F81EA030404F0004421F08F
:10041000004100944FF0000B23F0004350EA010428
:100420005ED052EA03045BD0C3F30A54C1F30A5509
:100430002C44A4F2F3340194A0FB0254C1F3130141
:1004400041F48011C3F3130343F4801301FB02440E
:1004500000FB034E840A970A44EA815447EA835713
:10046000A4FB076802958D0A05FB07854FEA932CCC
:1004700004FB0C542705029D4FEA065847EA16373D
:10048000B5EB08056EEB070C870E920E47EA811755
:1004900042EA8312A7FB0201B6EB0B0164EB0004F6
:1004A0002B0D43EA0C335E1844EB1C50DA465146E0
:1004B000E7FB0201C5F313044FEA0B3343EA14537D
:1004C0004FEA0432019C43EA0603A4F10C040294AF
:1004D000009CCDE900B400F0F7F803B0BDE8F08F60
:1004E00000200146F9E72DE9F04D81EA030404F00C
:1004F000004B21F0004514464FF0000A23F0004164
:1005000050EA050220D054EA01021DD0C5F30A5773
:100510000246C5F31303C1F31300C1F30A5640F4B6
:10052000801543F48013A7EB0608101BD64608F28B
:10053000FD3873EB050002D308F1010801E09218C1
:100540005B41B8F1000F03DA00200146BDE8F08DF1
:1005500000204FF48011064684460EE0171B73EB13
:10056000050705D3121B63EB050306434CEA010C98
:1005700049084FEA300092185B4150EA0107EDD17B
:1005800052EA030012D082EA040083EA050108431C
:1005900005D0101BAB4106D20122002306E0002249
:1005A0004FF0004302E06FF0010253101AEB060017
:1005B0004CEB085110EB0A0041EB0B01BDE8F04D8C
:1005C00000F073B8C1F30A52C1F3130140F2FF33D4
:1005D00041F480119A4202DA00200146704740F24D
:1005E00033439A42A2F2334202DC524200F03BB85B
:1005F00000F02AB830B5041E71F1000404DB4FF09E
:100600000044404264EB0101141E73F1000405DB59
:100610001C464FF00043524263EB0403994208BF6B
:10062000904230BD064C074D06E0E06840F0010303
:1006300094E8070098471034AC42F6D3FFF75AFD10
:10064000541B0008741B0008202A04DB203A00FA1F
:1006500002F1002070479140C2F1200320FA03F319
:10066000194390407047202A04DB203A21FA02F017
:100670000021704721FA02F3D040C2F120029140DC
:10068000084319467047202A06DBCB17203A41FA67
:1006900002F043EAE07306E041FA02F3D040C2F10F
:1006A0002002914008431946704710B5141E73F19B
:1006B000000408DA401C41F1000192185B411A4322
:1006C00001D120F0010010BD2DE9F04D92469B466E
:1006D00011B1B1FA81F202E0B0FA80F22032904614
:1006E000FFF7B2FF04460F4640EA0A0041EA0B0159
:1006F00053465A46084313D0114653EA010019D015
:10070000C8F140025046FFF7AEFF05460E46504680
:1007100059464246FFF798FF084305D0012004E000
:1007200020463946BDE8F08D0020054346EAE076D4
:100730002C4337430A986305E40AA0EB0800002223
:10074000FD0A44EA47540A3002D500200146E9E791
:10075000010510196941DDE9084500196941BDE845
:10076000F04DA2E721B1826842F00102826003E00D
:10077000826822F0010282607047014600208A6888
:1007800002F004020AB1012000E000207047014697
:10079000C86C80B27047014600208A6802F00802E7
:1007A0000AB1012000E000207047014600208A685D
:1007B00002F480020AB1012000E00020704700002E
:1007C00030B502460020002350680F4C20400D79C0
:1007D0000C6844EA05242043506090680B4C20408C
:1007E000D1E902542C434D7944EA450420439060FA
:1007F000D06A20F470000C7C641EE4B2234340EA0B
:100800000350D06230BD0000FFFEF0FFFDF7F1FFA6
:10081000F0B504460D4600200021092D11DDE068E9
:10082000A5F10A0606EB4607072606FA07F18843F4
:10083000A5F10A0606EB460603FA06F10843E06056
:100840000CE0206905EB4507072606FA07F1884307
:1008500005EB450603FA06F108432061072A0FDA83
:10086000606B561E06EB86071F2606FA07F18843C3
:10087000561E06EB860605FA06F10843606322E081
:100880000D2A0FDA206BD61F06EB86071F2606FA05
:1008900007F18843D61F06EB860605FA06F10843E2
:1008A000206310E0E06AA2F10D0606EB86071F2622
:1008B00006FA07F18843A2F10D0606EB860605FA53
:1008C00006F10843E062F0BD816841F008018160F3
:1008D000704721B1826842F4A002826003E082681E
:1008E00022F4A00282607047816841F004018160B7
:1008F000704700BFFEE7704710B586B0044601217F
:100900004FF4047000F02CF90320ADF800008DF8CE
:10091000020000208DF8030069461C4800F08CF8A6
:100920000020019001208DF808008DF809004FF497
:10093000602003900020049001208DF8140001A98C
:100940001348FFF73DFF0523012221461048FFF71A
:100950005FFF01210E48FFF705FF0D48FFF7B4FFC9
:1009600000BF0B48FFF717FF0028FAD10848FFF730
:10097000BBFF00BF0648FFF700FF0028FAD10121A6
:100980000348FFF7A6FF06B010BD000000100140AD
:100990000024014008B50121042000F0E1F8012104
:1009A000082000F0DDF80121102000F0D9F8032024
:1009B000ADF800008DF8020010208DF803006946A4
:1009C0001A4800F039F80C20ADF8000003208DF82B
:1009D000020010208DF803006946154800F02CF83D
:1009E0004FF47C40ADF8000003208DF80200102089
:1009F0008DF8030069460F4800F01EF84FF4807030
:100A0000ADF8000069460B4800F016F84FF480700E
:100A1000ADF8000003208DF8020010208DF80300CF
:100A20006946034800F008F808BD000000080140CE
:100A300000100140000C01402DE9F0410246002564
:100A40000026002000230024002791F803C00CF0AA
:100A50000F0591F803C00CF0100CBCF1000F03D08F
:100A600091F802C04CEA050591F800C0BCF1000FF6
:100A700031D0146800202BE04FF0010C0CFA00F389
:100A8000B1F800C00CEA03069E4220D183004FF06B
:100A90000F0C0CFA03F7BC4305FA03FC4CEA040400
:100AA00091F803C0BCF1280F06D14FF0010C0CFAED
:100AB00000FCC2F814C00AE091F803C0BCF1480F72
:100AC00005D14FF0010C0CFA00FCC2F810C0401C1C
:100AD0000828D1D31460B1F800C0BCF1FF0F34DD99
:100AE000546800202EE000F1080C4FF0010808FACD
:100AF0000CF3B1F800C00CEA03069E4221D183003A
:100B00004FF00F0C0CFA03F7BC4305FA03FC4CEA58
:100B1000040491F803C0BCF1280F05D100F1080CC2
:100B200008FA0CF8C2F8148091F803C0BCF1480F21
:100B300007D100F1080C4FF0010808FA0CF8C2F8D0
:100B40001080401C0828CED35460BDE8F08141617C
:100B5000704700BFFEE700BFFEE770477047000028
:100B600029B1064A92690243044B9A6104E0034AA0
:100B700092698243014B9A61704700000010024065
:100B800030B500210022002400232D4D6D6805F0B2
:100B90000C0121B1042905D0082923D105E0294DF4
:100BA000056022E0274D05601FE0254D6D6805F4C6
:100BB0007012234D6D6805F48034022505EB9242D6
:100BC0001CB9214D554305600BE01D4D6D6805F4C2
:100BD00000351DB11C4D5543056002E0194D5543CC
:100BE000056002E0174D056000BF00BF144D6D6841
:100BF00005F0F0010909154D6B5C0568DD404560A5
:100C00000F4D6D6805F4E061090A104D6B5C456895
:100C1000DD4085600A4D6D6805F46051C90A0B4DD1
:100C20006B5C4568DD40C560054D6D6805F440416D
:100C3000890B074D6B5CC568B5FBF3F5056130BDED
:100C40000010024000127A0000093D000000002060
:100C500010000020704710B500F002F810BD000031
:100C60000CB50020019000903348006840F48030BB
:100C70003149086000BF3048006800F4003000903F
:100C80000198401C0190009818B90198B0F5A06F28
:100C9000F1D12948006800F4003010B10120009023
:100CA00001E0002000900098012843D1234800680B
:100CB00040F01000214908600846006820F0030059
:100CC00008600846006840F0020008601A48406862
:100CD000194948600846406848600846406840F442
:100CE000806048600846406820F47C1048600846F0
:100CF000406840F4E81048600846006840F08070A2
:100D0000086000BF0C48006800F000700028F9D0AF
:100D10000948406820F003000749486008464068D9
:100D200040F00200486000BF0348406800F00C003B
:100D30000828F9D10CBD000000100240002002403C
:100D4000042808D14FF0E021096941F004014FF077
:100D5000E022116107E04FF0E021096921F0040170
:100D60004FF0E02211617047012808D14FF0E021D7
:100D7000096941F001014FF0E02211610EE0811C90
:100D800041B94FF0E021096921F001014FF0E02263
:100D9000116103E000214FF0E0229161704710B52E
:100DA0000146002200230020CB10022B03D14FF07C
:100DB000E024226902E04FF0E024E26901248C4043
:100DC00014400CB1012000E0002010BD704740B17C
:100DD0004FF0E021096941F002014FF0E02211617A
:100DE00007E04FF0E021096921F002014FF0E02215
:100DF000116170474FF0E0214861704710B513480A
:100E0000006840F001001149086008464068104938
:100E100008400E494860084600680E4908400B49E2
:100E200008600846006820F4802008600846406892
:100E300020F4FE0048604FF41F008860FFF70BFFAE
:100E40004FF000600449086010BD0000001002402F
:100E50000000FFF8FFFFF6FE08ED00E000BFFEE730
:100E60000FB4084B10B504A902AA039800F0DEF8ED
:100E7000044602A9002000F070FC204610BC5DF87A
:100E800014FB00005B17000802E008C8121F08C12D
:100E9000002AFAD170477047002001E001C1121FFB
:100EA000002AFBD1704700002DE9FF5F82B00021CE
:100EB000DDE90430020DDDF840B0034318D044F6FC
:100EC0001050A2F2FF3242431514119801281FD08E
:100ED000A5EB0B00401C5FEA000A4FF000064E4FE6
:100EE000DFF83891B046504615D5CAF1000413E03A
:100EF000119801244AA3012801D16FEA0B0102983D
:100F0000119AC0E90031C0E9024206B0BDE8F09F85
:100F1000CBF10000DFE704460021404A491842EBCC
:100F20000450CDE9001012E0E00707D032463B46FE
:100F300040464946FFF765FA8046894632463B46B9
:100F400010461946FFF75DFA06460F466410002C5E
:100F5000EAD1DDE90401DDE90023BAF1000F06DA88
:100F6000FFF74FFA42464B46FFF74BFA05E0FFF713
:100F7000BAFA42464B46FFF7B6FA04460E4600223E
:100F8000284BFFF737FB03D84FF0FF30014607E04F
:100F90000022254B20463146FFF78CF9FFF712FB64
:100FA000102409E0002C0ADB0A220023FFF71AF9BB
:100FB000039B30321A55641E50EA0102F2D1641CC0
:100FC000039AC4F111031444119A012A03D0012297
:100FD00008430DD10AE0084304D000204FF0110B64
:100FE000119072E7A3EB0B056D1E0DE05B4504DD70
:100FF0004FF0000205F1010504E003DA4FF00002B2
:10100000A5F10105002AECD002981199C0E902313E
:10101000C0E9004579E70000000014400000F03FFF
:10102000300000000000F0430000E03F2DE9FF4FDA
:1010300095B09B468946064600250FE2252877D1C4
:1010400000242746F84A0121059400E0044316F8DD
:10105000013F203B01FA03F01042F7D130782A28F3
:1010600011D06FF02F033078A0F13002092A16D882
:10107000059A44F0020402EB820203EB42021044A0
:10108000761C0590EFE759F8042B0592002A03DA45
:10109000504244F40054059044F00204761C307829
:1010A0002E2816D116F8010F44F004042A280DD07A
:1010B0006FF02F023078A0F13003092B09D807EB2D
:1010C000870302EB4303C718761CF3E759F8047B48
:1010D000761C30786C280FD006DC4C2817D0682896
:1010E0000DD06A2814D104E0742810D07A280FD1CA
:1010F0000DE044F400140AE044F4801401E044F4E8
:1011000040147278824202D104F58014761C761C59
:10111000307866280BD013DC582877D009DC0028FB
:1011200075D04528F6D04628F4D047281AD19DE13D
:1011300018E0632835D0642879D0652812D195E16C
:10114000702873D008DC6728F1D069286FD06E282A
:101150000DD06F2806D1B5E073282CD0752875D036
:10116000782874D05A46179990476D1C75E1C4F3DE
:101170000250022809D003280DD0D9F80010042805
:101180000DD00D6009F1040967E1D9F80010EA17E4
:10119000C1E90052F6E7D9F800100D80F2E70D70B2
:1011A000F0E719F8041B8DF8001000208DF80100FD
:1011B000EA46012003E059F804AB4FF0FF30610725
:1011C0004FF0000102D40DE008F101018846B94258
:1011D0000FDA8045F8DB1AF808100029F4D108E08E
:1011E00008F1010188468142FADB1AF8081000294B
:1011F000F6D105985B46A0EB080721463846179ABA
:1012000000F094FA284400EB080507E04DE029E1DE
:101210000DE01AF8010B5A4617999047B8F10108EA
:10122000F7D25B4621463846179A13E142E00A227C
:101230000092C4F302524FF0000A022A08D059F873
:1012400004CB032A4FEAEC710AD00DE029E02AE032
:1012500009F1070121F00702F2E802C1914609E015
:101260000FFA8CFC4FEAEC71042A03D14FFA8CFC84
:101270004FEAEC71002907DA0A460021DCF1000C84
:1012800061EB02012D2202E0220504D52B228DF80C
:101290000420012203E0E20701D02022F7E7904674
:1012A00059E00A2102E010220DE010214FF0000A5F
:1012B00000910BE010224FF0000A44F004040827CC
:1012C000009203E008224FF0000A0092C4F3025299
:1012D000022A05D059F804CB0021032A08D009E0DE
:1012E00009F1070121F00702F2E802C1914605E089
:1012F0001FFA8CFC042A01D10CF0FF0C4FF00008FF
:10130000220728D5702806D0009B83F0100353EAEB
:101310000A0305D00EE040228DF80420012208E0E7
:101320005CEA010206D030228DF804208DF8050019
:1013300002229046009B83F0080353EA0A030AD175
:101340005CEA010201D1620705D530228DF8042044
:101350004FF001087F1E582804D034A003900EA837
:1013600002900DE036A0F9E753466046009AFEF77A
:1013700039FF84460398825C0298401E02900270F6
:101380005CEA0100F0D1029806A9081A00F1200ACF
:10139000600702D524F4803400E00127574502DDC0
:1013A000A7EB0A0000E0002000EB0A01009005987E
:1013B0004144401A0590E00306D45B462146179A43
:1013C000059800F0B3F90544002706E001A85A4645
:1013D000C05D179990476D1C7F1C4745F6DBE00305
:1013E0000CD55B462146179A059800F09FF90544F5
:1013F00004E030205A46179990476D1C0099481E0A
:1014000000900029F5DC08E0029802995A4600781D
:10141000491C0291179990476D1CBAF10001AAF17D
:10142000010AF1DC65E100000928010030313233A6
:101430003435363738396162636465660000000010
:1014400030313233343536373839414243444546FA
:101450000000000000F058F90544761C30780028A0
:101460007FF4ECAD19B02846BDE8F08F620700D4D8
:10147000062709F1070222F0070CFCE80223E146E7
:1014800003F000485FEA080C02D00FF2702C0DE068
:101490005FEA045C02D50FF2682C07E05FEAC47CC7
:1014A00002D00FF2602C01E0AFF2700C4FF0FF3869
:1014B00023F00043CDF850C065280CD006DC452849
:1014C00009D046281DD047283DD13DE0662818D0D8
:1014D00067287ED138E00021112F01DB112000E0C8
:1014E000781CCDE9000106A90EA8FFF7DDFCDDE9B7
:1014F0000F010E9A03910021009207F1010A049155
:101500004DE04FF000400097CDE9011006A90EA86C
:10151000FFF7CAFCDDE90F0203920E9B119900222E
:10152000DDF80CA00093049211B9791C00EB010ABC
:10153000B7EB0A0004D4C0F1FF3007F1010A0490B0
:10154000AAEB0700019044E0012F00DA01270021F7
:10155000112F01DD112000E03846CDE9000106A978
:101560000EA8FFF7A1FCDDE90F010E9A03910021FF
:1015700004910092BA4621070CD40399514500DA30
:101580008A46BAF1010F05DD009AAAF10101515C0A
:10159000302908D0B84202DA10F1040F06DA01212E
:1015A000CDE9011015E0AAF10101E9E7002805DC09
:1015B000049901440491AAEB000102E0411C514549
:1015C00000DD8A460499401A401C01904FF000400B
:1015D0000290200704D40198504501DBCDF8048027
:1015E00000208DF84F0002980DF14F07B0F1004F29
:1015F00025D02B200E9002984FF0020800280CDA1C
:10160000404202902D200E9007E00A210298FEF73A
:10161000D3FD3031029007F8011DB8F10001A8F1A7
:101620000108F2DC02980028EFD1791E0E980870AC
:10163000307800F0200040F0450007F8020D12A8B5
:10164000C01B00F107081498007800B1012000EBDE
:101650000A01019801EBE07105984144401A401ECF
:101660000590E00306D45B462146179A059800F0E2
:101670005DF805441498007818B15A4617999047B8
:101680006D1CE00324D55B462146179A059800F0AF
:101690004DF805441CE00498002807DBDDE9030150
:1016A000884203DD0098405C179901E017993020CB
:1016B0005A469047049805F10105401C0490019892
:1016C000401E019004D12E205A46179990476D1C58
:1016D000BAF10001AAF1010ADDDC05E017F8010BFF
:1016E0005A46179990476D1CB8F10001A8F10108FE
:1016F000F4DC5B462146179A0598ABE62D00000006
:101700002B000000200000002DE9F04104460025D8
:101710001E461746880404D405E039462020B04709
:101720006D1C641EF9D52846BDE8F0812DE9F04115
:10173000044600251E469046C80301D5302700E028
:101740002027880404D505E041463846B0476D1C83
:10175000641EF9D52846BDE8F0810A68531C0B6069
:101760001070704700B585B06846FFF709FA6FF052
:101770000400FFF7E5FA0020FFF729FB074901986D
:10178000B0FBF1F0064908704FF4FA510198B0FB34
:10179000F1F00449088005B000BD000000127A0095
:1017A000160000201800002030B5044611480088BB
:1017B00000FB04F5B5F1807F01D36FF07F4528462B
:1017C000FFF718FB0020FFF7CFFA0120FFF7CCFA54
:1017D00000BF1020FFF7E3FA0749087008460078B9
:1017E0000128F6D1C01EFFF7BFFA0020FFF7BCFAB0
:1017F00030BD0000180000201A00002044F62060D0
:1018000000BF011EA0F10100FBD1704710B50120FF
:1018100000F098F80520FFF7C7FF10BD00B5074896
:10182000006840F4006005490860FFF7E7FF0348DF
:10183000006820F400600149086000BD0C0C014004
:1018400070B506460C46012E0BD1651EE91705EB57
:1018500011710911A5EB01118031C8B200F072F8C5
:101860000AE0651EE91705EB11710911A5EB0111DD
:10187000C031C8B200F066F870BD000010B52C4849
:101880000068C0F309002A4908606420FFF78CFF54
:10189000032000F057F80120FFF786FFFFF7BEFF97
:1018A0000120FFF781FFFFF7B9FF022000F04AF89F
:1018B0000120FFF779FF332000F044F8322000F0D8
:1018C00041F8282000F03EF80C2000F03BF8002002
:1018D0001849087024E01848007800F033F8002018
:1018E000164908700EE01649124A127801EBC2013F
:1018F000124A1278885C00F0D1F810480078401C39
:101900000E4908700D4800780728ECDD0A48007879
:1019100008300949087007480078401C05490870DC
:10192000044800780728D6DDFFF770FF10BD0000DF
:101930000C0C01401B0000201D0000201C0000209A
:101940001E00002000B5034610480068C0F30900DF
:101950000E4908600846006803F0F00140EA0120E3
:101960000A490860FFF75AFFFFF748FF0748006879
:10197000C0F30900054908600846006840EA0330E2
:101980000860FFF74BFFFFF739FF00BD0C0C01406B
:1019900010B5044603E014F8010B00F07FF820783E
:1019A0000028F8D110BD0000FEF7F4FFFFF7DAFEC3
:1019B0004FF480712248FFF7CAF8FFF75FFF21A0BC
:1019C000FFF7E6FF01210220FFF73AFF22A0FFF711
:1019D000DFFF4FF4C870FFF7E7FE01210220FFF799
:1019E0002FFF21A0FFF7D4FF0A20FEF785FF26E096
:1019F00000BF2248FEF7D9FE0028FAD11F48FEF7A3
:101A0000C6FE1F49088008460088FEF7BDFB074652
:101A10001C49FEF787FB0446FEF7BBFB05462A463A
:101A20000B4619A11C48FFF71BFA01210220FFF702
:101A300007FF1948FFF7ACFFFA20FFF7B5FED7E71D
:101A4000001001402D41444320557967756C616D4C
:101A50006173FD2D000000007777772E4578704B7D
:101A60006974732E636F6D002020202020202020B9
:101A70002020202020202020000000000024014001
:101A80001400002000E0AB40504F5431203D202591
:101A9000352E3166000000006000002000B50346CE
:101AA000E72B20D00CDCDC2B1BD004DCC72B10D0A8
:101AB000D62B22D111E0DD2B0DD0DE2B1DD10EE077
:101AC000F62B14D0FC2B16D0FD2B0ED0FE2B14D1F0
:101AD0000FE0002312E0012310E002230EE00323B5
:101AE0000CE004230AE0002308E0012306E00223BF
:101AF00004E0032302E0042300E000BF00BF144819
:101B00000068C0F30900124908600846006803F045
:101B1000F0014FF4806242EA012108430C49086059
:101B2000FFF77CFEFFF76AFE09480068C0F3090072
:101B30000749086008460068091541EA033108436F
:101B400003490860FFF76AFEFFF758FE00BD00007A
:101B50000C0C0140741B0008000000206000000015
:101B6000880E0008D41B000860000020100400004C
:101B7000980E0008000000000102030401020304A3
:101B80000607080902040608000000000000000023
:101B90000040000E1010110E040000000C0404049C
:101BA0000E000A000E1111110E00000F100E011E82
:101BB00004000A00111111110E0002060E1E0E067D
:101BC00002000004040404040400001008040201DC
:041BD0000000000011
:04000005080000ED02
:00000001FF
