:020000040800F2
:10000000880B002001010008190D0008A504000854
:10001000150D0008530200084D12000800000000F2
:10002000000000000000000000000000350F000884
:1000300057020008000000001B0D0008A91000086E
:100040001B0100081B0100081B0100081B01000820
:100050001B0100081B0100081B0100081B01000810
:100060001B0100081B0100081B0100081B01000800
:100070001B0100081B0100081B0100081B010008F0
:100080001B0100081B0100081B0100081B010008E0
:100090001B0100081B0100081B0100081B010008D0
:1000A0001B0100081B0100081B0100081B010008C0
:1000B0001B0100081B0100081B0100081B010008B0
:1000C0001B0100081B0100081B0100081B010008A0
:1000D0001B0100081B0100081B0100081B01000890
:1000E0001B0100081B0100081B010008DFF80CD0F1
:1000F00000F050F80048004721290008880B002034
:100100000648804706480047FEE7FEE7FEE7FEE7B1
:10011000FEE7FEE7FEE7FEE7FEE7FEE7D910000890
:10012000ED000008421C10F8011B0029FBD1801AC9
:1001300070472DE9F05F0546002092469B468846B1
:100140000646814640241BE0284641464746224653
:1001500000F041F853465A46C01A914110D3114657
:100160001846224600F028F82D1A67EB01084F4682
:1001700022460120002100F01FF817EB00094E4134
:10018000201EA4F10104DFDC484631462A464346DE
:10019000BDE8F09F064C074D06E0E06840F0010323
:1001A00094E8070098471034AC42F6D3FFF7A2FF5B
:1001B000B82F0008D82F0008202A04DB203A00FAC4
:1001C00002F1002070479140C2F1200320FA03F3AE
:1001D000194390407047202A04DB203A21FA02F0AC
:1001E0000021704721FA02F3D040C2F12002914071
:1001F00008431946704770B501EB020410F8015B23
:1002000015F0070301D110F8013B2A1106D110F8AF
:10021000012B03E010F8016B01F8016B5B1EF9D1B3
:100220002B0705D40023521E0FD401F8013BFAE737
:1002300010F8013B02F10202A1EB030303E013F803
:10024000015B01F8015B521EF9D5A142D6D3002013
:1002500070BD00BFFEE7704708B50121042000F023
:100260005DFD0121082000F059FD0121102000F062
:1002700055FD0320ADF800008DF8020010208DF828
:10028000030069461A4800F077F80C20ADF800002A
:1002900003208DF8020010208DF8030069461548F0
:1002A00000F06AF84FF47C40ADF8000003208DF8B0
:1002B000020010208DF8030069460F4800F05CF83A
:1002C0004FF48070ADF8000069460B4800F054F818
:1002D0004FF48070ADF8000003208DF8020010206C
:1002E0008DF803006946034800F046F808BD000099
:1002F0000008014000100140000C014000B585B02D
:10030000012144F2040000F009FD18208DF80300DB
:100310004FF40070ADF8000003208DF8020069462C
:10032000134800F029F818208DF803004FF480607E
:10033000ADF8000069460E4800F01EF84FF4165064
:1003400001900020ADF80800ADF80A00ADF80C00EF
:10035000ADF810000C20ADF80E0001A9054800F022
:1003600005FF0121034800F0E7FE05B000BD0000D5
:1003700000080140003801402DE9F0410246002507
:100380000026002000230024002791F803C00CF071
:100390000F0591F803C01CF0100F03D091F802C0B4
:1003A0004CEA050591F800C0BCF1000F31D014688B
:1003B00000202BE04FF0010C0CFA00F3B1F800C064
:1003C0000CEA03069E4220D183004FF00F0C0CFA7A
:1003D00003F7BC4305FA03FC4CEA040491F803C09C
:1003E000BCF1280F06D14FF0010C0CFA00FCC2F84A
:1003F00014C00AE091F803C0BCF1480F05D14FF0DA
:10040000010C0CFA00FCC2F810C0401C0828D1D323
:100410001460B1F800C0BCF1FF0F34DD5468002057
:100420002EE000F1080C4FF0010808FA0CF3B1F8C7
:1004300000C00CEA03069E4221D183004FF00F0C4E
:100440000CFA03F7BC4305FA03FC4CEA040491F8E8
:1004500003C0BCF1280F05D100F1080C08FA0CF814
:10046000C2F8148091F803C0BCF1480F07D100F125
:10047000080C4FF0010808FA0CF8C2F81080401C74
:100480000828CED35460BDE8F0810246002093686E
:100490000B4201D0012000E000207047416170470D
:1004A0000161704700BFFEE77CB50020009001901D
:1004B0000121A848FFF7E9FF28B1A7A000F0C8FE76
:1004C0004FF0FF307CBD002401E0601C84B2FF2CA3
:1004D000FBDD002404E0FF2001F0D8F9601C84B2A9
:1004E0000A2CF8DB00240BE095220021084601F0DD
:1004F00055F9C5B2012D01D1002405E0601C84B27C
:1005000040F6FF708442EFDB00BFA4F57060FF3857
:1005100004D199A000F09CFE0120D3E787224FF47C
:10052000D571082001F07AF9C5B2052D76D10120E8
:100530009B4981F84E0020219A48FFF7B1FFFF2028
:1005400001F0A4F9002418E000221146372001F040
:1005500025F9C5B2012D05D0294693A000F078FEFB
:100560002846AFE700221146292001F017F9C5B24D
:100570000DB9002405E0601C84B240F6FF7084428F
:10058000E2DB00BFA4F57060FF3823D100240AE04D
:1005900000221146012001F001F9C5B20DB9002475
:1005A00005E0601C84B240F6FF708442F0DB00BFBF
:1005B000A4F57060FF3805D1294688A000F048FEF8
:1005C00002207FE70020764981F84E008FA000F0DE
:1005D0003FFE02E097A000F03BFE012000F034FA5D
:1005E000012200213B2001F0D9F8C5B22DB12946E6
:1005F0009AA000F02DFE284664E7FF224FF4007118
:10060000102001F0CBF8C5B2002D7CD0294600E0C7
:1006100004E09FA000F01CFE284653E7012D72D194
:10062000FF2001F033F9C0B28DF80000FF2001F087
:100630002DF9C0B28DF80100FF2001F027F9C0B2FA
:100640008DF80200FF2001F021F9C0B28DF80300FF
:1006500020215448FFF724FFFF2001F017F99DF8EF
:100660000200012873D19DF80300AA286FD100244D
:1006700019E000221146372001F090F8C5B2012D93
:1006800005D0294648A000F0E3FD28461AE70022DD
:100690004FF08041292001F081F8C5B20DB9002446
:1006A00005E0601C84B240F6FF708442E1DB00BFCD
:1006B000A4F57060FF3805D1294682A000F0C8FD7E
:1006C0000320FFE6002211463A2001F0A7F8C5B248
:1006D0002DB1294688A000F0BBFD2846F2E6FF2098
:1006E00001F0D4F8C0B28DF80000FF2001F0CEF880
:1006F000C0B28DF80100FF2001F0C8F8C0B28DF83B
:100700000200FF2000E022E001F0C0F8C0B28DF846
:10071000030020212348FFF7C3FEFF2001F0B6F8B5
:100720009DF8000010F0400F07D004201C4981F80C
:100730004E007EA000F08CFD06E00220184981F8F2
:100740004E0085A000F084FD012000F07DF900201E
:10075000B8E60000000C01405468657265206973BA
:10076000206E6F20636172642064657465637465D4
:100770006421200D0A0000005265736574206361D6
:10078000726420696E746F2049444C452073746113
:100790007465206661696C6564210D0A00000000C3
:1007A000780200200010014053656E6420434D44E0
:1007B00035352073686F756C642072657475726E60
:1007C00020307830312C20726573706F6E73653D08
:1007D0003078253032780D0A0000000053656E64D1
:1007E00020434D44312073686F756C6420726574CA
:1007F00075726E20307830302C20726573706F6E99
:1008000073653D3078253032780D0A00436172649B
:1008100020547970652020202020202020202020B6
:10082000202020202020202020203A204D4D430D44
:100830000A00000043617264205479706520202012
:1008400020202020202020202020202020202020A8
:1008500020203A2053442056310D0A0053656E641F
:1008600020434D4435392073686F756C6420726580
:100870007475726E20307830302C20726573706F12
:100880006E73653D3078253032780D0A0000000027
:1008900053656E6420434D4431362073686F756C28
:1008A000642072657475726E20307830302C20723E
:1008B0006573706F6E73653D3078253032780D0A40
:1008C0000000000053656E642041434D44343120E4
:1008D00073686F756C642072657475726E20307801
:1008E00030302C20726573706F6E73653D307825E3
:1008F0003032780D0A00000053656E6420434D4489
:1009000035382073686F756C642072657475726E0B
:1009100020307830302C20726573706F6E73653DB7
:100920003078253032780D0A00000000436172648F
:100930002054797065202020202020202020202095
:10094000202020202020202020203A205344205600
:100950003248430D0A0000004361726420547970EC
:100960006520202020202020202020202020202042
:100970002020202020203A2053442056320D0A0007
:100980002DE9F04105460E4617461C4890F84E00EA
:10099000042800D06D0200222946122000F0FEFE3D
:1009A00000F0FF08B8F1000F02D00120BDE8F0818F
:1009B000002413E006EB442000224FF4007100F005
:1009C000ABFE50B1002211460C2000F0E7FE2021C2
:1009D0000B48FFF765FD0220E8E7641CBC42E9D341
:1009E000002211460C2000F0D9FE20210448FFF718
:1009F00057FDFF2000F04AFF0020D7E778020020D3
:100A00000010014070B504460E460E4890F84E00A6
:100A1000042800D0640200222146112000F0BEFE0E
:100A2000C5B20DB1012070BD01225102304600F067
:100A300073FEC5B2002211460C2000F0AFFE28461E
:100A4000F1E700007802002010B586B004460020CF
:100A5000ADF804004FF48270ADF806000020ADF848
:100A600008000220ADF80A000120ADF80C00400299
:100A7000ADF80E000020ADF812000720ADF814000C
:100A80001CB93820ADF8100002E02020ADF81000AD
:100A900001A9024800F030FA06B010BD0030014054
:100AA00008B5012141F21C0000F038F9E020ADF852
:100AB000000003208DF8020018208DF8030069461D
:100AC0001448FFF759FC2020ADF8000003208DF8F2
:100AD000020010208DF8030069460F48FFF74CFC18
:100AE0000120ADF8000003208DF8020004208DF8ED
:100AF000030069460948FFF73FFC20210648FFF73D
:100B0000CFFC0020FFF7A0FF0121054800F0DAF933
:100B100008BD00000008014000100140000C014029
:100B2000003001402DE9F04705460E46174645487E
:100B300090F84E00042800D06D02424890F84E0014
:100B400020B100223946172000F028FE0022294655
:100B5000192000F023FEC4B214B10120BDE8F087D3
:100B600020213948FFF79AFCFF2000F08FFEFF207C
:100B700000F08CFEFF2000F089FE4FF000083AE004
:100B8000FC2000F083FE4FF0000907E016F8010B8F
:100B900000F07CFE09F101001FFA80F9B9F5007F31
:100BA000F4DBFF2000F072FEFF2000F06FFEFF205C
:100BB00000F06CFEC4B204F01F00052805D020210F
:100BC0002148FFF76DFC0220C8E74FF0000A0BE058
:100BD00050460AF1010AB0F5802F05D120211A48AC
:100BE000FFF75EFC0320B9E7FF2000F04FFEFF286F
:100BF000EED108F10108B845C2D3FD2000F046FE51
:100C0000C4B20CB90420A9E74FF0000A0BE050462B
:100C10000AF1010AB0F5802F05D120210A48FFF71B
:100C20003FFC05209AE7FF2000F030FEFF28EED1C0
:100C300020210548FFF734FCFF2000F027FE0020AC
:100C40008CE7000078020020001001402DE9F041FF
:100C500004460D462D4890F84E00042800D064024A
:100C600000222146182000F099FDC6B216B10120DD
:100C7000BDE8F08120212648FFF710FCFF2000F09E
:100C800005FEFF2000F002FEFF2000F0FFFDFE2029
:100C900000F0FCFD002705E015F8010B00F0F6FD63
:100CA000781C87B2B7F5007FF6DBFF2000F0EEFD81
:100CB000FF2000F0EBFDFF2000F0E8FDC6B206F0DB
:100CC0001F00052805D020211148FFF7E9FB02206D
:100CD000CEE74FF000080BE0404608F10108B0F500
:100CE000802F05D120210A48FFF7DAFB0320BFE758
:100CF000FF2000F0CBFD0028EED020210448FFF7B4
:100D0000CFFBFF2000F0C2FD0020B1E778020020F9
:100D10000010014000BFFEE77047704729B1064A46
:100D200092690243044B9A6104E0034A9269824348
:100D3000014B9A61704700000010024030B500215D
:100D40000022002400232D4D6D6805F00C0121B117
:100D5000042905D0082923D105E0294D056022E0AA
:100D6000274D05601FE0254D6D6805F47012234D79
:100D70006D6805F48034022505EB92421CB9214DC3
:100D8000554305600BE01D4D6D6815F4003F03D021
:100D90001C4D5543056002E0194D5543056002E0C6
:100DA000174D056000BF00BF144D6D6805F0F001E0
:100DB0000909154D6B5C0568DD4045600F4D6D6898
:100DC00005F4E061090A104D6B5C4568DD40856003
:100DD0000A4D6D6805F46051C90A0B4D6B5C45689E
:100DE000DD40C560054D6D6805F44041890B074D38
:100DF0006B5CC568B5FBF3F5056130BD00100240C2
:100E000000127A0000093D000000002010000020C0
:100E10001CB501AA694619A001F089FA18490870A1
:100E200008460078002827D101988069801E019B20
:100E30009B785843C10A01988078009B5843C20AA6
:100E400010A000F005FA01988069801E0199897848
:100E50004843C20A0198807800994843C30A15A103
:100E6000174800F005FA0121022001F0A5FC144802
:100E700001F04AFD01201CBD0020FCE7303A0000D3
:100E8000200200200D0A2564204D4220746F706CF2
:100E9000616D206469736B20616C616E69210D0A5C
:100EA0002564204D4220626F7320616C616E212E9B
:100EB0000D0A000025644D422F25644D422000009C
:100EC0002407002021B1028842F04002028004E0A1
:100ED00002884FF6BF731A40028070470246002016
:100EE00013890B4201D0012000E000207047014629
:100EF000888970478181704710B50022028802F40A
:100F000041520B884C8823438C882343CC8823434D
:100F10000C8923434C8923438C892343CC89234365
:100F20001A430280838B4FF2FF74234083830B8A22
:100F3000038210BD704710B500F002F810BD00002C
:100F40000CB50020019000903248006840F48030D9
:100F50003049086000BF2F48006800F4003000905E
:100F60000198401C0190009818B90198B0F5A06F45
:100F7000F1D12848006810F4003F02D00120009011
:100F800001E0002000900098012842D1224800682A
:100F900040F01000204908600846006820F0030077
:100FA00008600846006840F0020008601948406880
:100FB000184948600846406848600846406840F460
:100FC000806048600846406820F47C10486008460D
:100FD000406840F4E81048600846006840F08070BF
:100FE000086000BF0B48006810F0007FFAD0094885
:100FF000406820F00300074948600846406840F018
:101000000200486000BF0348406800F00C00082858
:10101000F9D10CBD0010024000200240042808D184
:101020004FF0E021096941F004014FF0E022116125
:1010300007E04FF0E021096921F004014FF0E022C0
:1010400011617047012808D14FF0E021096941F092
:1010500001014FF0E02211610EE0811C08D14FF038
:10106000E021096921F001014FF0E022116103E064
:1010700000214FF0E0229161704710B50146002237
:1010800000230020CB10022B03D14FF0E024226973
:1010900002E04FF0E024E26901248C40144201D0C8
:1010A000012000E0002010BD704740B14FF0E0216A
:1010B000096941F002014FF0E022116107E04FF0B1
:1010C000E021096921F002014FF0E022116170472F
:1010D0004FF0E0214861704710B51348006840F0B8
:1010E00001001149086008464068104908400E494F
:1010F0004860084600680E4908400B4908600846E9
:10110000006820F4802008600846406820F4FE0053
:1011100048604FF41F008860FFF70DFF4FF000603C
:101120000449086010BD0000001002400000FFF8F4
:10113000FFFFF6FE08ED00E021B1828942F4005283
:10114000828104E082894DF6FF731A4082817047E4
:1011500002460020B1F5007F00D100BF13880B428A
:1011600001D0012000E00020704700002DE9F04789
:1011700086B005460E460024A24600BFA1460027C1
:10118000B08900B100BF2F462C8A4CF6FF70044096
:10119000F08804432C82AC894EF6F3100440B088EA
:1011A00031890843718908430443AC81AC8A4FF606
:1011B000FF400440B0890443AC8201A8FFF7BEFDA4
:1011C0001F48874202D1DDF810A001E0DDF80CA035
:1011D000A88910F4004F08D00AEBCA0000EB0A10EF
:1011E00031684900B0FBF1F807E00AEBCA0000EBF8
:1011F0000A1031688900B0FBF1F86420B8FBF0F008
:1012000004012009642101FB1089A88910F4004F12
:1012100008D0322000EBC900B0FBF1F000F007006D
:10122000044308E0322000EB09106421B0FBF1F028
:1012300000F00F0004432C8106B0BDE8F0870000E9
:1012400000380140C1F308028280704700BFFEE70A
:101250000FB4054B10B503A9044A029800F02CF80E
:1012600010BC5DF814FB0000D525000874020020B6
:101270000FB4084B10B504A902AA039800F01CF89B
:10128000044602A9002000F01BFB204610BC5DF8BC
:1012900014FB0000C118000802E008C8121F08C1B2
:1012A000002AFAD170477047002001E001C1121FE7
:1012B000002AFBD1704700002DE9FF4F8DB00F468B
:1012C00005460026DEE1252874D100246D1CF14975
:1012D000A246A14601222B78203B02FA03F00842E5
:1012E00002D004436D1CF6E728782A2810D06FF04E
:1012F0002F022878A0F13001092915D80AEB8A01BC
:1013000002EB410144F0020400EB010A6D1CF0E71E
:1013100057F804ABBAF1000F03DA44F40054CAF1F1
:10132000000A44F002046D1C28782E2817D115F805
:10133000010F44F004042A280ED06FF02F02287801
:10134000A0F1300109290AD809EB890102EB41011A
:1013500000EB01096D1CF2E757F8049B6D1C28781F
:101360006C280FD006DC4C2817D068280DD06A28CE
:1013700014D104E0742810D07A280FD10DE044F481
:1013800000140AE044F4801401E044F44014697845
:10139000814202D16D1C04F580146D1C2A786E2ADE
:1013A00020D00DDC632A33D005DC002A6FD0582A08
:1013B00012D1A2E011E0642A6AD0692A0CD167E058
:1013C000732A2FD004DC6F2A6FD0702A04D199E0E1
:1013D000752A6BD0782A6AD01046DDE90F12904743
:1013E000761C4EE1C4F30250022806D003280AD02E
:1013F000042801CF0AD0066043E101CF4FEAE6712D
:10140000C0E900613DE101CF06803AE1067038E1B4
:1014100017F8040B8DF8000000208DF80100EB4652
:10142000012003E057F804BB4FF0FF3061074FF095
:10143000000102D40DE008F10101884649450FDAA8
:101440008045F8DB1BF808100029F4D108E008F10A
:10145000010188468142FADB1BF808100029F6D109
:10146000DDE90F23AAEB08008146214600F03BF995
:10147000304400EB080604E0DDE90F121BF8010B15
:101480009047B8F10108F7D221464846F4E0FDE064
:101490000A21C4F302534FF0000B0891022B07D02E
:1014A00001CFC117032B09D00AE034E023E024E088
:1014B000FF1D27F00707F7E8020105E000B2C1179A
:1014C000042B01D140B2C117002907DA4FF0000CFC
:1014D000D0EB0C006CEB01012D2302E0230504D5B9
:1014E0002B238DF82430012303E0E30701D02023D0
:1014F000F7E7984650E00A210EE010204FF0000B6D
:1015000008900CE010214FF0000B44F004044FF061
:101510000809089103E008214FF0000B0891C4F37B
:101520000253022B04D001CF0021032B06D006E08A
:10153000FF1D27F00707F7E8020103E080B2042B44
:1015400000D1C0B24FF00008230725D5702A2AD059
:10155000DDF820C08CF0100C5CEA0B0C09D150EACD
:10156000010306D030238DF824308DF82520022386
:101570009846DDF820C08CF0080C5CEA0B0C0BD10F
:1015800050EA010301D1630706D530238DF82430DA
:101590004FF00108A9F10109582A09D03EA20B9287
:1015A00008AA0A9211E040238DF824300123DFE7D6
:1015B0003EA2F4E75B46089AFEF7BBFD0B9B9B5CE3
:1015C0000A9AA2F101020A92137050EA0102F1D1C3
:1015D0000A98ADEB000000F1200B600702D524F45F
:1015E000803401E04FF00109D94502DDA9EB0B0081
:1015F00000E0002000EB0B0141440890AAEB010A37
:10160000E00306D4DDE90F232146504600F06BF8D5
:101610000644002008E009A911F80900DDE90F12CD
:101620009047761C09F1010081464045F3DBE00359
:101630000CD5DDE90F232146504600F054F806444E
:1016400004E0DDE90F1230209047761C0899481E0F
:1016500008900029F5DC08E00A980A990078491CEE
:101660000A91DDE90F129047761CBBF10001ABF146
:10167000010BF1DC21465046DDE90F2300F020F894
:1016800006446D1C287800287FF41DAE11B030464A
:10169000BDE8F08F09280100303132333435363758
:1016A00038396162636465660000000030313233AE
:1016B000343536373839414243444546000000004E
:1016C0002DE9F041044600251E461746880405D43E
:1016D00006E039462020B04705F10105641EF8D523
:1016E0002846BDE8F0812DE9F041044600251E465C
:1016F0009046C80301D5302700E02027880405D58F
:1017000006E041463846B04705F10105641EF8D5AC
:101710002846BDE8F08100002DE9F04105460E465F
:10172000174620211C48FEF7B9FE00240BE0FF20DD
:1017300000F0ACF800F0FF08B8F1FE0F01D1002472
:1017400004E0601C84B2B4F5FA6FF0DB00BFB4F5BE
:10175000FA6F06D120211048FEF7A2FE0120BDE855
:10176000F081002405E0FF2000F090F82855601C6F
:1017700084B2B442F7DBFF2000F088F8FF2000F0CD
:1017800085F837B120210448FEF78AFEFF2000F0DB
:101790007DF80020E3E70000001001402DE9F04152
:1017A00006460C461746FF2000F070F820211A4824
:1017B000FEF774FE46F0400000F068F8200E00F0DE
:1017C00065F8C4F3074000F061F8C4F3072000F0A7
:1017D0005DF8E0B200F05AF8384600F057F84FF0E4
:1017E00000080AE0FF2000F051F8C5B2FF2D00D03C
:1017F00006E008F1010000F0FF08B8F1C80FF1DBC6
:1018000000BF20210448FEF74BFEFF2000F03EF809
:101810002846BDE8F0810000001001402DE9F041AC
:1018200006460C461746FF2000F030F820211648E7
:10183000FEF734FE46F0400000F028F8200E00F0DD
:1018400025F8C4F3074000F021F8C4F3072000F0A6
:101850001DF8E0B200F01AF8384600F017F84FF023
:1018600000080AE0FF2000F011F8C5B2FF2D00D0FB
:1018700006E008F1010000F0FF08B8F1C80FF1DB45
:1018800000BF2846BDE8F0810010014010B50446B5
:1018900000BF02210948FFF721FB0028F9D02146AB
:1018A0000648FFF727FB00BF01210448FFF716FB9E
:1018B0000028F9D00148FFF71AFB10BD00300140A5
:1018C0000A68531C0B6010707047000070B5044626
:1018D0000D46607801232A4604F1300100F0C7FC70
:1018E00008B1032070BD94F82E1294F82F0241EA3B
:1018F0000020A0F52A41553901D00220F2E794F8E2
:101900006900010694F8680041EA004194F8670014
:1019100041EA002094F86610084320F07F400E4909
:10192000884201D10020DDE794F88500010694F893
:10193000840041EA004194F8830041EA002094F8D1
:101940008210084320F07F400349884201D10020E3
:10195000C8E70120C6E7000046415400024600E007
:10196000521C107810B110788842F9D11078704765
:101970002DE9F74F88B00898006801900198007829
:1019800030380790079809280AD8019840783A28F3
:1019900006D10198801C019008990198086001E027
:1019A00000200790079818B10B200BB0BDE8F08F0E
:1019B000D049079851F82040099804600CB90C20D0
:1019C000F3E7207878B1607800F07AFC804618F070
:1019D000010F08D10A9820B118F0040F01D00A2095
:1019E000E3E70020E1E7002020700798607060784E
:1019F00000F027FC804618F0010F01D00320D4E747
:101A00000A9820B118F0040F01D00A20CDE74FF05A
:101A1000000B59462046FFF759FF054600BF012D30
:101A200021D14FF0000ABAF1000F03D0AAF1010052
:101A300000F0FF0A4FF4DF7000EB0A1104F13000F0
:101A40000F18387978B1F87A0106B87A41EA00417E
:101A5000787A41EA0020397A40EA010B594620465B
:101A6000FFF734FF0546032D01D101209DE70DB19D
:101A70000D209AE73B20015D94F83C0041EA0020EC
:101A8000B0F5007F01D00D208FE74620015D94F86E
:101A9000470041EA0029B9F1000F0ED194F8570030
:101AA000010694F8560041EA004194F8550041EAD5
:101AB000002094F8541040EA0109C4F81C9040201A
:101AC000065DE670012E03D0022E01D00D206CE7DA
:101AD00009FB06F93D20005D0646A07016B1701E98
:101AE000304201D00D2060E74120015D94F84200B2
:101AF00041EA00202081207A10F00F0F01D00D2044
:101B000053E74320015D94F8440041EA0020069029
:101B1000069870B994F85300010694F8520041EA0F
:101B2000004194F8510041EA002094F85010084315
:101B300006903E20015D94F83F0041EA00200290AB
:101B4000029808B90D2030E702984844218900EB3B
:101B500011100590DDE90501814201D20D2024E735
:101B6000DDE90510401AA178B0FBF1F0049004986B
:101B700008B90D2019E7012540F6F671049888424E
:101B800000D302254FF6F6710498884200D303254E
:101B90000498801CA06105985844A062029858449B
:101BA0002062032D16D1208908B10D20FDE694F89E
:101BB0005F00010694F85E0041EA004194F85D0080
:101BC00041EA002094F85C1008436062A06980003C
:101BD000039014E0208908B90D20E6E6206A484405
:101BE0006062022D02D1A069400007E0207E00F073
:101BF0000100A16901EB410100EB51000390E16993
:101C0000039800F2FF10B1EB502F01D20D20CCE66B
:101C10004FF0FF3020610020E060032D5CD1607147
:101C200094F8601094F8610041EA00205844606123
:101C30006078012304F13001626900F018FBE8BB11
:101C400094F82E1294F82F0241EA0020A0F52A41C0
:101C5000553941D13320005D01063220005D41EA53
:101C600000413120005D41EA002094F83010084323
:101C70002149884230D194F81702010694F81602DF
:101C800041EA004194F8150241EA002094F8141248
:101C900008431A4988421FD194F81F02010694F89C
:101CA0001E0241EA004194F81D0241EA002094F826
:101CB0001C120843E06094F81B0200E00CE00106EF
:101CC00094F81A0241EA004194F8190241EA00200E
:101CD00094F8181208432061257009480088401CB8
:101CE00080B207490880E0800020E062207100BFD8
:101CF0005BE60000140000205252614172724161A3
:101D0000180000200246891E9069801E884201D872
:101D1000002070479378906A01FB0300F9E72DE9F2
:101D2000F04704468946B9F1000F06D1E76817B1BC
:101D3000A069B84211D801270FE04946204600F0BB
:101D40005BFC0646022E02D20120BDE8F087A069A6
:101D5000B04201D93046F8E74F463D4600BF6D1C02
:101D6000A069A84204D80225BD4201D90020ECE7B1
:101D70002946204600F040FC064606B909E0701CE2
:101D800001D0012E01D13046DFE7BD42E7D100206E
:101D9000DBE700BF6FF070422946204600F08EFF5F
:101DA0008046B8F1000F08D1B9F1000F05D02A46DE
:101DB0004946204600F082FF8046B8F1000F09D165
:101DC000E5602069401C0DD02069401E2061012083
:101DD000607107E0B8F1010F02D14FF0FF3000E071
:101DE000012005462846B0E72DE9F35F0198D0F8B9
:101DF000009001E009F1010999F800002F28F9D0BD
:101E000099F800005C28F5D0009886690B22202103
:101E1000304600F010FF00252F46AB464FF0080A71
:101E200000BF58460BF1010B19F80040202C03DDD0
:101E30002F2C01D05C2C00D157E02E2C01D057451F
:101E40000DD3BAF1080F01D12E2C02D00620BDE827
:101E5000FC9F08274FF00B0AA806050EE1E7802C2F
:101E600001DB45F00305812C01DB9F2C03DDE02C19
:101E700020DBFC2C1EDC58460BF1010B19F800800E
:101E8000B8F1400F02DBB8F17E0F05DDB8F1800F2D
:101E900006DBB8F1FC0F03DCAAF10100B84201D85F
:101EA0000620D4E738467F1C345438467F1C06F899
:101EB000008019E0214620A0FFF750FD08B1062060
:101EC000C5E7412C04DB5A2C02DC45F0020508E092
:101ED000612C06DB7A2C04DC45F00105A4F120001E
:101EE000C4B238467F1C34549BE700BF09EB0B019A
:101EF00001980160202C01DC042000E00020044651
:101F00000FB90620A3E73078E52801D1052030700D
:101F1000BAF1080F01D1A806050E05F0030001284B
:101F200001D144F0100405F00C00042801D144F064
:101F30000804F47200208AE7222A2B2C3A3B3C3D0D
:101F40003E3F5B5D7C7F000000B585B06846FEF7D4
:101F5000F5FE6FF00400FFF761F80020FFF7A5F829
:101F600007490198B0FBF1F0064908704FF4FA51A7
:101F70000198B0FBF1F00449088005B000BD0000F5
:101F800000127A006C0200206E02002030B5044678
:101F90001148008800FB04F5B5F1807F01D36FF094
:101FA0007F452846FFF794F80020FFF74BF8012003
:101FB000FFF748F800BF1020FFF75FF807490870E7
:101FC000084600780128F6D1C01EFFF73BF8002034
:101FD000FFF738F830BD00006E02002070020020CC
:101FE0002DE9F04104460021204600F0DCF80546CA
:101FF00015B12846BDE8F08100BF2169206800F0D6
:1020000024FE054605B116E0666937780FB9042548
:1020100011E0F07A10F0080F06D10B223046A169CA
:1020200000F0F6FD00B906E00021204600F006F8B9
:102030000546002DE1D000BF2846DBE72DE9F04141
:102040000446884600BFE088401C86B20EB1206975
:1020500010B90420BDE8F08116F00F0F6ED1206991
:10206000401C2061E06828B920680089B04265DC26
:102070000420EFE720688078401E10EA161F5DD12B
:10208000E168206800F0B8FA0546012D01D8022069
:10209000E0E7681C01D10120DCE720688069A842E4
:1020A00046D8B8F1000F01D10420D3E7E1682068D9
:1020B000FFF735FE05460DB90720CBE7012D01D10D
:1020C0000220C7E7681C01D10120C3E70021206876
:1020D00000F0BBFD08B10120BCE7216801F1300030
:1020E0004FF40072002100F0A6FD29462068FFF79A
:1020F00009FE2168C862002710E0012021680871EC
:102100000021206800F0A1FD08B10120A2E72068AD
:10211000C06A401C2168C862781CC7B220688078F9
:10212000B842EADC2068C06AC01B2168C86200BFF0
:10213000E56029462068FFF7E5FD2061E68020681C
:10214000303006F00F0100EB41106061002081E7A4
:102150002DE9F041044604251BE02169206800F0C8
:1021600074FD054605B117E067693E780EB9042590
:1021700012E0E52E06D02E2E04D0F87A10F0080FCB
:1021800000D109E000212046FFF758FF054605B1C0
:1021900002E020690028E0D100BF0DB100202061DD
:1021A0002846BDE8F0812DE9F04104460E46E68060
:1021B000A568012D03D020688069A84202D80220BA
:1021C000BDE8F0812DB920680078032801D120688E
:1021D000456A65B9E56020680089B04201DC0220EB
:1021E000EEE72068406A00EB1610206120E02068CE
:1021F0008078070112E02946206800F0FDF90546C5
:10220000681C01D10120DBE7022D03D3206880691F
:10221000A84201D80220D3E7F01B86B2BE42EADA18
:10222000E56029462068FFF76DFD00EB1610206180
:102230002068303006F00F0100EB41106061002093
:10224000BEE770B5054625B1012D0AD0022D0CD18F
:1022500009E0FEF729F904460CB9002070BD012001
:10226000FCE70120FAE70120F8E70120F6E72DE975
:10227000F0410646884617461C4614B90420BDE8BE
:10228000F08126B1012E15D0022E15D113E0012CBC
:1022900005D141463846FEF7B5FB054605E0224626
:1022A00041463846FEF76CFB05460DB90020E6E7CF
:1022B0000120E4E701E000E000BF00BF0120DEE70D
:1022C000014621B1012904D0022906D103E00020F2
:1022D00070470020FCE70020FAE700BF00BF0120A4
:1022E000F6E72DE9F0410646884617461C4614B924
:1022F0000420BDE8F08116B1022E14D112E0012CA9
:1023000005D141463846FEF7A1FC054605E02246C8
:1023100041463846FEF706FC05460DB90020E8E7C1
:102320000120E6E700E000BF00BF0120E1E72DE962
:10233000F74F82B08B4614460022214602A8FFF7D1
:1023400017FB01900198002877D120680169806906
:10235000801E814204D820680069CBF800006CE040
:10236000206890F800A00026BAF1010F1DD10227C5
:1023700000BF3946206800F03FF9804618F101009F
:1023800002D1012001900FE0B8F1010F02D102202B
:10239000019009E0B8F1000F00D1761C781C0746C7
:1023A000216889698842E4D33DE020688769206814
:1023B000006A00904FF00009002500BFB9F1000F3E
:1023C0000FD1009A531C11460093206800F03DFC89
:1023D0000190019800B125E0206800F130054FF42C
:1023E0000079BAF1020F09D12878697850EA012002
:1023F00000D1761CAD1CA9F1020910E0E8780006B6
:10240000A97840EA0140697840EA01202978084328
:1024100030F0704000D1761C2D1DA9F10409781E02
:102420000700CBD100BF20680661BAF1030F02D1CB
:10243000012021684871CBF80060019805B0BDE823
:10244000F08F00000246012A01DB0B20704707488D
:1024500050F822300BB10020187009B1002008702C
:10246000024840F822100020F0E70000140000208D
:1024700033B583B004460022214604A8FFF778FA5A
:1024800005464DBBC4F818D02046049900F053F817
:102490000546F5B9606998B16069C07A10F0100F0F
:1024A0000DD06069817EC07E41EA00216069027DB5
:1024B000407D42EA002041EA0040A06000E005259E
:1024C0003DB92068C088A08000212046FFF76BFE40
:1024D0000546042D00D10525284605B030BDFEB5C2
:1024E00004460E46A188206800F0F4FC054605BBB2
:1024F0002EB900212046FFF756FE054619E0C4F824
:1025000018D02046FFF724FE0546042D02D10020F6
:10251000206100256DB93146204600F0DFF800212A
:102520002046FFF78BFD0546042D02D100202061D7
:1025300000252846FEBD2DE9F341044601980078A8
:102540002F2803D0019800785C2802D10198401C04
:1025500001900020A06001980078202807D2002177
:102560002046FFF720FE0646002060612FE000BFF6
:1025700001A92046FFF738FC064606B126E02046B2
:10258000FFF72EFD0646A069C77A46B1042E00D09B
:102590001CE000BF17F0040F00D1052616E017F06D
:1025A000040F00D012E06569E87A10F0100F01D135
:1025B00005260BE0A97EE87E41EA00212A7D687DA0
:1025C00042EA002041EA0040A060D1E700BF304667
:1025D000BDE8FC8170B504460D46E1B20548FEF742
:1025E00031FE00BF40210348FEF7B2FD0028F9D0BC
:1025F000204670BD003801402DE9F04105460C46EB
:10260000022C02D3A869A04202D80120BDE8F081C3
:102610002878012804D002282CD003285AD13DE084
:10262000274607EB5707286A00EB5721284600F09A
:102630000CFB00B14EE0C7F3080105F1300010F8C3
:1026400001807F1C286A00EB5721284600F0FDFA24
:1026500000B13FE0C7F3080105F13000405C48EAF3
:10266000002814F0010F02D04FEA1810CEE7C8F38B
:102670000B00CBE7286A00EB1421284600F0E5FAAE
:1026800000B127E040F2FF1000EA440105F13000FC
:102690000E183078717840EA0120B7E7286A00EB1D
:1026A000D411284600F0D1FA00B113E040F2FF1037
:1026B00000EA840105F130000E18F0780006B178C8
:1026C00040EA0140717840EA01203178084320F067
:1026D00070409BE700BF4FF0FF3097E7F0B505462D
:1026E0000B4603F109022F69002F40D06869067B71
:1026F00000210AE0445C202C00D108E0052C00D128
:10270000E52400BF02F8014B491C0829F2D300BFA1
:10271000077A202F0FD02E2702F8017B082107E02F
:10272000445C202C00D105E000BF02F8014B491C9D
:102730000B29F5D300BFC77A1F72C77F4FEA076C1A
:10274000877F4CEA074C477F4CEA072790F81CC06C
:1027500047EA0C071F6090F818C0477E4CEA07272D
:102760009F8090F816C0C77D4CEA0727DF800027BE
:102770001770F0BD44F6206000BF0100A0F1010019
:10278000FBD1704710B5012000F098F80520FFF745
:10279000FDFB10BD00B50748006840F40060054926
:1027A0000860FFF7E7FF0348006820F40060014974
:1027B000086000BD0C0C014070B506460C46012EA9
:1027C0000BD1651EE91705EB11710911A5EB01117C
:1027D0008031C8B200F072F80AE0651EE91705EB17
:1027E00011710911A5EB0111C031C8B200F066F8F2
:1027F00070BD000010B52C480068C0F309002A49DC
:1028000008606420FFF7C2FB032000F057F80120A6
:10281000FFF7BCFBFFF7BEFF0120FFF7B7FBFFF799
:10282000B9FF022000F04AF80120FFF7AFFB332088
:1028300000F044F8322000F041F8282000F03EF883
:102840000C2000F03BF800201849087024E01848DC
:10285000007800F033F80020164908700EE01649A1
:10286000124A127801EBC201124A1278885C00F019
:1028700047FB10480078401C0E4908700D4800784E
:102880000728ECDD0A480078083009490870074835
:102890000078401C05490870044800780728D6DDF8
:1028A000FFF770FF10BD00000C0C01406902002012
:1028B000280200206A0200202902002000B50346F9
:1028C00010480068C0F309000E4908600846006817
:1028D00003F0F00140EA01200A490860FFF75AFFBF
:1028E000FFF748FF07480068C0F309000549086082
:1028F0000846006840EA03300860FFF74BFFFFF727
:1029000039FF00BD0C0C014010B5044603E014F87B
:10291000010B00F0F5FA20780028F8D110BD000076
:10292000FFF712FBFDF798FC4548C06820F4807063
:102930004349C860FDF7E2FCFEF7B2F8FFF75AFF23
:1029400040A0FFF7E1FF0A20FFF720FB0121022052
:10295000FFF732FF40A0FFF7D7FF40F2DC50FFF750
:1029600015FB42A0FEF774FC41A0FEF771FC4DA0E0
:10297000FEF76EFC58A0FEF76BFC4AA0FEF768FC61
:1029800062A0FEF765FC01216D48FDF77EFD50B9A0
:102990006CA0FEF75DFC01210846FFF70DFF6FA05C
:1029A000FFF7B2FF1CE072A0FEF752FC01210846BF
:1029B000FFF702FF77A0FFF7A7FF00BF01216048E4
:1029C000FDF763FD0028F9D177A0FEF741FC012156
:1029D0000846FFF7F1FE7CA0FFF796FF00BFFEE779
:1029E0007E490020FFF72EFD4FF4FA70FFF7CEFA74
:1029F00001210846FFF7E0FE79A0FFF785FF7D483B
:102A000000F0FAF901210846FFF7D6FE7AA0FFF799
:102A10007BFFFEF7FDF912E07C48006840F0010002
:102A20007A4908604FF4FA70FFF7B0FA7748006807
:102A30000020764908604FF4FA70FFF7A7FAEBE739
:102A400000100140204578706B697473204558531D
:102A50002D3033200000000020202053544D33320D
:102A60004631307820202020000000000D0A0000B0
:102A70002A2A2A2A2A2A2A2A2A2A2A2A2A2A2A2AB6
:102A80002A2A2A2A2A2A2A2A2A2A2A2A2A2A2A2AA6
:102A90002A2A2A2A2A2A2A2A2A2A2A2A2A2A2A2A96
:102AA0002A0D0A002A20202020202020202020205B
:102AB0002020202020202020202020202020202016
:102AC0002020202020202020202020202020202006
:102AD000202020202A0D0A002A202020202077777D
:102AE000772E4578706B6974732E636F6D20202D7F
:102AF000205344204B61727420557967756C616D69
:102B000061736920202020202A0D0A002A2A2A2AFF
:102B10002A2A2A2A2A2A2A2A2A2A2A2A2A2A2A2A15
:102B20002A2A2A2A2A2A2A2A2A2A2A2A2A2A2A2A05
:102B3000202A2A2A2A2A2A2A2A2A2A2A2A0D0A0066
:102B4000000C01402D2D205344206B6172742062D3
:102B5000756C756E647521200D0A00005344206B5E
:102B60006172742062756C756E64752100000000DE
:102B70002D2D204C757466656E205344204B617278
:102B80007469205965726C6573746972696E200D81
:102B90000A0000005344206B61727420796F6B2E21
:102BA0002E2E2120000000002D2D205344204B61AB
:102BB0007274204261676C616E746920686174612F
:102BC0007369200D0A0000005344206B6172742069
:102BD000686174617369212000000000D002002048
:102BE0004F6B756E75796F722E2E2E20202020204F
:102BF000000000001C000020546F706C616D204BC1
:102C0000617061736974653A000000000C0801404E
:102C1000F0B503461C460D46002000BF1600A2F189
:102C2000010207D014F8017B15F801CBA7EB0C06C5
:102C30003000F3D0F0BD30B5034601E003F8011BCE
:102C40001400A2F10102F9D130BD2DE9F041044692
:102C50000D46E66AAE422FD0207908B36078012392
:102C6000324604F13001FFF73CFB10B10120BDE812
:102C7000F08100202071D4E907100844B0420FD938
:102C8000E7780AE0E069064460780123324604F1FF
:102C90003001FFF726FB781EC7B2012FF2DC00BF20
:102CA00055B1607801232A4604F13001FFF7DFFABD
:102CB00008B10120DBE7E5620020D8E72DE9F04705
:102CC00005460E461746022E02D3A869B04202D826
:102CD0004FF002088DE02878012804D0022843D064
:102CE00003287DD156E0B14609EB5909286A00EB6B
:102CF00059212846FFF7A9FF8046B8F1000F00D000
:102D000074E0C9F3080105F130000C1816F0010F4A
:102D100004D0F9B2207861F31F1000E0384620702B
:102D200009F1010901202871286A00EB5921284680
:102D3000FFF78BFF8046B8F1000F00D056E0C9F3D3
:102D4000080105F130000C1816F0010F02D0C7F38E
:102D5000071007E0207800F0F000C7F3072101F02A
:102D60000F010843207041E0286A00EB1621284635
:102D7000FFF76BFF8046B8F1000F00D036E040F25D
:102D8000FF1000EA460105F130000C182770380AE0
:102D900060702BE0286A00EBD6112846FFF755FF3C
:102DA0008046B8F1000F00D020E040F2FF1000EAAA
:102DB000860105F130000C18E0780006A17840EAA1
:102DC0000140617840EA01202178084300F070401A
:102DD00007432770380A6070380CA070380E00E086
:102DE00001E0E07002E04FF0020800BF00BF0120E8
:102DF00028714046BDE8F08770B58EB00446214684
:102E000001A8FFF735FB284908700846007800281C
:102E100045D12046FDF786F9054600BF08A901A85F
:102E2000FFF75DFB204908700846007810B99DF84F
:102E3000290000B932E09DF829002E2800D1EDE7E5
:102E40000DF129069DF8280010F0100F10D0601920
:102E5000324616A1FEF70CFA2046FFF7CDFF1249C5
:102E600008700846007800B118E00020605514E0B2
:102E7000324621460EA0FEF7EBF901210220FFF7B2
:102E80009BFC32460DA11248FEF7F2F91048FFF7FD
:102E90003BFD4FF4FA70FFF779F8BFE700BF024837
:102EA00000780EB070BD0000200200202F257300B6
:102EB00025732F2573200D0A0000000025732020A4
:102EC0002020202020202020202020202020000042
:102ED0002407002070B504460D4624B1207810B1B7
:102EE000E088A84201D0092070BD6078FFF7E8F9BA
:102EF00010F0010F01D00320F6E70020F4E70000F6
:102F000000B50346E72B20D00CDCDC2B1BD004DC07
:102F1000C72B10D0D62B22D111E0DD2B0DD0DE2B0C
:102F20001DD10EE0F62B14D0FC2B16D0FD2B0ED0AD
:102F3000FE2B14D10FE0002312E0012310E0022346
:102F40000EE003230CE004230AE0002308E0012341
:102F500006E0022304E0032302E0042300E000BFB4
:102F600000BF14480068C0F3090012490860084611
:102F7000006803F0F0014FF4806242EA0121084347
:102F80000C490860FFF706FCFFF7F4FB09480068EE
:102F9000C0F309000749086008460068091541EABE
:102FA0000331084303490860FFF7F4FBFFF7E2FB36
:102FB00000BD00000C0C0140D82F000800000020CC
:102FC00078020000F601000828300008780200208E
:102FD00010090000A8120008412D0102030404801A
:102FE00009060708090204060803FF303A01FFC179
:102FF0001240370E1010110E04160C0404040E12A9
:103000000A260E1111110E1F0F100E011E041019A9
:103010000F1910200802060E1E0E060219261901AD
:08302000210611100804020151
:04000005080000ED02
:00000001FF
