:020000040800F2
:100000007804002001010008230500081F050008EE
:1000100021050008C1020008F907000800000000DF
:10002000000000000000000000000000ED050008D6
:10003000C302000800000000250500082B06000888
:100040001B0100081B0100081B0100081B01000820
:100050001B0100081B0100081B0100081B01000810
:100060001B0100081B0100081B0100081B01000800
:100070001B0100081B0100081B0100081B010008F0
:100080001B0100081B0100081B0100081B010008E0
:100090001B0100081B0100081B0100081B010008D0
:1000A0001B0100081B0100081B0100081B010008C0
:1000B0001B0100081B0100081B0100081B010008B0
:1000C0001B0100081B0100081B0100081B010008A0
:1000D0001B0100081B0100081B0100081B01000890
:1000E0001B0100081B0100081B010008DFF80CD0F1
:1000F00000F02EF800480047110E00087804002098
:100100000648804706480047FEE7FEE7FEE7FEE7B1
:10011000FEE7FEE7FEE7FEE7FEE7FEE72D06000846
:10012000ED00000830B50B460146002020220124D6
:1001300009E021FA02F59D4205D303FA02F5491BB5
:1001400004FA02F52844151EA2F10102F1DC30BDCB
:10015000064C074D06E0E06840F0010394E8070014
:1001600098471034AC42F6D3FFF7C4FFCC0F000819
:10017000EC0F00080029816814BF41F0010121F053
:1001800001018160704701460020896811F0040F69
:1001900018BF01207047C06C80B270470246002033
:1001A00012680A4218BF0120704701460020896882
:1001B00011F0080F18BF012070470000426891F845
:1001C00004C022F4807222F470220B6842EA0C22EE
:1001D0001A43426082680B4B1A40D1E902C343EADA
:1001E0000C0391F805C042EA4C021A438260C26ACD
:1001F000097C22F47002491EC9B242EA0151C1626F
:1002000070470000FDF7F1FF30B4072409290DD92C
:10021000C568A1F10A0C0CEB4C0C04FA0CF425EAAD
:10022000040403FA0CF32343C3600AE0056901EBFD
:10023000410C04FA0CF425EA040403FA0CF32343FA
:1002400003611F23072A0CD2D0F834C0521E02EBE0
:10025000820293402CEA030391401943416330BC6E
:1002600070470D2A0CD2D0F830C0D21F02EB8202A8
:1002700093402CEA030391401943016330BC70475B
:10028000D0F82CC00D3A02EB820293402CEA030313
:1002900091401943C16230BC7047816841F0080148
:1002A000816070470029816814BF41F4A00121F4E6
:1002B000A00181607047816841F00401816070474E
:1002C000FEE7704730B5054687B001214FF4047052
:1002D00000F02AF90320ADF814008DF81600002470
:1002E0008DF8174005A91A4800F0C2F84FF46021B4
:1002F000CDE90214012000948DF80400154C8DF80E
:1003000005008DF8100069462046FFF757FF0523CA
:10031000012229462046FFF777FF01212046FFF7FB
:1003200029FF2046FFF7B9FF2046FFF73EFF0028D0
:10033000FAD12046FFF7BFFF2046FFF724FF002831
:10034000FAD101212046FFF7ADFF07B030BD000014
:1003500000100140002401402DE9F8430121042050
:1003600000F0E2F80121082000F0DEF80121102061
:1003700000F0DAF80324ADF800408DF802401025B3
:100380008DF803506946184800F072F80C20ADF85B
:100390000000164F8DF802408DF80350694638462C
:1003A00000F066F84FF47C40ADF80000DFF84080C4
:1003B0008DF802408DF803506946404600F058F829
:1003C0002E01ADF800606946404600F051F8ADF8E6
:1003D00000608DF802408DF803506946384600F001
:1003E00047F8BDE8F8830000000801400010014014
:1003F000000C014030B585B0012144F2040000F04A
:1004000093F818248DF813404FF40070ADF81000E5
:100410000320154D8DF8120004A9284600F028F895
:100420008DF813402815ADF8100004A9284600F0F7
:100430001FF84FF4165000900020ADF80400ADF8FE
:100440000600ADF80800ADF80C000C20074CADF824
:100450000A006946204600F071F90121204600F0AB
:100460005DF905B030BD00000008014000380140D2
:100470002DE9F001CB78002203F00F0C13F0100FE0
:100480001CBF8B7843EA0C0C0B780F260125002B40
:1004900018BF04681AD000BF0F8805FA02F31F4086
:1004A0009F420FD1970006FA07F824EA08040CFAD5
:1004B00007F73C43CF78282F08BF436102D0482F6D
:1004C00008BF0361521C082AE6D304600A88FF2A89
:1004D00087BF44680022BDE8F001704702F10803BD
:1004E0000F8805FA03F31F409F420FD1970006FAC9
:1004F00007F824EA08040CFA07F73C43CF78282FC2
:1005000008BF4361CF78482F08BF0361521C082AF7
:10051000E4D34460BDE8F001704741617047FEE7F5
:10052000FEE7704770470000044A0029916914BF34
:10053000084321EA0000906170470000001002406B
:10054000254910B44A6812F00C03244A18BF042B42
:1005500001D0082B01D0026015E04A684B6802F414
:1005600070124FF0020C13F4803F0CEB924203D058
:100570004B6813F4003F03D0194B5A43026002E06A
:10058000164B5A4302604A680F2303EA1212154BB6
:100590009A5CD0F800C02CFA02F24260D1F804C094
:1005A000072404EA1C2C13F80CC022FA0CFCC0F837
:1005B00008C0D1F804C004EADC2C13F80C30DA408F
:1005C000C2604968032303EA9131074B595CB2FBCF
:1005D000F1F1016110BC70470010024000127A0076
:1005E00000093D00040000200000002070474FF08B
:1005F000E021042808690CBF40F0040020F004004A
:10060000086170474FF0E021012804BF086940F0FD
:10061000010008D0801C07BF086920F001000020FD
:10062000886118BF7047086170477047374882B0CB
:10063000016841F0010101604168354A11404160A3
:10064000016821F4102121F080710160016821F41A
:1006500080210160416821F4FE0141604FF41F01D7
:100660008160002201920092016841F480310160B2
:10067000016801F4003100910199491C0191009930
:1006800019B90199B1F5A06FF2D1016811F4003FD9
:1006900008BF009233D0012100911E490A6842F040
:1006A00010020A600A6822F003020A600A6842F037
:1006B00002020A604168416041684160416841F45A
:1006C00080614160416821F47C114160416841F4DE
:1006D000E8114160016841F080710160016811F02A
:1006E000007FFBD0416821F003014160416841F087
:1006F00002014160416801F00C010829FAD1064964
:100700004FF00060086002B0704700000010024027
:100710000000FFF80020024008ED00E00029818978
:1007200014BF41F4005121F4005181817047024609
:10073000002012880A4218BF0120704730B50446D5
:10074000008A85B00D464CF6FF710840E9880843E1
:100750002082A0894EF6F3110840A9882A89114306
:100760006A8910430843A081A08A4FF6FF410840E0
:10077000A9890843A0826846FFF7E2FEA4F1804001
:10078000B0F59C300CBF03980298A18911F4004F7A
:1007900000EBC00101EB0010296814BF490089007B
:1007A000B0FBF1F0114A6FF0180CA2FB00314909BF
:1007B00009010B0903FB0CF300EB8300A38913F47D
:1007C000004F4FF0320314BF03EBC00003EB0010E7
:1007D000A2FB00204FEA501014BF00F0070000F009
:1007E0000F000843208105B030BD00001F85EB518C
:1007F000C1F3080181807047FEE700000FB4054B8C
:1008000010B503A9044A029800F02CF810BC5DF85A
:1008100014FB0000490C0008600000200FB4084BD6
:1008200010B504A902AA039800F01CF8044602A916
:10083000002000F0BCF9204610BC5DF814FB00005D
:10084000AF0B000802E008C8121F08C1002AFAD145
:1008500070477047002001E001C1121F002AFBD140
:10086000704700002DE9FF4F8BB0884605460026F3
:1008700067E125287AD100246D1CB649A146A2461D
:1008800001222B78203B02FA03F0084202D00443F5
:100890006D1CF6E728782A2810D06FF02F022878F0
:1008A000A0F13001092915D809EB890102EB4101BA
:1008B00044F0020400EB01096D1CF0E758F8049BBA
:1008C000B9F1000F03DA44F40054C9F1000944F00F
:1008D00002046D1C28782E2817D115F8010F44F05A
:1008E00004042A280ED06FF02F022878A0F13001DE
:1008F00009290AD80AEB8A0102EB410100EB010A3F
:100900006D1CF2E758F804AB6D1C28786C280FD0EA
:1009100006DC4C2817D068280DD06A2814D104E0D2
:10092000742810D07A280FD10DE044F400140AE0A6
:1009300044F4801401E044F440146978814202D107
:100940006D1C04F580146D1C2878692866D007DCBE
:10095000002876D0632828D0642807D15EE005E01F
:100960006E2808D073282AD075287AD0DDE90D12B8
:100970009047761CE4E0C4F30250022809D0032813
:100980000DD0D8F8001004280DD00E6008F104082E
:10099000D6E0D8F80010F217C1E90062F6E7D8F8FF
:1009A00000100E80F2E70E70F0E718F8041B8DF8C7
:1009B000001000208DF80100EB46012003E058F8FC
:1009C00004BB4FF0FF3061074FF0000701D40AE08D
:1009D0007F1C57450DDA8742FADB1BF80710002908
:1009E000F6D106E07F1C8742FCDB1BF807100029CC
:1009F000F8D1DDE90D23A9EB07008146214600F07F
:100A0000BEF83044C61904E0DDE90D121BF8010BF5
:100A100090477F1EF8D2214648468CE058F8040BD8
:100A2000C4F302514FF00A0B032900D100B204298C
:100A300000D140B2002806DAC0F100004FF02D01CD
:100A400004E082E00DE0210504D52B218DF824106F
:100A5000012103E0E10710D02021F7E708AF08915A
:100A600014E058F8040BC4F302514FF00A0B0329A9
:100A700000D180B2042900D1C0B20021EEE759466E
:100A8000FFF750FB01F1300107F8011D0028F6D1F6
:100A9000ADEB070000F1200B600702D524F4803491
:100AA00001E04FF0010ADA4502DDAAEB0B0000E09D
:100AB0000020824600EB0B0108980144A9EB0100DD
:100AC0000A90E00306D4DDE90D2321460A9800F0E0
:100AD00056F80644002008E009A911F80900DDE9EC
:100AE0000D129047761C09F1010008998146884251
:100AF000F2DBE0030CD5DDE90D2321460A9800F076
:100B00003EF8064404E0DDE90D1230209047761CE3
:100B1000BAF10001AAF1010AF5DC05E0DDE90D12E8
:100B200017F8010B9047761CBBF10001ABF1010BEC
:100B3000F4DC0A982146DDE90D2300F00DF80644A7
:100B40006D1C287800287FF494AE0FB03046BDE8C5
:100B5000F08F0000092801002DE9F041044600252E
:100B60001E461746880405D406E039462020B047C3
:100B700005F10105641EF8D52846BDE8F0812DE990
:100B8000F041044600251E469046C80301D5302793
:100B900000E02027880405D506E041463846B047E6
:100BA00005F10105641EF8D52846BDE8F0810A6804
:100BB000531C0B601070704700B585B06846FFF796
:100BC000BFFC6FF00400FFF712FD4FF0E020016959
:100BD00021F002010161074901984FF4FA52B0FB7C
:100BE000F1F1054801700199B1FBF2F1418005B0C6
:100BF00000BD000000127A0016000020114A00B566
:100C000051884843B0F1807F28BF6FF07F404FF09C
:100C1000E02358610020FFF7F5FC0120FFF7F2FC0C
:100C20001969002011F4803F18BF0120507001287D
:100C3000F6D1C01EFFF7E6FC00205DF804EBFFF7DD
:100C4000E1BC00001600002070B5074D0446C1B29B
:100C50002846FFF7CDFD40212846FFF768FD002814
:100C6000F9D0204670BD00000038014010B50120C9
:100C700000F082F8BDE810400520FFF7BFBF491E15
:100C8000CA1701EB127222F00F02891A012804D050
:100C900001F1C000C0B200F06FB801F18000C0B235
:100CA00000F06AB870B5324C2068C0F309002060CB
:100CB0006420FFF7A3FF032000F05EF80120FFF798
:100CC0009DFF206840F40060206044F61F60401ED5
:100CD000B0F1FF3FFBDC206820F4006020600120C1
:100CE000FFF78CFF206840F40060206044F61E602F
:100CF000401EB0F1FF3FFBDC206820F40060206064
:100D0000022000F039F80120FFF778FF332000F0CF
:100D100033F8322000F030F8282000F02DF80C20B5
:100D200000F02AF8134C0026E51C6670207800F0CD
:100D300023F8A6706078A17805EBC000405C00F055
:100D4000E1F8A078401CC0B2A0700728F2D9207842
:100D5000083020706078401CC0B260700728E5D968
:100D6000012000F009F8BDE870400520FFF746BFFC
:100D70000C0C01401A0000201D4A1168C1F3090142
:100D80001160116800F0F00341EA0321116011685D
:100D900041F40061116044F61F61491EB1F1FF3F4B
:100DA000FBDC116821F40061116044F61E61491EEC
:100DB000B1F1FF3FFBDC1168C1F30901116011685B
:100DC00041EA00301060106840F40060106044F6A2
:100DD0001E60401EB0F1FF3FFBDC106820F4006095
:100DE000106044F61E60401EB0F1FF3FFBDC704710
:100DF0000C0C014010B504460078002808BF10BD57
:100E000014F8010B00F07EF820780028F8D110BD0E
:100E1000FFF7D2FEFFF7A0FA4FF480712348FFF7E7
:100E20007CFBFFF73FFF22A0FFF7E4FF0121022038
:100E3000FFF725FF22A0FFF7DDFF40F2DC50FFF7B0
:100E4000DDFEFFF713FF22A0FFF7D4FF01210220F0
:100E5000FFF715FFFFF7CEFA21A0FFF7CFFC0B201D
:100E6000FFF730FA1F4D204C40F6FF76022128464E
:100E7000FFF794F90128F9D12846FFF78CF9301AC9
:100E800081B2218019A0FFF7B9FC228819A11C4862
:100E9000FFF7C4FC01210220FFF7F1FE1848FFF71D
:100EA000A9FF3220FFF7AAFEE0E700000010014092
:100EB000202052533233322054657374690000008D
:100EC0007777772E4578704B6974732E636F6D005A
:100ED000476F6E646572696C69796F722E2E2E0091
:100EE00030000000002401401400002025640D0A99
:100EF0000000000020204C4452203D202534640096
:100F000064000020E72816D00CDCDC281BD004DCB1
:100F1000C72810D0D62817D111E0DD280DD0DE2843
:100F200012D10EE0F6280AD0FC280CD0FD2804D0FF
:100F3000FE2809D105E0002006E0012004E002209F
:100F400002E0032000E004201F4A1168C1F30901F8
:100F50001160116800F0F00C131543EA0C2C41EA03
:100F60000C011160116841F40061116044F61E61CA
:100F7000491EB1F1FF3FFBDC116821F400611160F3
:100F800044F61E61491EB1F1FF3FFBDC1168C1F35D
:100F900009011160116843EA0030084310601068CD
:100FA00040F40060106044F61E60401EB0F1FF3F48
:100FB000FBDC106820F40060106044F61E60401EE8
:100FC000B0F1FF3FFBDC70470C0C0140EC0F000858
:100FD00000000020640000004408000850100008D1
:100FE00064000020140400005408000802040608ED
:100FF00000000000010203040102030406070809BF
:10100000000000000000400000000E1010110E044F
:101010000000000C0404040E000A000E1111110E51
:1010200000000F100E011E04000A00111111110E14
:101030000002060E1E0E060200000404040404044E
:101040000000100804020100000000000000000081
:04000005080000ED02
:00000001FF
