:020000040800F2
:100000008804002001010008550B0008090B0008B6
:100010000D0B0008DD080008450F00080000000077
:10002000000000000000000000000000110D0008AA
:10003000E108000800000000190C0008850E000807
:100040001B0100081B0100081B0100081B01000820
:100050001B0100081B0100081B0100081B01000810
:100060001B0100081B0100081B0100081B01000800
:100070001B0100081B0100081B0100081B010008F0
:100080001B0100081B0100081B0100081B010008E0
:100090001B0100081B0100081B0100081B010008D0
:1000A0001B0100081B0100081B0100081B010008C0
:1000B0001B0100081B0100081B0100081B010008B0
:1000C0001B0100081B0100081B0100081B010008A0
:1000D0001B0100081B0100081B0100081B01000890
:1000E0001B0100081B0100081B010008DFF80CD0F1
:1000F00000F0AAFB00480047911B0008880400207C
:100100000648804706480047FEE7FEE7FEE7FEE7B1
:10011000FEE7FEE7FEE7FEE7FEE7FEE7B50E0008B6
:10012000ED000008F0B480EA0102D40F4200B2EB07
:10013000410F02D20246084611464A0042D0C30D82
:10014000DDB2C1F3C752AD1A202D35DAC1F3160165
:1001500041F4000204B15242C5F1200602FA06F150
:100160002A411044B3EBD05F23D0C4B1012DA0EBE2
:10017000C35009DCF0BC4FF0004202EAC35200F564
:100180000000DBB200F039BA400000F1807000EBF3
:10019000C350A0F1807040EAD170490009E04908DD
:1001A00041EAC071A0EBC35000F50000400800EB2D
:1001B000C350F0BC00F018BA6142012202EB4101C9
:1001C000001BF6E7F0BC704781F00041AAE780F021
:1001D0000040A7E780EA010210B502F000434000AA
:1001E00026D04A0023D04FEA106101EB1261C0F320
:1001F0005600C2F3560240F4000042F40002A0FB95
:100200000220A1F17F014FEA0040140401D000F167
:10021000010050EA124001D44000491EC2B20C064F
:1002200004EBD010401C4008802A02D003E00020DC
:1002300010BD20F00100002900DA0020184310BD95
:100240002DE9FE4F804681EA0300C00F0C46009066
:1002500021F0004123F00045B8EB0200A94105D28E
:100260004046214690461C460B46024623F000407D
:10027000104304D14046214603B0BDE8F08F270D5E
:10028000C7F30A00C3F30A510290401A01904028B4
:1002900066DAC3F3130040F4801B0098924620B145
:1002A0000023D2EB030A63EB0B0B01985946C0F114
:1002B0004002504600F077F906460D465046594632
:1002C000019A00F07FF910EB08006141002487EAF1
:1002D000115284EAE7731A433BD0009A3AB3019A69
:1002E000012A4FEA075210DC001B61EB02014FF0BC
:1002F000004202EA0752CDE90042001C41F580119C
:1003000032462B4600F0B3F9B6E7001B61EB020161
:10031000001C41F5801300185B412018A2F500175E
:1003200047EB030140EAD570B6196D4111E06D0845
:100330004FEA360645EAC0754FEA0752001B61EBEB
:100340000201001C41F5801149084FEA30000019F4
:10035000514132462B4603B0BDE8F04F00F07AB968
:100360000098012240000023D0EB020263EBE0730F
:10037000009821464FEAE074B8EB000061EB0401FD
:10038000E9E783F000435BE781F0004158E72DE99E
:10039000FE4F81EA030404F0004421F00041009480
:1003A0004FF0000B23F0004350EA010402D052EA60
:1003B000030404D10020014603B0BDE8F08FC3F36D
:1003C0000A54C1F30A552C44A4F2F3340194A0FB5F
:1003D0000254C1F3130141F48011C3F3130343F436
:1003E000801301FB024400FB034E840A970A44EA8F
:1003F000815447EA8357A4FB076802958D0A05FBE1
:1004000007854FEA932C04FB0C542705029D4FEA05
:10041000065847EA1637B5EB08056EEB070C870E52
:10042000920E47EA811742EA8312A7FB0201B6EB5C
:100430000B0164EB00042B0D43EA0C335E1844EB14
:100440001C50DA465146E7FB0201C5F313044FEA9C
:100450000B3343EA14534FEA0432019C43EA060388
:10046000A4F10C040294009CCDE900B400F0FFF864
:10047000A2E796230022114600F0BFB800F0004228
:1004800030F000400AD0C10D01F56071C0F31600D4
:1004900042EA0151C208400711437047002001465B
:1004A0007047000030B5002904DB4FF000444042A3
:1004B00064EB0101002B04DB4FF00044524264EB7B
:1004C00003038B4208BF824230BD000001F00043AD
:1004D00030B421F0004150EA010206D00A0DA2F525
:1004E0006072C1F31301002A02DC30BC00207047A7
:1004F000440F44EAC104C100E01830BC00EBC25014
:1005000000F072B8002801DBC0F10040002901DBD7
:10051000C1F100418842704730B50B4601460020CA
:100520002022012409E021FA02F59D4205D303FAB5
:1005300002F5491B04FA02F52844151EA2F1010236
:10054000F1DC30BD2DE9F05F0546002092469B4668
:1005500088460646814640241BE0284641464746D9
:10056000224600F083F953465A46C01A914110D3EF
:1005700011461846224600F016F82D1A67EB0108BE
:100580004F4622460120002100F00DF817EB00092C
:100590004E41201EA4F10104DFDC484631462A46C4
:1005A0004346BDE8F09F202A04DB203A00FA02F11E
:1005B000002070479140C2F1200320FA03F3194351
:1005C00090407047202A06DBCB17203A41FA02F010
:1005D00043EAE07306E041FA02F3D040C2F12002A0
:1005E00091400843194670470029A8BF7047401C36
:1005F000490008BF20F00100704710B4B0FA80FC39
:1006000000FA0CF050EA010404BF10BC704749B175
:10061000CCF1200421FA04F411FA0CF118BF0121E5
:1006200021430843A3EB0C01CB1D0106000A002B5C
:10063000BEBF002010BC704700EBC350104400291F
:10064000A4BF10BC7047401C490008BF20F0010047
:1006500010BC704710B5002B08DA401C41F10001B6
:1006600092185B411A4301D120F0010010BD2DE921
:10067000F04D92469B4611B1B1FA81F202E0B0FA18
:1006800080F220329046FFF78EFF04460F4640EA84
:100690000A0041EA0B0153465A46084303D120465B
:1006A0003946BDE8F08D114653EA010015D0C8F176
:1006B0004002504600F0DAF805460E4650465946CC
:1006C0004246FFF770FF084301D0012000E0002000
:1006D000054346EAE0762C4337430A984FEA4453F1
:1006E000A0EB08004FEAD4240A304FF0000244EA9D
:1006F00047544FEAD72502D500200146D1E701052E
:1007000010196941DDE9084500196941BDE8F04D5E
:10071000A0E72DE9F04D81EA030404F0004B21F03D
:10072000004514464FF0000A23F0004150EA05024C
:1007300020D054EA01021DD0C5F30A570246C5F382
:100740001303C1F31300C1F30A5640F4801543F4B8
:100750008013A7EB0608101BD64608F2FD3873EB92
:10076000050002D308F1010801E092185B41B8F1DD
:10077000000F03DA00200146BDE8F08D00204FF4A1
:100780008011064684460EE0171B73EB050705D360
:10079000121B63EB050306434CEA010C49084FEAC0
:1007A000300092185B4150EA0107EDD152EA030094
:1007B00012D082EA040083EA0501084303D1002233
:1007C0004FF0004308E0101BAB4102D2012200238E
:1007D00002E06FF0010253101AEB06004CEB0851D7
:1007E00010EB0A0041EB0B01BDE8F04DFFF732BF03
:1007F000C1F30A52C1F3130140F2FF3341F48011F7
:100800009A4202DA00200146704740F233439A428E
:10081000A2F2334202DC524200F028B8FFF7C3BE16
:1008200030B5002904DB4FF00044404264EB010185
:10083000002B04DB4FF00044524264EB0303994267
:1008400008BF904230BD0000064C074D06E0E0684E
:1008500040F0010394E8070098471034AC42F6D307
:10086000FFF748FC781E0008981E0008202A04DBC9
:10087000203A21FA02F00021704721FA02F3D04019
:10088000C2F12002914008431946704710B54FF459
:100890008071114800F00AF901F01CF8012000F005
:1008A00039FB01F017F84FF480710B4800F000F9A4
:1008B00001F010F801F00EF801F00CF801F00AF860
:1008C00001F008F801F006F84FF40071024800F05A
:1008D000E4F800F0010010BD000C014000BFFEE78D
:1008E0007047000008B50121042000F097F90121AC
:1008F000082000F093F90121102000F08FF9032067
:10090000ADF800008DF8020010208DF80300694654
:100910001A4800F039F80C20ADF8000003208DF8DB
:10092000020010208DF803006946154800F02CF8ED
:100930004FF47C40ADF8000003208DF80200102039
:100940008DF8030069460F4800F01EF84FF48070E0
:10095000ADF8000069460B4800F016F84FF48070BF
:10096000ADF8000003208DF8020010208DF8030080
:100970006946034800F008F808BD0000000801407F
:1009800000100140000C01402DE9F0410246002515
:100990000026002000230024002791F803C00CF05B
:1009A0000F0591F803C01CF0100F03D091F802C09E
:1009B0004CEA050591F800C0BCF1000F31D0146875
:1009C00000202BE04FF0010C0CFA00F3B1F800C04E
:1009D0000CEA03069E4220D183004FF00F0C0CFA64
:1009E00003F7BC4305FA03FC4CEA040491F803C086
:1009F000BCF1280F06D14FF0010C0CFA00FCC2F834
:100A000014C00AE091F803C0BCF1480F05D14FF0C3
:100A1000010C0CFA00FCC2F810C0401C0828D1D30D
:100A20001460B1F800C0BCF1FF0F34DD5468002041
:100A30002EE000F1080C4FF0010808FA0CF3B1F8B1
:100A400000C00CEA03069E4221D183004FF00F0C38
:100A50000CFA03F7BC4305FA03FC4CEA040491F8D2
:100A600003C0BCF1280F05D100F1080C08FA0CF8FE
:100A7000C2F8148091F803C0BCF1480F07D100F10F
:100A8000080C4FF0010808FA0CF8C2F81080401C5E
:100A90000828CED35460BDE8F08102460020936858
:100AA0000B4201D0012000E00020704741617047F7
:100AB0000161704770B505468024002000F02AFAD5
:100AC00000BF254205D04FF400710E48FFF7F0FF3C
:100AD00004E04FF400710B48FFF7E8FF00F0FAFE66
:100AE0004FF480710748FFF7E3FF00F0F3FE4FF487
:100AF00080710448FFF7DAFF00F0ECFE6410002C70
:100B0000DFD170BD000C014000BFFEE700BFFEE773
:100B100010B54FF400710E48FFF7C8FF002000F039
:100B2000F9F900F0D7FE4FF480710948FFF7C0FFD4
:100B300000F0D0FE4FF480710548FFF7B7FF00F0DA
:100B4000C9FE012000F0E6F900F0C4FE10BD00006F
:100B5000000C01407047000070B506460D460024A9
:100B600001F0E8F83046FFF7A5FFFFF78FFE08B168
:100B7000012070BD4FF480711248FFF797FF00F01D
:100B8000A9FE00BF4FF400710E48FFF786FF10F07A
:100B9000010FF7D100F09EFE00F016F80446240283
:100BA000FFF7B6FF00F010F804432046FFF761FCA2
:100BB0002860FFF7ADFF00F007F8FFF767FE0020A1
:100BC000D7E70000000C014070B50025802400BF6D
:100BD0004FF480710F48FFF76BFF00F07BFE4FF47E
:100BE00000710C48FFF759FF10F0010F00D02543AA
:100BF00064104FF480710748FFF758FF00F06AFE59
:100C0000002CE5D14FF480710248FFF74FFF2846D2
:100C100070BD0000000C01407047000029B1064A79
:100C200092690243044B9A6104E0034A9269824349
:100C3000014B9A61704700000010024030B500215E
:100C40000022002400232D4D6D6805F00C0121B118
:100C5000042905D0082923D105E0294D056022E0AB
:100C6000274D05601FE0254D6D6805F47012234D7A
:100C70006D6805F48034022505EB92421CB9214DC4
:100C8000554305600BE01D4D6D6815F4003F03D022
:100C90001C4D5543056002E0194D5543056002E0C7
:100CA000174D056000BF00BF144D6D6805F0F001E1
:100CB0000909154D6B5C0568DD4045600F4D6D6899
:100CC00005F4E061090A104D6B5C4568DD40856004
:100CD0000A4D6D6805F46051C90A0B4D6B5C45689F
:100CE000DD40C560054D6D6805F44041890B074D39
:100CF0006B5CC568B5FBF3F5056130BD00100240C3
:100D000000127A0000093D000000002010000020C1
:100D1000704710B500F002F810BD00000CB50020BF
:100D2000019000903248006840F4803030490860FB
:100D300000BF2F48006800F4003000900198401C6C
:100D40000190009818B90198B0F5A06FF1D128482A
:100D5000006810F4003F02D00120009001E0002064
:100D600000900098012842D12248006840F010000D
:100D7000204908600846006820F003000860084623
:100D8000006840F00200086019484068184948604F
:100D90000846406848600846406840F48060486003
:100DA0000846406820F47C1048600846406840F4DB
:100DB000E81048600846006840F08070086000BF96
:100DC0000B48006810F0007FFAD00948406820F016
:100DD0000300074948600846406840F00200486048
:100DE00000BF0348406800F00C000828F9D10CBD92
:100DF0000010024000200240042808D14FF0E021FA
:100E0000096941F004014FF0E022116107E04FF061
:100E1000E021096921F004014FF0E02211617047DF
:100E2000012808D14FF0E021096941F001014FF09C
:100E3000E02211610EE0811C08D14FF0E021096928
:100E400021F001014FF0E022116103E000214FF099
:100E5000E0229161704710B5014600220023002076
:100E6000CB10022B03D14FF0E024226902E04FF0B7
:100E7000E024E26901248C40144201D0012000E00A
:100E8000002010BD704740B14FF0E021096941F0EA
:100E900002014FF0E022116107E04FF0E021096903
:100EA00021F002014FF0E022116170474FF0E02184
:100EB0004861704710B51348006840F001001149BF
:100EC000086008464068104908400E4948600846D6
:100ED00000680E4908400B4908600846006820F485
:100EE000802008600846406820F4FE0048604FF407
:100EF0001F008860FFF70DFF4FF000600449086095
:100F000010BD0000001002400000FFF8FFFFF6FED9
:100F100008ED00E010B504464FF400700749088062
:100F20000320887014B91020C87002E048200349DB
:100F3000C87002490248FFF727FD10BD14000020C9
:100F4000000C014000BFFEE70FB4084B10B504A928
:100F500002AA039800F0CAF8044602A9002000F093
:100F600068FC204610BC5DF814FB00003318000834
:100F700002E008C8121F08C1002AFAD17047704762
:100F8000002001E001C1121F002AFBD170470000C0
:100F90002DE9FF5FDDE90220010DDDF838B00243E5
:100FA00010D10F9801244CA2012808D000210098EC
:100FB0000F9BC0E90021C0E90243BDE8FF9F6FEA33
:100FC0000B01F4E7A1F2FF3144F6105041430D1438
:100FD0000F9801280ED0A5EB0B00401C4FF0000429
:100FE0003E4EDFF8FC90B0F1000AA04605DACAF1E7
:100FF000000717E0CBF10000F0E7074612E0F80722
:1010000007D02246334640464946FFF7C0F980469E
:1010100089462246334610461946FFF7B8F904467A
:101020000E467F10002FEAD1DDE90201BAF1000F70
:1010300042464B4602DAFFF7AAF901E0FFF769FBE7
:1010400004460E460022274BFFF7EAFB03D84FF079
:10105000FF30014607E00022234B20463146FFF7D0
:10106000EFF8FFF7C5FB102409E0002C0ADB0A2289
:101070000023FFF767FA019B30321A55641E50EACD
:101080000102F2D1641C019AC4F1110314440F9AB5
:10109000012A09D00122084301D15B450FDD4FF041
:1010A000000205F101050DE0084303D1A3EB0B0598
:1010B0006D1E09E000204FF0110B0F9088E701DA58
:1010C00000226D1E002A83D000980F99C0E90231DA
:1010D000C0E9004571E70000300000000000244036
:1010E0000000F03F0000F0430000E03F2DE9FF4F1B
:1010F00095B09B4689460646002512E2252878D100
:101100000024761CF94A2746012105943378203BB8
:1011100001FA03F0104202D00443761CF6E730785F
:101120002A2811D06FF02F033078A0F13002092A5D
:1011300016D8059A44F0020402EB820203EB420245
:101140001044761C0590EFE759F8042B0592002A0D
:1011500003DA504244F40054059044F00204761C33
:1011600030782E2816D116F8010F44F004042A28EE
:101170000DD06FF02F023078A0F13003092B09D881
:1011800007EB870302EB4303C718761CF3E759F814
:10119000047B761C30786C280FD006DC4C2817D0E6
:1011A00068280DD06A2814D104E0742810D07A2859
:1011B0000FD10DE044F400140AE044F4801401E07F
:1011C00044F440147278824202D1761C04F58014F3
:1011D000761C307866280BD013DC582877D009DCD1
:1011E000002875D04528F6D04628F4D047281AD1D3
:1011F0009FE118E0632835D0642879D0652812D1A2
:1012000097E1702873D008DC6728F1D069286FD087
:101210006E280DD06F2806D1B5E073282CD0752824
:1012200075D0782874D05A46179990476D1C76E18E
:10123000C4F30250022809D003280DD0D9F80010B9
:1012400004280DD00D6009F1040968E1D9F80010F7
:10125000EA17C1E90052F6E7D9F800100D80F2E76D
:101260000D70F0E719F8041B8DF8001000208DF8C0
:101270000100EA46012003E059F804AB4FF0FF30CB
:1012800061074FF0000102D40DE008F1010188462A
:10129000B9420FDA8045F8DB1AF808100029F4D1BA
:1012A00008E008F1010188468142FADB1AF80810CB
:1012B0000029F6D105985B46A0EB08072146384681
:1012C000179A00F09EFA284400EB080507E04DE06D
:1012D0002BE10DE01AF8010B5A4617999047B8F127
:1012E0000108F7D25B4621463846179A14E142E0DE
:1012F0000A220092C4F302524FF0000A022A08D0D8
:1013000059F804CB032A4FEAEC710AD00DE029E02A
:101310002AE009F1070121F00702F2E802C1914633
:1013200009E00FFA8CFC4FEAEC71042A03D14FFA62
:101330008CFC4FEAEC71002907DA0A460021DCF147
:10134000000C61EB02012D2202E0220504D52B22C4
:101350008DF80420012203E0E20701D02022F7E704
:10136000904653E00A2102E010220DE010214FF0D8
:10137000000A00910BE010224FF0000A44F0040430
:101380000827009203E008224FF0000A0092C4F3FD
:101390000252022A05D059F804CB0021032A08D0B2
:1013A00009E009F1070121F00702F2E802C19146C4
:1013B00005E01FFA8CFC042A01D10CF0FF0C4FF061
:1013C0000008220722D5702827D0009B83F0100345
:1013D00053EA0A0309D15CEA010206D030228DF8F3
:1013E00004208DF8050002229046009B83F008033C
:1013F00053EA0A030AD15CEA010201D1620705D56A
:1014000030228DF804204FF001087F1E582809D0A3
:1014100037A003900EA8029013E040228DF804201C
:101420000122E1E737A0F4E753466046009AFFF750
:1014300089F884460398825C0298A0F1010002902A
:1014400002705CEA0100EFD1029806A9A1EB00004E
:1014500000F1200A600702D524F4803400E001275F
:10146000574502DDA7EB0A0000E0002000EB0A016F
:10147000009005984144A0EB01000590E00306D4DC
:101480005B462146179A059800F0BBF905440027F2
:1014900006E001A85A46C05D179990476D1C7F1C55
:1014A0004745F6DBE0030CD55B462146179A0598C5
:1014B00000F0A7F9054404E030205A4617999047F8
:1014C0006D1C0099481E00900029F5DC08E0029888
:1014D00002995A460078491C0291179990476D1C51
:1014E000BAF10001AAF1010AF1DC6BE1092801005F
:1014F000303132333435363738396162636465668A
:10150000000000003031323334353637383941424B
:10151000434445460000000000F060F9054406F130
:101520000106307800287FF4E9AD19B02846BDE8FF
:10153000F08F620700D4062709F1070222F0070C9A
:10154000FCE80223E14603F000485FEA080C02D001
:101550000FF27C2C0DE05FEA045C02D50FF2742CD4
:1015600007E05FEAC47C02D00FF26C2C01E0AFF21E
:10157000700C4FF0FF3823F00043CDF850C06528C1
:101580000CD006DC452809D046281DD047283ED17E
:101590003EE0662818D0672839D139E00021112FA4
:1015A00001DB112000E0781CCDE9000106A90EA89E
:1015B000FFF7EEFCDDE90F010E9A03910021009286
:1015C00007F1010A04914EE04FF000400097CDE989
:1015D000011006A90EA8FFF7DBFCDDE90F0203925C
:1015E0000E9B11990022DDF80CA00093049219B90A
:1015F00007F1010100EB010AB7EB0A0004D4C0F1C6
:10160000FF3007F1010A0490AAEB0700019046E0C1
:10161000012F00DA01270021112F01DD112000E048
:101620003846CDE9000106A90EA8FFF7B1FCDDE9B7
:101630000F010E9A0391002104910092BA462107EE
:101640000CD40399514500DA8A46BAF1010F05DD41
:10165000009AAAF10101515C302908D0B84202DA9F
:1016600010F1040F06DA0121CDE9011017E0AAF10B
:101670000101E9E7002805DC049901440491AAEB83
:10168000000102E0411C514500DD8A460499A0EBAF
:10169000010000F1010001904FF00040029020078E
:1016A00004D40198504501DBCDF8048000208DF86A
:1016B0004F0002980DF14F07B0F1004F25D02B20BD
:1016C0000E9002984FF0020800280CDA4042029077
:1016D0002D200E9007E00A210298FEF71DFF303101
:1016E000029007F8011DB8F10001A8F10108F2DC31
:1016F00002980028EFD1791E0E980870307800F01B
:10170000200040F0450007F8020D12A8A0EB0700EA
:1017100000F107081498007800B1012000EB0A01DD
:10172000019801EBE07105984144A0EB0100A0F1A4
:1017300001000590E00306D45B462146179A059800
:1017400000F05FF805441498007820B15A461799C4
:10175000904705F10105E00323D55B462146179A22
:10176000059800F04EF805441BE00498002807DBBC
:10177000DDE90301884203DD0098405C179901E030
:10178000179930205A46904704986D1C401C0490CD
:101790000198401E019004D12E205A461799904777
:1017A0006D1CBAF10001AAF1010ADEDC05E017F8B0
:1017B000010B5A46179990476D1CB8F10001A8F12A
:1017C0000108F4DC5B462146179A0598A4E6000060
:1017D0002D0000002B000000200000002DE9F0414A
:1017E000044600251E461746880405D406E03946FF
:1017F0002020B04705F10105641EF8D52846BDE854
:10180000F0812DE9F041044600251E469046C803AC
:1018100001D5302700E02027880405D506E04146A1
:101820003846B04705F10105641EF8D52846BDE8E5
:10183000F0810A68531C0B601070704700B585B0CA
:101840006846FFF7FBF96FF00400FFF7D5FA0020B8
:10185000FFF719FB07490198B0FBF1F00649087042
:101860004FF4FA510198B0FBF1F00449088005B03B
:1018700000BD000000127A0020000020220000209D
:1018800030B504461148008800FB04F5B5F1807FAF
:1018900001D36FF07F452846FFF708FB0020FFF7D4
:1018A000BFFA0120FFF7BCFA00BF1020FFF7D3FA00
:1018B00007490870084600780128F6D1C01EFFF7D6
:1018C000AFFA0020FFF7ACFA30BD00002200002084
:1018D00024000020002000E0401C3228FCD3704788
:1018E0002DE9F04F8BB004460D4631480990314840
:1018F0000890314807903148069031480590286893
:101900000490206803900398FEF7B8FD2D4A2E4BF3
:10191000CDE90001FEF73BFD07462C4A2C4BFEF7B4
:1019200030FD8246FEF7D2FD814622480499FEF73B
:1019300051FC824620480499FEF74CFC83460499EA
:10194000FEF748FC80465146FEF7ECFB0746184977
:10195000FEF7E8FB02901A480499FEF73BFC834629
:101960001649FEF7DFFB80461A494846FEF72CFC75
:1019700082464146FEF72EFC07460299FEF7D2FB4F
:10198000064615493046FEF7BDFD00D2124E3046E0
:10199000FEF774FD07460D4A104BFEF783FD00D29B
:1019A0000F4E2E60C4F800900BB0BDE8F08F000021
:1019B000C5FE02C0BD52163DF624D6B50AD7233C5B
:1019C000ACC5A7387B14AE47E17A843F9A999999C0
:1019D00099D943400000C8410000C6429999B93FD7
:1019E000CDCCCC3D44F6206000BF0100A0F1010049
:1019F000FBD1704710B5012000F098F80520FFF7E3
:101A00003FFF10BD00B50748006840F4006005497D
:101A10000860FFF7E7FF0348006820F40060014911
:101A2000086000BD0C0C014070B506460C46012E46
:101A30000BD1651EE91705EB11710911A5EB011119
:101A40008031C8B200F072F80AE0651EE91705EBB4
:101A500011710911A5EB0111C031C8B200F066F88F
:101A600070BD000010B52C480068C0F309002A4979
:101A700008606420FFF704FF032000F057F80120FE
:101A8000FFF7FEFEFFF7BEFF0120FFF7F9FEFFF7AD
:101A9000B9FF022000F04AF80120FFF7F1FE3320E1
:101AA00000F044F8322000F041F8282000F03EF821
:101AB0000C2000F03BF800201849087024E018487A
:101AC000007800F033F80020164908700EE016493F
:101AD000124A127801EBC201124A1278885C00F0B7
:101AE0006FF910480078401C0E4908700D480078C6
:101AF0000728ECDD0A4800780830094908700748D3
:101B00000078401C05490870044800780728D6DD95
:101B1000FFF770FF10BD00000C0C014066000020B4
:101B200025000020670000202600002000B50346A5
:101B300010480068C0F309000E49086008460068B4
:101B400003F0F00140EA01200A490860FFF75AFF5C
:101B5000FFF748FF07480068C0F30900054908601F
:101B60000846006840EA03300860FFF74BFFFFF7C4
:101B700039FF00BD0C0C014010B5044603E014F819
:101B8000010B00F01DF920780028F8D110BD0000ED
:101B900008B5FEF7A7FEFFF751FE4FF48071294804
:101BA000FEF784FFFFF75EFF27A0FFF7E5FF0121A7
:101BB0000220FFF739FF29A0FFF7DEFF40F2DC50DB
:101BC000FFF75EFE00F078F8FFF714FF39E008E059
:101BD000FFF710FF26A0FFF7CFFF4FF47A70FFF753
:101BE0004FFE2749274800F089F80028F0D0254803
:101BF0000068FEF743FC0446DF2022460B4622A184
:101C000000902648FFF7A0F91D480068FEF736FC53
:101C1000044622460B4622A12648FFF795F90121EA
:101C20000846FFF701FF1D48FFF7A6FF012102202C
:101C3000FFF7FAFE1F48FFF79FFF4FF48C70FFF786
:101C40001FFEC4E7001001402020202020534854EC
:101C50003131202020202020000000007777772ECF
:101C60004578704B6974732E636F6D20000000001F
:101C700020202053656E73F67220596F6B000000B0
:101C80001C00002018000020204973FD3A20253355
:101C90002E316625634320200000000068000020EC
:101CA000204E656D3A20252525332E316652482079
:101CB000200000007800002010B54FF400710E489D
:101CC000FEF7F6FE4FF480710B48FEF7F1FE0020A0
:101CD000FFF720F9FF20FEF7EDFEFF20FEF7EAFEFA
:101CE0004FF480710448FEF7E1FE002400E0641C1C
:101CF000B4F57A7FFBD310BD000C01407CB50546DE
:101D00000E46002469460320FEF726FF044301A97E
:101D10000520FEF721FF044301A96846FFF7E0FD17
:101D200000982860019830600CB100207CBD012033
:101D3000FCE7000010B54FF400712048FEF7B8FE34
:101D40004FF480711D48FEF7B1FE0020FFF7E2F866
:101D5000FFF7C0FD4FF480711848FEF7A9FEFFF7AA
:101D6000B9FD4FF400711548FEF7A0FEFFF7B2FD74
:101D70004FF480711148FEF799FEFFF7ABFD4FF469
:101D800080710E48FEF794FEFFF7A4FD4FF400713A
:101D90000A48FEF78DFEFFF79DFD4FF4807107485E
:101DA000FEF784FEFFF796FD4FF400710348FEF73F
:101DB0007DFEFFF78FFDFFF78DFD10BD000C01408C
:101DC00000B50346E72B20D00CDCDC2B1BD004DC59
:101DD000C72B10D0D62B22D111E0DD2B0DD0DE2B5E
:101DE0001DD10EE0F62B14D0FC2B16D0FD2B0ED0FF
:101DF000FE2B14D10FE0002312E0012310E0022398
:101E00000EE003230CE004230AE0002308E0012392
:101E100006E0022304E0032302E0042300E000BF05
:101E200000BF14480068C0F3090012490860084662
:101E3000006803F0F0014FF4806242EA0121084398
:101E40000C490860FFF7DEFDFFF7CCFD094800688C
:101E5000C0F309000749086008460068091541EA0F
:101E60000331084303490860FFF7CCFDFFF7BAFDD3
:101E700000BD00000C0C0140981E0008000000206E
:101E800068000000700F0008001F000868000020B4
:101E900020040000800F000800000000010203047D
:101EA00001020304060708090204060800000000F6
:101EB0000000000000000000000000000040000ED4
:101EC0001010110E040000000C0404040E000A009F
:101ED0000E1111110E00000F100E011E04000A0059
:101EE000111111110E0002060E1E0E060200000452
:101EF00004040404040000100804020100000000AF
:04000005080000ED02
:00000001FF
