:020000040800F2
:1000000090060020BD010008C5010008C7010008D6
:10001000C9010008CB010008CD0100080000000064
:10002000000000000000000000000000CF010008F8
:10003000D101000800000000D30100087904000885
:10004000D7010008D7010008D7010008D701000830
:10005000D7010008D7010008D7010008D701000820
:10006000D7010008D7010008D7010008D701000810
:10007000D7010008D7010008D7010008D701000800
:10008000D7010008D7010008D701000800000000D0
:10009000000000000000000000000000D701000880
:1000A000D7010008D7010008D7010008D7010008D0
:1000B000D7010008D701000800000000D7010008A0
:1000C000D70100080000000000000000D701000870
:1000D00000000000D7010008D70100080000000060
:1000E000D7010008D7010008D70100080000000070
:1000F0000000000000000000000000000000000000
:1001000000000000000000000000000000000000EF
:100110000000000000000000D7010008D70100081F
:1001200000F002F800F03AF80AA090E8000C8244CF
:100130008344AAF10107DA4501D100F02FF8AFF2AC
:10014000090EBAE80F0013F0010F18BFFB1A43F0B5
:1001500001031847E804000008050000103A24BF16
:1001600078C878C1FAD8520724BF30C830C144BF1C
:1001700004680C607047000000230024002500265E
:10018000103A28BF78C1FBD8520728BF30C148BFFA
:100190000B6070471FB51FBD10B510BD00F00FFA02
:1001A0001146FFF7F7FF00F076F900F02DFA03B4DF
:1001B000FFF7F2FF03BC00F035FA00000948804762
:1001C00009480047FEE7FEE7FEE7FEE7FEE7FEE739
:1001D000FEE7FEE7FEE7FEE704480549054A064B51
:1001E00070470000DB020008210100089000002099
:1001F0009006002090020020900200200CB5002004
:10020000019000906C48006840F480306A490860B2
:1002100000BF6948006800F4003000900198401C5D
:100220000190009818B90198B0F5A06FF1D162481B
:10023000006800F4003010B10120009001E00020BF
:1002400000900098012843D15C48006840F01000FD
:100250005A4908600846006820F003000860084614
:10026000006840F002000860534840685249486006
:100270000846406848600846406840F4806048602E
:100280000846406820F47C1048600846406840F406
:10029000E81048600846006840F08070086000BFC1
:1002A0004548006800F000700028F9D042484068D6
:1002B00020F00300404948600846406840F00200D2
:1002C000486000BF3C48406800F00C000828F9D1A5
:1002D0000CBD10B5FFF792FF10BD10B53648006891
:1002E00040F001003449086008464068344908403D
:1002F0003149486008460068324908402E49086084
:100300000846006820F4802008600846406820F411
:10031000FE0048604FF41F008860FFF7DAFF4FF0DF
:1003200000602949086010BD10B50021002000229E
:10033000214B5B6803F00C0121B1042906D0082988
:1003400028D107E0214B224C236027E01F4B204C93
:10035000236023E0184B5B6803F47010164B5B6856
:1003600003F48032022303EB904022B9194B43433C
:10037000174C23600DE0104B5B6803F4003323B18E
:10038000144B4343124C236003E0104B4343104C87
:10039000236003E00D4B0E4C236000BF00BF064BF3
:1003A0005B68C3F303130C4CE15C094B1B68CB4047
:1003B000074C236010BD00000010024000200240E6
:1003C0000000FFF8FFFFF6FE08ED00E000127A00E3
:1003D0000000002000093D0004000020014600202C
:1003E00014E0012282400A403AB100BF654A52F847
:1003F0002020654B1A6100BF07E000BF614A52F838
:100400002020614B5A6100BF00BF401C0228E8DB7E
:1004100070475E480068A8B100BF5D48006800F002
:10042000010038BB5B4800680A2805D259480068BB
:10043000401C584908601DE0002054490860554997
:10044000086017E000BF5248006800F0010088B162
:10045000504800680A2805D24E480068401C4D49A3
:10046000086007E001204949086000204949086008
:10047000012070470020FCE7474801680068401CE5
:10048000454A1060142905D3002011460860012058
:1004900042490860704700BF4148806940F0100041
:1004A0003F4988613848406820F0FF00364948607D
:1004B0000846406840F03300486000BF00BF38483D
:1004C000806940F004003649886131480838006886
:1004D00020F00F002E49083908600846006840F0F7
:1004E0000800086000BF2F4800686422B0FBF2F1EA
:1004F000481EB0F1807F00D31BE0481E4FF0E02281
:10050000506150170F22002804DB13071C0E264BE6
:100510001C5406E013071D0E244B00F00F04241F8B
:100520001D5500BF00204FF0E022906107201061B0
:1005300000BF26E0FFF76DFF50B11D480068401C6A
:100540001B49086008460068032801D9012008609B
:1005500012480068012814D100201049086015488D
:10056000006880F00100134908600846006801280F
:1005700004D10F480068FFF731FF02E00020FFF7C9
:100580002DFFD7E7340600080010014024000020AA
:100590000808014020000020280000201C00002046
:1005A000001002400000002000E400E018ED00E030
:1005B00014000020180000207047704770477546EF
:1005C00000F02CF8AE4605006946534620F00700BF
:1005D000854618B020B5FFF7FFFDBDE820404FF07D
:1005E00000064FF000074FF000084FF0000B21F01D
:1005F0000701AC46ACE8C009ACE8C009ACE8C009EA
:10060000ACE8C0098D46704710B50446AFF30080D2
:100610002046BDE81040FFF7CABD00000048704703
:100620002C00002001491820ABBEFEE72600020086
:100630007047000000010000000200005C06000896
:10064000000000202C0000005C0100088806000863
:100650002C000020640600007801000800A24A0473
:100660000000000000000000010203040607080962
:100670000100000000000000000000000000000079
:08068000000000000000000072
:0400000508000121CD
:00000001FF
