:020000040800F2
:10000000780600208901000891010008930100088A
:100010009501000897010008990100080000000000
:100020000000000000000000000000009B0100082C
:100030009D010008000000009F0100082D0300083A
:10004000A3010008A3010008A3010008A301000800
:10005000A3010008A3010008A3010008A3010008F0
:10006000A3010008A3010008A3010008A3010008E0
:10007000A3010008A3010008A3010008A3010008D0
:10008000A3010008A3010008A3010008A3010008C0
:10009000A3010008A3010008A3010008A3010008B0
:1000A000A3010008A3010008A3010008A3010008A0
:1000B000A3010008A3010008A3010008A301000890
:1000C000A3010008A3010008A3010008A301000880
:1000D000A3010008A3010008A3010008A301000870
:1000E000A3010008A3010008A301000800F002F822
:1000F00000F03AF80AA090E8000C82448344AAF188
:100100000107DA4501D100F02FF8AFF2090EBAE885
:100110000F0013F0010F18BFFB1A43F0010318473B
:100120007004000090040000103A24BF78C878C121
:10013000FAD8520724BF30C830C144BF04680C60ED
:10014000704700000023002400250026103A28BF35
:1001500078C1FBD8520728BF30C148BF0B60704739
:100160001FB51FBD10B510BD00F031F81146FFF7E7
:10017000F7FF00F065F900F04FF803B4FFF7F2FF66
:1001800003BC00F057F800000948804709480047C1
:10019000FEE7FEE7FEE7FEE7FEE7FEE7FEE7FEE737
:1001A000FEE7FEE704480549054A064B7047000094
:1001B000E1030008ED000008780000207806002028
:1001C000780200207802002070477047704775461B
:1001D00000F02CF8AE4605006946534620F00700B3
:1001E000854618B020B5FFF7DDFFBDE820404FF091
:1001F00000064FF000074FF000084FF0000B21F011
:100200000701AC46ACE8C009ACE8C009ACE8C009DD
:10021000ACE8C0098D46704710B50446AFF30080C6
:100220002046BDE81040FFF7A8BF00000048704717
:100230001800002001491820ABBEFEE7260002008E
:10024000704710B500F002F810BD00000CB500209A
:10025000019000903348006840F4803031490860D4
:1002600000BF3048006800F4003000900198401C46
:100270000190009818B90198B0F5A06FF1D1294804
:10028000006800F4003010B10120009001E000206F
:1002900000900098012843D12348006840F01000E6
:1002A000214908600846006820F0030008600846FD
:1002B000006840F0020008601A4840681949486028
:1002C0000846406848600846406840F480604860DE
:1002D0000846406820F47C1048600846406840F4B6
:1002E000E81048600846006840F08070086000BF71
:1002F0000C48006800F000700028F9D009484068F8
:1003000020F00300074948600846406840F00200BA
:10031000486000BF0348406800F00C000828F9D18D
:100320000CBD00000010024000200240024800689E
:10033000401C0149086070470000002010B50021F2
:1003400000200022214B5B6803F00C0121B104293D
:1003500006D0082928D107E01D4B1E4C236027E05A
:100360001B4B1C4C236023E0184B5B6803F470109C
:10037000164B5B6803F48032022303EB904022B9F2
:10038000154B4343134C23600DE0104B5B6803F4A3
:10039000003323B1104B43430E4C236003E00C4B5E
:1003A00043430C4C236003E0094B0A4C236000BF1D
:1003B00000BF064B5B68C3F30313084CE15C054BBD
:1003C0001B68CB40034C236010BD000000100240AE
:1003D00000127A000400002000093D0008000020FF
:1003E00010B51348006840F0010011490860084644
:1003F0004068104908400E494860084600680E49A8
:1004000008400B4908600846006820F48020086016
:100410000846406820F4FE0048604FF41F008860E2
:10042000FFF70FFF4FF000600449086010BD0000A7
:10043000001002400000FFF8FFFFF6FE08ED00E0AC
:10044000FFF77CFF4B4800684FF47A72B0FBF2F183
:10045000481EB0F1807F00D31BE0481E4FF0E02221
:10046000506150170F22002804DB13071C0E424B6B
:100470001C5406E013071D0E404B00F00F04241F10
:100480001D5500BF00204FF0E02290610720106151
:1004900000BF3B48806940F0040039498861084644
:1004A000806940F0100088610846C06940F0020091
:1004B000C8614420334908606FF00C00324948603D
:1004C0006FF44C40086048F69F40304908804FF474
:1004D0007A70091D088001202C492839088047E0DE
:1004E00028480830006800F00200C0B14FF4807066
:1004F000254908610820086124481838008800F060
:10050000010050B321481838008820F001001F492D
:10051000183908804FF080701B49086128E019489D
:100520000830006800F00100C0B14FF48070164937
:1005300008610420086115481838008800F001009F
:1005400058B112481838008820F001000F491839B6
:1005500008804FF080700C49086109E04FF080700E
:10056000094908610846C0680C2801D100040861E7
:10057000B6E700000400002000E400E018ED00E011
:100580000010024000080140001001402804004013
:10059000B005000800000020180000002801000835
:1005A000C80500081800002060060000440100088B
:1005B0000000000000A24A0400000000000000004B
:0805C00001020304060708090B
:040000050800018965
:00000001FF
