:020000040800F2
:10000000880B002001010008190D0008A504000854
:10001000150D00084D0200085112000800000000F4
:10002000000000000000000000000000350F000884
:1000300051020008000000001B0D0008AD10000870
:100040001B0100081B0100081B0100081B01000820
:100050001B0100081B0100081B0100081B01000810
:100060001B0100081B0100081B0100081B01000800
:100070001B0100081B0100081B0100081B010008F0
:100080001B0100081B0100081B0100081B010008E0
:100090001B0100081B0100081B0100081B010008D0
:1000A0001B0100081B0100081B0100081B010008C0
:1000B0001B0100081B0100081B0100081B010008B0
:1000C0001B0100081B0100081B0100081B010008A0
:1000D0001B0100081B0100081B0100081B01000890
:1000E0001B0100081B0100081B010008DFF80CD0F1
:1000F00000F050F8004800472D290008880B002028
:100100000648804706480047FEE7FEE7FEE7FEE7B1
:10011000FEE7FEE7FEE7FEE7FEE7FEE7DD1000088C
:10012000ED000008421C10F8011B0029FBD1801AC9
:1001300070472DE9F05F0546002092469B468846B1
:100140000646814640241BE0284641464746224653
:1001500000F041F853465A46C01A914110D3114657
:100160001846224600F028F82D1A67EB01084F4682
:1001700022460120002100F01FF817EB00094E4134
:10018000201EA4F10104DFDC484631462A464346DE
:10019000BDE8F09F064C074D06E0E06840F0010323
:1001A00094E8070098471034AC42F6D3FFF7A2FF5B
:1001B000C02F0008E02F0008202A04DB203A00FAB4
:1001C00002F1002070479140C2F1200320FA03F3AE
:1001D000194390407047202A04DB203A21FA02F0AC
:1001E0000021704721FA02F3D040C2F12002914071
:1001F00008431946704770B58C1810F8015B15F06C
:10020000070301D110F8013B2A1106D110F8012B88
:1002100003E010F8016B01F8016B5B1EF9D12B07AD
:1002200005D40023521E0DD401F8013BFAE710F863
:10023000013BCB1A921C03E013F8015B01F8015B50
:10024000521EF9D5A142D8D3002070BD00BFFEE7F1
:100250007047000008B50121042000F05FFD012176
:10026000082000F05BFD0121102000F057FD032065
:10027000ADF800008DF8020010208DF803006946EB
:100280001A4800F077F80C20ADF8000003208DF834
:10029000020010208DF803006946154800F06AF846
:1002A0004FF47C40ADF8000003208DF802001020D0
:1002B0008DF8030069460F4800F05CF84FF4807039
:1002C000ADF8000069460B4800F054F84FF4807018
:1002D000ADF8000003208DF8020010208DF8030017
:1002E0006946034800F046F808BD000000080140D8
:1002F00000100140000C014000B585B0012144F21E
:10030000040000F00BFD18208DF803004FF400707E
:10031000ADF8000003208DF802006946134800F094
:1003200029F818208DF803004FF48060ADF8000024
:1003300069460E4800F01EF84FF416500190002058
:10034000ADF80800ADF80A00ADF80C00ADF81000EB
:100350000C20ADF80E0001A9054800F009FF0121AD
:10036000034800F0EBFE05B000BD000000080140AE
:10037000003801402DE9F04102460025002600200A
:1003800000230024002791F803C00CF00F0591F81A
:1003900003C00CF0100CBCF1000F03D091F802C0A8
:1003A0004CEA050591F800C0BCF1000F31D014688B
:1003B00000202BE04FF0010C0CFA00F3B1F800C064
:1003C0000CEA03069E4220D183004FF00F0C0CFA7A
:1003D00003F7BC4305FA03FC4CEA040491F803C09C
:1003E000BCF1280F06D14FF0010C0CFA00FCC2F84A
:1003F00014C00AE091F803C0BCF1480F05D14FF0DA
:10040000010C0CFA00FCC2F810C0401C0828D1D323
:100410001460B1F800C0BCF1FF0F34DD5468002057
:100420002EE000F1080C4FF0010808FA0CF3B1F8C7
:1004300000C00CEA03069E4221D183004FF00F0C4E
:100440000CFA03F7BC4305FA03FC4CEA040491F8E8
:1004500003C0BCF1280F05D100F1080C08FA0CF814
:10046000C2F8148091F803C0BCF1480F07D100F125
:10047000080C4FF0010808FA0CF8C2F81080401C74
:100480000828CED35460BDE8F0810246002093686E
:100490000B400BB1012000E0002070474161704724
:1004A0000161704700BFFEE77CB50020009001901D
:1004B0000121A848FFF7E9FF28B1A7A000F0CAFE74
:1004C0004FF0FF307CBD002401E0601C84B2FF2CA3
:1004D000FBDD002404E0FF2001F0DCF9601C84B2A5
:1004E0000A2CF8DB00240BE095220021084601F0DD
:1004F00059F9C5B2012D01D1002405E0601C84B278
:1005000040F6FF708442EFDB00BF40F6FF7084428C
:1005100004D199A000F09EFE0120D3E787224FF47A
:10052000D571082001F07EF9C5B2052D76D10120E4
:100530009B4981F84E0020219A48FFF7B1FFFF2028
:1005400001F0A8F9002418E000221146372001F03C
:1005500029F9C5B2012D05D0294693A000F07AFEF5
:100560002846AFE700221146292001F01BF9C5B249
:100570000DB9002405E0601C84B240F6FF7084428F
:10058000E2DB00BF40F6FF70844223D100240AE082
:1005900000221146012001F005F9C5B20DB9002471
:1005A00005E0601C84B240F6FF708442F0DB00BFBF
:1005B00040F6FF70844205D1294688A000F04AFE2B
:1005C00002207FE70020764981F84E008FA000F0DE
:1005D00041FE02E097A000F03DFE012000F034FA59
:1005E000012200213B2001F0DDF8C5B22DB12946E2
:1005F0009AA000F02FFE284664E7FF224FF4007116
:10060000102001F0CFF8C5B2002D7CD0294600E0C3
:1006100004E09FA000F01EFE284653E7012D72D192
:10062000FF2001F037F9C0B28DF80000FF2001F083
:1006300031F9C0B28DF80100FF2001F02BF9C0B2F2
:100640008DF80200FF2001F025F9C0B28DF80300FB
:1006500020215448FFF724FFFF2001F01BF99DF8EB
:100660000200012873D19DF80300AA286FD100244D
:1006700019E000221146372001F094F8C5B2012D8F
:1006800005D0294648A000F0E5FD28461AE70022DB
:100690004FF08041292001F085F8C5B20DB9002442
:1006A00005E0601C84B240F6FF708442E1DB00BFCD
:1006B00040F6FF70844205D1294682A000F0CAFDB1
:1006C0000320FFE6002211463A2001F0ABF8C5B244
:1006D0002DB1294688A000F0BDFD2846F2E6FF2096
:1006E00001F0D8F8C0B28DF80000FF2001F0D2F878
:1006F000C0B28DF80100FF2001F0CCF8C0B28DF837
:100700000200FF2000E022E001F0C4F8C0B28DF842
:10071000030020212348FFF7C3FEFF2001F0BAF8B1
:100720009DF8000000F0400038B104201C4981F819
:100730004E007EA000F08EFD06E00220184981F8F0
:100740004E0085A000F086FD012000F07DF900201C
:10075000B8E60000000C01405468657265206973BA
:10076000206E6F20636172642064657465637465D4
:100770006421200D0A0000005265736574206361D6
:10078000726420696E746F2049444C452073746113
:100790007465206661696C6564210D0A00000000C3
:1007A000780200200010014053656E6420434D44E0
:1007B00035352073686F756C642072657475726E60
:1007C00020307830312C20726573706F6E73653D08
:1007D0003078253032780D0A0000000053656E64D1
:1007E00020434D44312073686F756C6420726574CA
:1007F00075726E20307830302C20726573706F6E99
:1008000073653D3078253032780D0A00436172649B
:1008100020547970652020202020202020202020B6
:10082000202020202020202020203A204D4D430D44
:100830000A00000043617264205479706520202012
:1008400020202020202020202020202020202020A8
:1008500020203A2053442056310D0A0053656E641F
:1008600020434D4435392073686F756C6420726580
:100870007475726E20307830302C20726573706F12
:100880006E73653D3078253032780D0A0000000027
:1008900053656E6420434D4431362073686F756C28
:1008A000642072657475726E20307830302C20723E
:1008B0006573706F6E73653D3078253032780D0A40
:1008C0000000000053656E642041434D44343120E4
:1008D00073686F756C642072657475726E20307801
:1008E00030302C20726573706F6E73653D307825E3
:1008F0003032780D0A00000053656E6420434D4489
:1009000035382073686F756C642072657475726E0B
:1009100020307830302C20726573706F6E73653DB7
:100920003078253032780D0A00000000436172648F
:100930002054797065202020202020202020202095
:10094000202020202020202020203A205344205600
:100950003248430D0A0000004361726420547970EC
:100960006520202020202020202020202020202042
:100970002020202020203A2053442056320D0A0007
:100980002DE9F04105460E4617461C4890F84E00EA
:10099000042800D06D0200222946122000F002FF38
:1009A00000F0FF08B8F1000F02D00120BDE8F0818F
:1009B000002413E006EB442000224FF4007100F005
:1009C000AFFE50B1002211460C2000F0EBFE2021BA
:1009D0000B48FFF765FD0220E8E7641CBC42E9D341
:1009E000002211460C2000F0DDFE20210448FFF714
:1009F00057FDFF2000F04EFF0020D7E778020020CF
:100A00000010014070B504460E460E4890F84E00A6
:100A1000042800D0640200222146112000F0C2FE0A
:100A2000C5B20DB1012070BD01225102304600F067
:100A300077FEC5B2002211460C2000F0B3FE284616
:100A4000F1E700007802002010B586B004460020CF
:100A5000ADF804004FF48270ADF806000020ADF848
:100A600008000220ADF80A000120ADF80C00400299
:100A7000ADF80E000020ADF812000720ADF814000C
:100A80001CB93820ADF8100002E02020ADF81000AD
:100A900001A9024800F030FA06B010BD0030014054
:100AA00008B5012141F21C0000F038F9E020ADF852
:100AB000000003208DF8020018208DF8030069461D
:100AC0001448FFF757FC2020ADF8000003208DF8F4
:100AD000020010208DF8030069460F48FFF74AFC1A
:100AE0000120ADF8000003208DF8020004208DF8ED
:100AF000030069460948FFF73DFC20210648FFF73F
:100B0000CFFC0020FFF7A0FF0121054800F0DAF933
:100B100008BD00000008014000100140000C014029
:100B2000003001402DE9F04705460E46174645487E
:100B300090F84E00042800D06D02424890F84E0014
:100B400020B100223946172000F02CFE0022294651
:100B5000192000F027FEC4B214B10120BDE8F087CF
:100B600020213948FFF79AFCFF2000F093FEFF2078
:100B700000F090FEFF2000F08DFE4FF000083AE0FC
:100B8000FC2000F087FE4FF0000907E016F8010B8B
:100B900000F080FE09F101001FFA80F9B9F5007F2D
:100BA000F4DBFF2000F076FEFF2000F073FEFF2054
:100BB00000F070FEC4B204F01F00052805D020210B
:100BC0002148FFF76DFC0220C8E74FF0000A0BE058
:100BD00050460AF1010AB0F5802F05D120211A48AC
:100BE000FFF75EFC0320B9E7FF2000F053FEFF286B
:100BF000EED108F10108B845C2D3FD2000F04AFE4D
:100C0000C4B20CB90420A9E74FF0000A0BE050462B
:100C10000AF1010AB0F5802F05D120210A48FFF71B
:100C20003FFC05209AE7FF2000F034FEFF28EED1BC
:100C300020210548FFF734FCFF2000F02BFE0020A8
:100C40008CE7000078020020001001402DE9F041FF
:100C500004460D462D4890F84E00042800D064024A
:100C600000222146182000F09DFDC6B216B10120D9
:100C7000BDE8F08120212648FFF710FCFF2000F09E
:100C800009FEFF2000F006FEFF2000F003FEFE201C
:100C900000F000FE002705E015F8010B00F0FAFD5A
:100CA000781C87B2B7F5007FF6DBFF2000F0F2FD7D
:100CB000FF2000F0EFFDFF2000F0ECFDC6B206F0D3
:100CC0001F00052805D020211148FFF7E9FB02206D
:100CD000CEE74FF000080BE0404608F10108B0F500
:100CE000802F05D120210A48FFF7DAFB0320BFE758
:100CF000FF2000F0CFFD0028EED020210448FFF7B0
:100D0000CFFBFF2000F0C6FD0020B1E778020020F5
:100D10000010014000BFFEE77047704729B1064A46
:100D200092690243044B9A6104E0034A9269824348
:100D3000014B9A61704700000010024030B500215D
:100D40000022002400232D4D6D6805F00C0121B117
:100D5000042905D0082923D105E0294D056022E0AA
:100D6000274D05601FE0254D6D6805F47012234D79
:100D70006D6805F48034022505EB92421CB9214DC3
:100D8000554305600BE01D4D6D6805F400351DB140
:100D90001C4D5543056002E0194D5543056002E0C6
:100DA000174D056000BF00BF144D6D6805F0F001E0
:100DB0000909154D6B5C0568DD4045600F4D6D6898
:100DC00005F4E061090A104D6B5C4568DD40856003
:100DD0000A4D6D6805F46051C90A0B4D6B5C45689E
:100DE000DD40C560054D6D6805F44041890B074D38
:100DF0006B5CC568B5FBF3F5056130BD00100240C2
:100E000000127A0000093D000000002010000020C0
:100E10001CB501AA694619A001F08FFA184908709B
:100E200008460078002827D101988069801E019B20
:100E30009B785843C10A01988078009B5843C20AA6
:100E400010A000F007FA01988069801E0199897846
:100E50004843C20A0198807800994843C30A15A103
:100E6000174800F007FA0121022001F0ABFC1448FA
:100E700001F050FD01201CBD0020FCE7303A0000CD
:100E8000200000200D0A2564204D4220746F706CF4
:100E9000616D206469736B20616C616E69210D0A5C
:100EA0002564204D4220626F7320616C616E212E9B
:100EB0000D0A000025644D422F25644D422000009C
:100EC0002407002021B1028842F04002028004E0A1
:100ED00002884FF6BF731A40028070470246002016
:100EE00013890B400BB1012000E000207047014640
:100EF000888970478181704710B50022028802F40A
:100F000041520B884C8823438C882343CC8823434D
:100F10000C8923434C8923438C892343CC89234365
:100F20001A430280838B4FF2FF74234083830B8A22
:100F3000038210BD704710B500F002F810BD00002C
:100F40000CB50020019000903348006840F48030D8
:100F50003149086000BF3048006800F4003000905C
:100F60000198401C0190009818B90198B0F5A06F45
:100F7000F1D12948006800F4003010B10120009040
:100F800001E0002000900098012843D12348006828
:100F900040F01000214908600846006820F0030076
:100FA00008600846006840F0020008601A4840687F
:100FB000194948600846406848600846406840F45F
:100FC000806048600846406820F47C10486008460D
:100FD000406840F4E81048600846006840F08070BF
:100FE000086000BF0C48006800F000700028F9D0CD
:100FF0000948406820F003000749486008464068F7
:1010000040F00200486000BF0348406800F00C0058
:101010000828F9D10CBD0000001002400020024059
:10102000042808D14FF0E021096941F004014FF094
:10103000E022116107E04FF0E021096921F004018D
:101040004FF0E02211617047012808D14FF0E021F4
:10105000096941F001014FF0E02211610EE0811CAD
:1010600041B94FF0E021096921F001014FF0E02280
:10107000116103E000214FF0E0229161704710B54B
:101080000146002200230020CB10022B03D14FF099
:10109000E024226902E04FF0E024E26901248C4060
:1010A00014400CB1012000E0002010BD704740B199
:1010B0004FF0E021096941F002014FF0E022116197
:1010C00007E04FF0E021096921F002014FF0E02232
:1010D000116170474FF0E0214861704710B5134827
:1010E000006840F001001149086008464068104956
:1010F00008400E494860084600680E4908400B4900
:1011000008600846006820F48020086008464068AF
:1011100020F4FE0048604FF41F008860FFF70BFFCB
:101120004FF000600449086010BD0000001002404C
:101130000000FFF8FFFFF6FE08ED00E021B1828914
:1011400042F40052828104E082894DF6FF731A4016
:101150008281704702460020B1F5007F00D100BFB8
:1011600013880B400BB1012000E000207047000005
:101170002DE9F04786B005460E460024A24600BF82
:10118000A1460027B08900B100BF2F462C8A4CF63B
:10119000FF700440F08804432C82AC894EF6F310B3
:1011A0000440B08831890843718908430443AC8105
:1011B000AC8A4FF6FF400440B0890443AC8201A8DA
:1011C000FFF7BCFD1F48874202D1DDF810A001E007
:1011D000DDF80CA0A88900F4004040B10AEBCA0079
:1011E00000EB0A1031684900B0FBF1F807E00AEBA8
:1011F000CA0000EB0A1031688900B0FBF1F86420E6
:10120000B8FBF0F004012009642101FB1089A889D2
:1012100000F4004040B1322000EBC900B0FBF1F017
:1012200000F00700044308E0322000EB09106421BD
:10123000B0FBF1F000F00F0004432C8106B0BDE8D4
:10124000F087000000380140C1F308028280704737
:1012500000BFFEE70FB4054B10B503A9044A02987E
:1012600000F02CF810BC5DF814FB0000E12500082C
:10127000740200200FB4084B10B504A902AA039809
:1012800000F01CF8044602A9002000F01DFB2046D7
:1012900010BC5DF814FB0000C918000802E008C883
:1012A000121F08C1002AFAD170477047002001E0E0
:1012B00001C1121F002AFBD1704700002DE9FF4F2A
:1012C0008DB00F460546002606E025280BD0DDE947
:1012D0000F1290476D1C761C28780028F5D111B0AC
:1012E0003046BDE8F08F0024A246A1460122EC4919
:1012F00000E0044315F8013F203B02FA03F00842E6
:10130000F7D128782A2810D06FF02F022878A0F182
:101310003001092914D80AEB8A0102EB410144F09B
:10132000020400EB010A6D1CF0E701CF5FEA000A3E
:1013300003D544F40054CAF1000A44F002046D1CC1
:1013400028782E2817D115F8010F44F004042A2814
:101350000ED06FF02F022878A0F1300109290AD8A9
:1013600009EB890102EB410100EB01096D1CF2E779
:1013700057F8049B6D1C28786C280FD006DC4C288D
:1013800017D068280DD06A2814D104E0742810D032
:101390007A280FD10DE044F400140AE044F48014DC
:1013A00001E044F440146978814202D104F58014CC
:1013B0006D1C6D1C2A786E2A1FD00CDC632A31D07C
:1013C00004DC002A8BD0582A11D1A3E0642A68D00B
:1013D000692A0CD165E0732A2ED004DC6F2A73D001
:1013E000702A04D19BE0752A6FD0782A6ED01046FF
:1013F000DDE90F129047761C50E1C4F30250022839
:1014000006D0032809D0042801CF09D0066045E1A1
:1014100001CFF117C0E9006140E101CF06803DE155
:1014200006703BE117F8040B8DF8000000208DF8E2
:101430000100EB46012003E057F804BB4FF0FF30FA
:1014400061074FF0000102D40DE008F10101884668
:1014500049450FDA8045F8DB1BF808100029F4D164
:1014600008E008F1010188468142FADB1BF8081008
:101470000029F6D1DDE90F23AAEB080081462146B9
:1014800000F036F9304400EB080604E0DDE90F1205
:101490001BF8010B9047B8F10108F7D221464846E6
:1014A000F7E00A21C4F302534FF0000B0891022B1E
:1014B00004D001CFC117032B09D00AE0FF1D27F08C
:1014C0000707F7E8020108E032E01FE020E000B281
:1014D000C117042B01D140B2C117031E71F10003E3
:1014E00007DA4FF0000CD0EB0C006CEB01012D2360
:1014F00002E0230504D52B238DF82430012303E0DB
:10150000E30701D02023F7E7984658E00A2110E0CE
:1015100010210EE010204FF0000B08900CE010217D
:101520004FF0000B44F004044FF00809089103E069
:1015300008214FF0000B0891C4F30253022B04D092
:1015400001CF0021032B06D006E0FF1D27F007077F
:10155000F7E8020103E080B2042B00D1C0B24FF0E3
:10156000000823072BD5702A07D0DDF820C08CF0A7
:10157000100C5CEA0B0C05D00EE040238DF82430F3
:10158000012308E050EA010306D030238DF824300F
:101590008DF8252002239846DDF820C08CF0080C39
:1015A0005CEA0B0C0BD150EA010301D1630706D5AD
:1015B00030238DF824304FF00108A9F10109582A91
:1015C00004D038A20B9208AA0A920BE03AA2F9E7DB
:1015D0005B46089AFEF7ADFD0B9B9B5C0A9A521E78
:1015E0000A92137050EA0102F2D10A98ADEB0000A2
:1015F00000F1200B600702D524F4803401E04FF0A5
:101600000109D94502DDA9EB0B0000E0002000EB49
:101610000B0141440890AAEB010AE00306D4DDE97E
:101620000F232146504600F063F806444FF00009AE
:1016300008E009A911F80900DDE90F12904709F146
:101640000109761CC145F4DBE0030CD5DDE90F236D
:101650002146504600F04CF8064404E0DDE90F1244
:1016600030209047761C0899481E08900029F5DC28
:1016700008E00A980A990078491C0A91DDE90F12DE
:101680009047761CBBF10001ABF1010BF1DC214668
:101690005046DDE90F2300F019F806446D1C1BE6E7
:1016A0000928010030313233343536373839616238
:1016B00063646566000000003031323334353637FC
:1016C0003839414243444546000000002DE9F041CD
:1016D000044600251E461746880404D405E0394612
:1016E0002020B0476D1C641EF9D52846BDE8F08166
:1016F0002DE9F041044600251E469046C80301D559
:10170000302700E02027880404D505E0414638460C
:10171000B0476D1C641EF9D52846BDE8F081000075
:101720002DE9F04105460E46174620211C48FEF7DC
:10173000B5FE00240BE0FF2000F0ACF800F0FF083D
:10174000B8F1FE0F01D1002404E0601C84B2B4F5AE
:10175000FA6FF0DB00BFB4F5FA6F06D12021104814
:10176000FEF79EFE0120BDE8F081002405E0FF2089
:1017700000F090F82855601C84B2B442F7DBFF20DB
:1017800000F088F8FF2000F085F837B120210448E8
:10179000FEF786FEFF2000F07DF80020E3E7000062
:1017A000001001402DE9F04106460C461746FF2087
:1017B00000F070F820211A48FEF770FE46F0400055
:1017C00000F068F8200E00F065F8C4F3074000F060
:1017D00061F8C4F3072000F05DF8E0B200F05AF8B9
:1017E000384600F057F84FF000080AE0FF2000F0FC
:1017F00051F8C5B2FF2D00D006E008F1010000F05D
:10180000FF08B8F1C80FF1DB00BF20210448FEF744
:1018100047FEFF2000F03EF82846BDE8F0810000BA
:10182000001001402DE9F04106460C461746FF2006
:1018300000F030F820211648FEF730FE46F0400058
:1018400000F028F8200E00F025F8C4F3074000F05F
:1018500021F8C4F3072000F01DF8E0B200F01AF8F8
:10186000384600F017F84FF000080AE0FF2000F0BB
:1018700011F8C5B2FF2D00D006E008F1010000F01C
:10188000FF08B8F1C80FF1DB00BF2846BDE8F081C2
:101890000010014010B5044600BF02210948FFF7BF
:1018A0001DFB0028F9D021460648FFF723FB00BFA7
:1018B00001210448FFF712FB0028F9D00148FFF787
:1018C00016FB10BD003001400A68531C0B601070FD
:1018D0007047000070B504460D46607801232A4623
:1018E00004F1300100F0C9FC08B1032070BD94F888
:1018F0002E1294F82F0241EA00204AF65521884220
:1019000001D00220F2E794F86900010694F868001B
:1019100041EA004194F8670041EA002094F866101B
:10192000084320F07F400E49884201D10020DDE7C6
:1019300094F88500010694F8840041EA004194F887
:10194000830041EA002094F88210084320F07F4091
:101950000349884201D10020C8E70120C6E7000002
:1019600046415400024600E0521C107810B1107835
:101970008842F9D1107870472DE9F74F88B0089860
:10198000006801900198007830380790079809287E
:101990000AD8019840783A2806D10198801C019015
:1019A00008990198086001E000200790079818B195
:1019B0000B200BB0BDE8F08FD049079851F82040BC
:1019C000099804600CB90C20F3E7207878B16078AE
:1019D00000F07CFC804608F0010040B90A9820B174
:1019E00008F0040008B10A20E3E70020E1E7002046
:1019F000207007986070607800F029FC804608F03D
:101A0000010008B10320D4E70A9820B108F00400CF
:101A100008B10A20CDE74FF0000B59462046FFF7EA
:101A200059FF054600BF012D21D14FF0000ABAF140
:101A3000000F03D0AAF1010000F0FF0A4FF4DF709D
:101A400000EB0A1104F130000F18387978B1F87AF8
:101A50000106B87A41EA0041787A41EA0020397AF1
:101A600040EA010B59462046FFF734FF0546032D97
:101A700001D101209DE70DB10D209AE73B20015DCA
:101A800094F83C0041EA0020B0F5007F01D00D2021
:101A90008FE74620015D94F8470041EA0029B9F13B
:101AA000000F0ED194F85700010694F8560041EA51
:101AB000004194F8550041EA002094F8541040EA9F
:101AC0000109C4F81C904020065DE670012E03D089
:101AD000022E01D00D206CE709FB06F93D20005DC8
:101AE0000646A07016B1701E304008B10D2060E7A8
:101AF0004120015D94F8420041EA00202081207AD3
:101B000000F00F0008B10D2053E74320015D94F869
:101B1000440041EA00200690069870B994F85300FA
:101B2000010694F8520041EA004194F8510041EA5C
:101B3000002094F85010084306903E20015D94F870
:101B40003F0041EA00200290029808B90D2030E7DA
:101B500002984844218900EB11100590DDE9050148
:101B6000814201D20D2024E7DDE90510401AA17859
:101B7000B0FBF1F00490049808B90D2019E7012595
:101B800040F6F6710498884200D302254FF6F671AC
:101B90000498884200D303250498801CA06105980E
:101BA0005844A062029858442062032D16D120891F
:101BB00008B10D20FDE694F85F00010694F85E0080
:101BC00041EA004194F85D0041EA002094F85C107D
:101BD00008436062A0698000039014E0208908B97E
:101BE0000D20E6E6206A48446062022D02D1A06919
:101BF000400007E0207E00F00100A16901EB4101F7
:101C000000EB51000390E169039800F2FF10B1EB83
:101C1000502F01D20D20CCE64FF0FF302061002084
:101C2000E060032D5CD1607194F8601094F861005D
:101C300041EA0020584460616078012304F13001DA
:101C4000626900F01AFBE8BB94F82E1294F82F0298
:101C500041EA00204AF65521884241D13320005DF7
:101C600001063220005D41EA00413120005D41EA79
:101C7000002094F8301008432149884230D194F86C
:101C80001702010694F8160241EA004194F8150281
:101C900041EA002094F8141208431A4988421FD1DF
:101CA00094F81F02010694F81E0241EA004194F8DC
:101CB0001D0241EA002094F81C120843E06094F8E9
:101CC0001B0200E00CE0010694F81A0241EA004110
:101CD00094F8190241EA002094F818120843206190
:101CE000257009480088401C80B207490880E080C0
:101CF0000020E062207100BF5BE6000014000020BD
:101D00005252614172724161180000200246891EE0
:101D10009069801E884201D8002070479378906AAD
:101D200001FB0300F9E72DE9F04704468946B9F1C4
:101D3000000F06D1E76817B1A069B84211D8012792
:101D40000FE04946204600F05DFC0646022E02D216
:101D50000120BDE8F087A069B04201D93046F8E71C
:101D60004F463D4600BF6D1CA069A84204D802251D
:101D7000BD4201D90020ECE72946204600F042FC94
:101D8000064606B909E0701C08B1012E01D13046A3
:101D9000DFE7BD42E7D10020DBE700BF6FF0704214
:101DA0002946204600F090FF8046B8F1000F08D188
:101DB000B9F1000F05D02A464946204600F084FFBD
:101DC0008046B8F1000F09D1E5602069401C68B178
:101DD0002069401E20610120607107E0B8F1010F09
:101DE00002D14FF0FF3000E0012005462846B0E761
:101DF0002DE9F35F0198D0F8009001E009F10109A5
:101E000099F800002F28F9D099F800005C28F5D047
:101E1000009886690B222021304600F012FF002531
:101E20002F46AB464FF0080A00BF58460BF1010B96
:101E300019F80040202C03DD2F2C01D05C2C00D1A0
:101E400057E02E2C01D057450DD3BAF1080F01D120
:101E50002E2C02D00620BDE8FC9F08274FF00B0A6D
:101E6000A806050EE1E7802C01DB45F00305812C77
:101E700001DB9F2C03DDE02C20DBFC2C1EDC584614
:101E80000BF1010B19F80080B8F1400F02DBB8F13B
:101E90007E0F05DDB8F1800F06DBB8F1FC0F03DC27
:101EA000AAF10100B84201D80620D4E738467F1CC9
:101EB000345438467F1C06F8008019E0214620A0E3
:101EC000FFF750FD08B10620C5E7412C04DB5A2C72
:101ED00002DC45F0020508E0612C06DB7A2C04DC0C
:101EE00045F00105A4F12000C4B238467F1C3454EB
:101EF0009BE700BF09EB0B0101980160202C01DC7E
:101F0000042000E0002004460FB90620A3E7307843
:101F1000E52801D105203070BAF1080F01D1A806DB
:101F2000050E05F00300012801D144F0100405F06E
:101F30000C00042801D144F00804F47200208AE760
:101F4000222A2B2C3A3B3C3D3E3F5B5D7C7F0000D0
:101F500000B585B06846FEF7F1FE6FF00400FFF7AC
:101F60005FF80020FFF7A3F807490198B0FBF1F0F4
:101F7000064908704FF4FA510198B0FBF1F004499A
:101F8000088005B000BD000000127A006C0200203D
:101F90006E02002030B504461148008800FB04F5AD
:101FA000B5F1807F01D36FF07F452846FFF792F8A7
:101FB0000020FFF749F80120FFF746F800BF102086
:101FC000FFF75DF807490870084600780128F6D148
:101FD000C01EFFF739F80020FFF736F830BD0000CB
:101FE0006E020020700200202DE9F041044600211D
:101FF000204600F0DEF8054615B12846BDE8F08120
:1020000000BF2169206800F026FE054605B116E0F4
:10201000666937780FB9042511E0F07A00F00800FE
:1020200030B90B223046A16900F0F8FD00B906E096
:102030000021204600F006F80546002DE1D000BF43
:102040002846DBE72DE9F0410446884600BFE088DA
:10205000401C86B20EB1206910B90420BDE8F081A1
:1020600006F00F0000286FD12069401C2061E06855
:1020700028B920680089B04266DC0420EEE72068B9
:102080008078401E00EA161000285DD1E1682068C3
:1020900000F0B8FA0546012D01D80220DEE7681CE1
:1020A00008B90120DAE720688069A84246D8B8F16B
:1020B000000F01D10420D1E7E1682068FFF733FE6B
:1020C00005460DB90720C9E7012D01D10220C5E75A
:1020D000681C08B90120C1E70021206800F0BBFDA1
:1020E00008B10120BAE7216801F130004FF4007215
:1020F000002100F0A6FD29462068FFF707FE2168B1
:10210000C862002710E001202168087100212068C2
:1021100000F0A1FD08B10120A0E72068C06A401CC2
:102120002168C862781CC7B220688078B842EADCAF
:102130002068C06AC01B2168C86200BFE5602946EC
:102140002068FFF7E3FD2061E6802068303006F06C
:102150000F0100EB4110606100207FE72DE9F041A5
:10216000044604251BE02169206800F074FD054643
:1021700005B117E067693E780EB9042512E0E52E37
:1021800006D02E2E04D0F87A00F0080000B909E03D
:1021900000212046FFF756FF054605B102E0206901
:1021A0000028E0D100BF0DB1002020612846BDE825
:1021B000F0812DE9F04104460E46E680A568012D28
:1021C00003D020688069A84202D80220BDE8F081CF
:1021D0002DB920680078032801D12068456A65B9C7
:1021E000E56020680089B04201DC0220EEE720684B
:1021F000406A00EB1610206120E02068807807011B
:1022000012E02946206800F0FDF90546681C08B96F
:102210000120DBE7022D03D320688069A84201D8A2
:102220000220D3E7F01B86B2BE42EADAE560294617
:102230002068FFF76BFD00EB16102061206830303E
:1022400006F00F0100EB411060610020BEE770B5A1
:10225000054625B1012D0AD0022D0CD109E0FEF76B
:1022600023F904460CB9002070BD0120FCE70120D1
:10227000FAE70120F8E70120F6E72DE9F0410646EC
:10228000884617461C4614B90420BDE8F08126B1E3
:10229000012E15D0022E15D113E0012C05D1414697
:1022A0003846FEF7AFFB054605E022464146384674
:1022B000FEF766FB05460DB90020E6E70120E4E7DE
:1022C00001E000E000BF00BF0120DEE7014621B1D0
:1022D000012904D0022906D103E000207047002024
:1022E000FCE70020FAE700BF00BF0120F6E72DE978
:1022F000F0410646884617461C4614B90420BDE83E
:10230000F08116B1022E14D112E0012C05D1414604
:102310003846FEF79BFC054605E022464146384616
:10232000FEF700FC05460DB90020E8E70120E6E7CE
:1023300000E000BF00BF0120E1E72DE9F74F82B0C8
:102340008B4614460022214602A8FFF715FB019098
:102350000198002877D1206801698069801E814238
:1023600004D820680069CBF800006CE0206890F881
:1023700000A00026BAF1010F1DD1022700BF394687
:10238000206800F03FF9804608F1010010B90120F3
:1023900001900FE0B8F1010F02D10220019009E095
:1023A000B8F1000F00D1761C781C074621688969B6
:1023B0008842E4D33DE0206887692068006A009085
:1023C0004FF00009002500BFB9F1000F0FD1009AAE
:1023D000531C11460093206800F03DFC01900198C9
:1023E00000B125E0206800F130054FF40079BAF122
:1023F000020F09D12878697840EA012000B9761CDB
:10240000AD1CA9F1020910E0E8780006A97840EABD
:102410000140697840EA01202978084320F07040A3
:1024200000B9761C2D1DA9F10409781E071ECBD119
:1024300000BF20680661BAF1030F02D101202168B4
:102440004871CBF80060019805B0BDE8F08F00003E
:102450000246012A01DB0B207047074850F8223062
:102460000BB10020187009B100200870024840F834
:1024700022100020F0E700001400002033B583B0E4
:1024800004460022214604A8FFF776FA05464DBB14
:10249000C4F818D02046049900F053F80546F5B961
:1024A000606998B16069C07A00F0100068B1606935
:1024B000817EC07E41EA00216069027D407D42EA62
:1024C000002041EA0040A06000E005253DB92068F9
:1024D000C088A08000212046FFF76BFE0546042D32
:1024E00000D10525284605B030BDFEB504460E4690
:1024F000A188206800F0F2FC054605BB2EB900213A
:102500002046FFF756FE054619E0C4F818D02046CD
:10251000FFF724FE0546042D02D10020206100258E
:102520006DB93146204600F0DFF800212046FFF764
:1025300089FD0546042D02D1002020610025284692
:10254000FEBD2DE9F3410446019800782F2803D001
:10255000019800785C2802D10198401C019000206D
:10256000A06001980078202807D200212046FFF7BC
:1025700020FE0646002060612FE000BF01A9204632
:10258000FFF736FC064606B126E02046FFF72CFD95
:102590000646A069C77A46B1042E00D01CE000BFF1
:1025A00007F0040000B9052616E007F0040000B1AA
:1025B00012E06569E87A00F0100008B905260BE022
:1025C000A97EE87E41EA00212A7D687D42EA00205A
:1025D00041EA0040A060D1E700BF3046BDE8FC8181
:1025E00070B504460D46E1B20548FEF72DFE00BF6A
:1025F00040210348FEF7AEFD0028F9D0204670BD0B
:10260000003801402DE9F04105460C46022C02D36A
:10261000A869A04202D80120BDE8F08128780128ED
:1026200004D002282CD003285AD13DE0274607EBDE
:102630005707286A00EB5721284600F00CFB00B131
:102640004EE0C7F3080105F1300010F801807F1C4F
:10265000286A00EB5721284600F0FDFA00B13FE060
:10266000C7F3080105F13000405C48EA002804F097
:10267000010010B14FEA1810CEE7C8F30B00CBE70A
:10268000286A00EB1421284600F0E5FA00B127E0A3
:1026900040F2FF1000EA440105F130000E183078D6
:1026A000717840EA0120B7E7286A00EBD411284688
:1026B00000F0D1FA00B113E040F2FF1000EA84010B
:1026C00005F130000E18F0780006B17840EA0140BC
:1026D000717840EA01203178084320F070409BE790
:1026E00000BF4FF0FF3097E7F0B505460B4603F10A
:1026F00009022F69002F40D06869067B00210AE09B
:10270000445C202C00D108E0052C00D1E52400BF5A
:1027100002F8014B491C0829F2D300BF077A202F89
:102720000FD02E2702F8017B082107E0445C202C03
:1027300000D105E000BF02F8014B491C0B29F5D37D
:1027400000BFC77A1F72C77F4FEA076C877F4CEACA
:10275000074C477F4CEA072790F81CC047EA0C0754
:102760001F6090F818C0477E4CEA07279F8090F8BA
:1027700016C0C77D4CEA0727DF8000271770F0BD21
:1027800044F6206000BF011EA0F10100FBD170479C
:1027900010B5012000F098F80520FFF7FBFB10BDF5
:1027A00000B50748006840F4006005490860FFF77D
:1027B000E7FF0348006820F400600149086000BD9D
:1027C0000C0C014070B506460C46012E0BD1651E5F
:1027D000E91705EB11710911A5EB01118031C8B2A0
:1027E00000F072F80AE0651EE91705EB1171091196
:1027F000A5EB0111C031C8B200F066F870BD000051
:1028000010B52C480068C0F309002A49086064200C
:10281000FFF7C0FB032000F057F80120FFF7BAFBD9
:10282000FFF7BEFF0120FFF7B5FBFFF7B9FF02205E
:1028300000F04AF80120FFF7ADFB332000F044F828
:10284000322000F041F8282000F03EF80C2000F083
:102850003BF800201849087024E01848007800F080
:1028600033F80020164908700EE01649124A127813
:1028700001EBC201124A1278885C00F045FB104857
:102880000078401C0E4908700D4800780728ECDDE0
:102890000A48007808300949087007480078401C49
:1028A00005490870044800780728D6DDFFF770FF57
:1028B00010BD00000C0C0140280200202A0200205C
:1028C000290200202B02002000B5034610480068B2
:1028D000C0F309000E4908600846006803F0F001E3
:1028E00040EA01200A490860FFF75AFFFFF748FF56
:1028F00007480068C0F309000549086008460068F9
:1029000040EA03300860FFF74BFFFFF739FF00BDD7
:102910000C0C014010B5044603E014F8010B00F064
:10292000F3FA20780028F8D110BD0000FFF710FB63
:10293000FDF790FC4548C06820F480704349C860AA
:10294000FDF7DAFCFEF7ACF8FFF75AFF40A0FFF7FF
:10295000E1FF0A20FFF71EFB01210220FFF732FFF3
:1029600040A0FFF7D7FF40F2DC50FFF713FB42A077
:10297000FEF770FC41A0FEF76DFC4DA0FEF76AFC6F
:1029800058A0FEF767FC4AA0FEF764FC62A0FEF7C1
:1029900061FC01216D48FDF778FD50B96CA0FEF790
:1029A00059FC01210846FFF70DFF6FA0FFF7B2FFAA
:1029B0001CE072A0FEF74EFC01210846FFF702FF63
:1029C00077A0FFF7A7FF00BF01216048FDF75DFD7D
:1029D0000028F9D177A0FEF73DFC01210846FFF75A
:1029E000F1FE7CA0FFF796FF00BFFEE77E490020C6
:1029F000FFF72EFD4FF4FA70FFF7CCFA01210846DD
:102A0000FFF7E0FE79A0FFF785FF7D4800F0F8F9B9
:102A100001210846FFF7D6FE7AA0FFF77BFFFEF7FD
:102A2000F7F912E07C48006840F001007A4908603C
:102A30004FF4FA70FFF7AEFA774800680020764945
:102A400008604FF4FA70FFF7A5FAEBE700100140B9
:102A5000204578706B697473204558532D303320AE
:102A60000000000020202053544D3332463130788E
:102A700020202020000000000D0A00002A2A2A2A17
:102A80002A2A2A2A2A2A2A2A2A2A2A2A2A2A2A2AA6
:102A90002A2A2A2A2A2A2A2A2A2A2A2A2A2A2A2A96
:102AA0002A2A2A2A2A2A2A2A2A2A2A2A2A0D0A00ED
:102AB0002A2020202020202020202020202020200C
:102AC0002020202020202020202020202020202006
:102AD00020202020202020202020202020202020F6
:102AE0002A0D0A002A20202020207777772E45788B
:102AF000706B6974732E636F6D20202D20534420FA
:102B00004B61727420557967756C616D61736920D2
:102B1000202020202A0D0A002A2A2A2A2A2A2A2AA4
:102B20002A2A2A2A2A2A2A2A2A2A2A2A2A2A2A2A05
:102B30002A2A2A2A2A2A2A2A2A2A2A2A202A2A2AFF
:102B40002A2A2A2A2A2A2A2A2A0D0A00000C0140A7
:102B50002D2D205344206B6172742062756C756E4C
:102B6000647521200D0A00005344206B61727420AB
:102B700062756C756E647521000000002D2D204C6F
:102B8000757466656E205344204B617274692059D8
:102B900065726C6573746972696E200D0A000000BD
:102BA0005344206B61727420796F6B2E2E2E21207E
:102BB000000000002D2D205344204B6172742042F0
:102BC00061676C616E746920686174617369200D5E
:102BD0000A0000005344206B6172742068617461C4
:102BE0007369212000000000D00200204F6B756E39
:102BF00075796F722E2E2E202020202000000000DC
:102C000028000020546F706C616D204B61706173FF
:102C10006974653A000000000C080140F0B50346F5
:102C20001C460D46002000BF161EA2F1010207D06F
:102C300014F8017B15F801CBA7EB0C06301EF3D07E
:102C4000F0BD30B5034601E003F8011B141EA2F1EC
:102C50000102F9D130BD2DE9F04104460D46E66A86
:102C6000AE422FD0207908B360780123324604F1B8
:102C70003001FFF73CFB10B10120BDE8F0810020DE
:102C80002071D4E907100844B0420FD9E7780AE070
:102C9000E069064460780123324604F13001FFF711
:102CA00026FB781EC7B2012FF2DC00BF55B1607859
:102CB00001232A4604F13001FFF7DFFA08B10120B1
:102CC000DBE7E5620020D8E72DE9F04705460E4630
:102CD0001746022E02D3A869B04202D84FF002086C
:102CE0008AE02878012804D0022841D003287DD129
:102CF00054E0B14609EB5909286A00EB59212846EE
:102D0000FFF7A9FF8046B8F1000F00D071E0C9F3CA
:102D1000080105F130000C1806F0010020B1F9B2ED
:102D2000207861F31F1000E03846207009F1010996
:102D300001202871286A00EB59212846FFF78BFFF4
:102D40008046B8F1000F00D053E0C9F3080105F147
:102D500030000C1806F0010010B1C7F3071005E0B1
:102D6000207800F0F000C7F303210843207040E012
:102D7000286A00EB16212846FFF76DFF8046B8F160
:102D8000000F00D035E040F2FF1000EA460105F1E7
:102D900030000C182770380A60702AE0286A00EBAF
:102DA000D6112846FFF757FF8046B8F1000F00D034
:102DB0001FE040F2FF1000EA860105F130000C1818
:102DC000E0780006A17840EA0140617840EA0120FD
:102DD0002178084300F0704007432770380A60707C
:102DE000380CA070380EE07003E0FFE74FF00208E7
:102DF00000BF00BF012028714046BDE8F0870000F9
:102E000070B58EB00446214601A8FFF737FB28496C
:102E1000087008460078002845D12046FDF782F961
:102E2000054600BF08A901A8FFF75FFB204908700D
:102E30000846007810B99DF8290000B932E09DF8E5
:102E400029002E2800D1EDE70DF129069DF8280074
:102E500000F0100080B16019324616A1FEF70AFAA0
:102E60002046FFF7CDFF124908700846007800B1F0
:102E700018E00020605514E0324621460EA0FEF70F
:102E8000E9F901210220FFF79DFC32460DA112480D
:102E9000FEF7F0F91048FFF73DFD4FF4FA70FFF729
:102EA00079F8BFE700BF024800780EB070BD00009F
:102EB000200000202F25730025732F2573200D0A75
:102EC000000000002573202020202020202020202A
:102ED00020202020202000002407002070B5044678
:102EE0000D4624B1207810B1E088A84201D0092015
:102EF00070BD6078FFF7EAF900F0010008B1032027
:102F0000F6E70020F4E7000000B50346E72B20D0E9
:102F10000CDCDC2B1BD004DCC72B10D0D62B22D131
:102F200011E0DD2B0DD0DE2B1DD10EE0F62B14D0E1
:102F3000FC2B16D0FD2B0ED0FE2B14D10FE000235E
:102F400012E0012310E002230EE003230CE004232F
:102F50000AE0002308E0012306E0022304E0032343
:102F600002E0042300E000BF00BF14480068C0F383
:102F70000900124908600846006803F0F0014FF4A8
:102F8000806242EA012108430C490860FFF708FC0F
:102F9000FFF7F6FB09480068C0F30900074908601D
:102FA00008460068091541EA0331084303490860EF
:102FB000FFF7F6FBFFF7E4FB00BD00000C0C01403F
:102FC000E02F00080000002078020000F601000851
:102FD000303000087802002010090000AC12000810
:102FE000412D010203040400091406070809020424
:102FF000060803FF303A01FF211240370E1010116E
:103000000E04160C0404040E120A260E1111110EE1
:103010001F0F100E011E0410190F191020080206B0
:103020000E1E0E06021926190121F61008040201CF
:04000005080000ED02
:00000001FF
