:020000040800F2
:1000000060040020010100081B030008130300081E
:1000100017030008490100081D0600080000000041
:1000200000000000000000000000000015040008AF
:100030004D010008000000001D0300088D050008A8
:100040001B0100081B0100081B0100081B01000820
:100050001B0100081B0100081B0100081B01000810
:100060001B0100081B0100081B0100081B01000800
:100070001B0100081B0100081B0100081B010008F0
:100080001B0100081B0100081B0100081B010008E0
:100090001B0100081B0100081B0100081B010008D0
:1000A0001B0100081B0100081B0100081B010008C0
:1000B0001B0100081B0100081B0100081B010008B0
:1000C0001B0100081B0100081B0100081B010008A0
:1000D0001B0100081B0100081B0100081B01000890
:1000E0001B0100081B0100081B010008DFF80CD0F1
:1000F00000F018F800480047850800086004002058
:100100000648804706480047FEE7FEE7FEE7FEE7B1
:10011000FEE7FEE7FEE7FEE7FEE7FEE7BD050008B7
:10012000ED000008064C074D06E0E06840F00103D2
:1001300094E8070098471034AC42F6D3FFF7DAFF93
:10014000E8090008080A000800BFFEE77047000041
:1001500008B50121042000F0E3F80121082000F097
:10016000DFF80121102000F0DBF80320ADF80000DB
:100170008DF8020010208DF8030069461A4800F03F
:1001800039F80C20ADF8000003208DF80200102093
:100190008DF803006946154800F02CF84FF47C40B8
:1001A000ADF8000003208DF8020010208DF8030048
:1001B00069460F4800F01EF84FF48070ADF800005B
:1001C00069460B4800F016F84FF48070ADF8000057
:1001D00003208DF8020010208DF8030069460348C3
:1001E00000F008F808BD00000008014000100140C0
:1001F000000C01402DE9F0410246002500260020B8
:1002000000230024002791F803C00CF00F0591F89B
:1002100003C00CF0100CBCF1000F03D091F802C029
:100220004CEA050591F800C0BCF1000F31D014680C
:1002300000202BE04FF0010C0CFA00F3B1F800C0E5
:100240000CEA03069E4220D183004FF00F0C0CFAFB
:1002500003F7BC4305FA03FC4CEA040491F803C01D
:10026000BCF1280F06D14FF0010C0CFA00FCC2F8CB
:1002700014C00AE091F803C0BCF1480F05D14FF05B
:10028000010C0CFA00FCC2F810C0401C0828D1D3A5
:100290001460B1F800C0BCF1FF0F34DD54680020D9
:1002A0002EE000F1080C4FF0010808FA0CF3B1F849
:1002B00000C00CEA03069E4221D183004FF00F0CD0
:1002C0000CFA03F7BC4305FA03FC4CEA040491F86A
:1002D00003C0BCF1280F05D100F1080C08FA0CF896
:1002E000C2F8148091F803C0BCF1480F07D100F1A7
:1002F000080C4FF0010808FA0CF8C2F81080401CF6
:100300000828CED35460BDE8F08141617047016197
:10031000704700BFFEE700BFFEE770477047000070
:1003200029B1064A92690243044B9A6104E0034AE8
:1003300092698243014B9A617047000000100240AD
:1003400030B500210022002400232D4D6D6805F0FA
:100350000C0121B1042905D0082923D105E0294D3C
:10036000056022E0274D05601FE0254D6D6805F40E
:100370007012234D6D6805F48034022505EB92421E
:100380001CB9214D554305600BE01D4D6D6805F40A
:1003900000351DB11C4D5543056002E0194D554314
:1003A000056002E0174D056000BF00BF144D6D6889
:1003B00005F0F0010909154D6B5C0568DD404560ED
:1003C0000F4D6D6805F4E061090A104D6B5C4568DE
:1003D000DD4085600A4D6D6805F46051C90A0B4D1A
:1003E0006B5C4568DD40C560054D6D6805F44041B6
:1003F000890B074D6B5CC568B5FBF3F5056130BD36
:100400000010024000127A0000093D0000000020A8
:1004100010000020704710B500F002F810BD000079
:100420000CB50020019000903348006840F4803003
:100430003149086000BF3048006800F40030009087
:100440000198401C0190009818B90198B0F5A06F70
:10045000F1D12948006800F4003010B1012000906B
:1004600001E0002000900098012843D12348006853
:1004700040F01000214908600846006820F00300A1
:1004800008600846006840F0020008601A484068AA
:10049000194948600846406848600846406840F48A
:1004A000806048600846406820F47C104860084638
:1004B000406840F4E81048600846006840F08070EA
:1004C000086000BF0C48006800F000700028F9D0F8
:1004D0000948406820F00300074948600846406822
:1004E00040F00200486000BF0348406800F00C0084
:1004F0000828F9D10CBD0000001002400020024085
:10050000042808D14FF0E021096941F004014FF0BF
:10051000E022116107E04FF0E021096921F00401B8
:100520004FF0E02211617047012808D14FF0E0211F
:10053000096941F001014FF0E02211610EE0811CD8
:1005400041B94FF0E021096921F001014FF0E022AB
:10055000116103E000214FF0E0229161704710B576
:100560000146002200230020CB10022B03D14FF0C4
:10057000E024226902E04FF0E024E26901248C408B
:1005800014400CB1012000E0002010BD704740B1C4
:100590004FF0E021096941F002014FF0E0221161C2
:1005A00007E04FF0E021096921F002014FF0E0225D
:1005B000116170474FF0E0214861704710B5134852
:1005C000006840F001001149086008464068104981
:1005D00008400E494860084600680E4908400B492B
:1005E00008600846006820F48020086008464068DB
:1005F00020F4FE0048604FF41F008860FFF70BFFF7
:100600004FF000600449086010BD00000010024077
:100610000000FFF8FFFFF6FE08ED00E000BFFEE778
:1006200002E008C8121F08C1002AFAD170477047BB
:10063000002001E001C1121F002AFBD17047000019
:1006400000B585B06846FFF77BFE6FF00400FFF74A
:1006500057FF0020FFF79BFF07490198B0FBF1F01F
:10066000064908704FF4FA510198B0FBF1F00449C3
:10067000088005B000BD000000127A00580000207C
:100680005A00002030B504461148008800FB04F5EC
:10069000B5F1807F01D36FF07F452846FFF78AFFD1
:1006A0000020FFF741FF0120FFF73EFF00BF1020B1
:1006B000FFF755FF07490870084600780128F6D172
:1006C000C01EFFF731FF0020FFF72EFF30BD0000F6
:1006D0005A0000205C00002044F6206000BF011E8C
:1006E000A0F10100FBD1704710B5012000F098F88F
:1006F0000520FFF7C7FF10BD00B50748006840F4AC
:10070000006005490860FFF7E7FF0348006820F430
:1007100000600149086000BD0C0C014070B5064640
:100720000C46012E0BD1651EE91705EB117109115D
:10073000A5EB01118031C8B200F072F80AE0651E25
:10074000E91705EB11710911A5EB0111C031C8B210
:1007500000F066F870BD000010B52C480068C0F3CA
:1007600009002A4908606420FFF78CFF032000F08D
:1007700057F80120FFF786FFFFF7BEFF0120FFF7C4
:1007800081FFFFF7B9FF022000F04AF80120FFF7D0
:1007900079FF332000F044F8322000F041F828209F
:1007A00000F03EF80C2000F03BF8002018490870DB
:1007B00024E01848007800F033F80020164908704B
:1007C0000EE01649124A127801EBC201124A127861
:1007D000885C00F0ADF810480078401C0E490870A5
:1007E0000D4800780728ECDD0A48007808300949F0
:1007F000087007480078401C0549087004480078D4
:100800000728D6DDFFF770FF10BD00000C0C01407B
:100810001400002016000020150000201700002002
:1008200000B5034610480068C0F309000E4908608F
:100830000846006803F0F00140EA01200A49086018
:10084000FFF75AFFFFF748FF07480068C0F30900A9
:10085000054908600846006840EA03300860FFF771
:100860004BFFFFF739FF00BD0C0C014010B50446EB
:1008700003E014F8010B00F05BF820780028F8D1B1
:1008800010BD0000FFF764FCFFF7DAFE4FF4807143
:100890001C48FFF73AFD01211B48FFF738FD0221F4
:1008A0001948FFF734FD04211648FFF730FD0821F1
:1008B0001448FFF72CFD4FF4FA70FFF7E3FE012117
:1008C0001148FFF722FD02210F48FFF71EFD04210A
:1008D0000C48FFF71AFD08210A48FFF716FD4FF4F0
:1008E000FA70FFF7CFFEFFF737FF08A0FFF7BEFF54
:1008F00001210220FFF712FF09A0FFF7B7FF00BF99
:10090000FEE7000000100140000801402D4C434468
:1009100020557967756C616D6173FD2D00000000D5
:100920007777772E4578704B6974732E636F6D00FF
:1009300000B50346E72B20D00CDCDC2B1BD004DCFD
:10094000C72B10D0D62B22D111E0DD2B0DD0DE2B02
:100950001DD10EE0F62B14D0FC2B16D0FD2B0ED0A3
:10096000FE2B14D10FE0002312E0012310E002233C
:100970000EE003230CE004230AE0002308E0012337
:1009800006E0022304E0032302E0042300E000BFAA
:1009900000BF14480068C0F3090012490860084607
:1009A000006803F0F0014FF4806242EA012108433D
:1009B0000C490860FFF7A0FEFFF78EFE09480068AB
:1009C000C0F309000749086008460068091541EAB4
:1009D0000331084303490860FFF78EFEFFF77CFEF2
:1009E00000BD00000C0C0140080A000800000020B7
:1009F0006000000020060008680A0008600000206F
:100A0000000400003006000800000000010203049A
:100A1000010203040607080902040608000040005A
:100A20000E1010110E040000000C0404040E000A45
:100A3000000E1111110E00000F100E011E04000A0D
:100A400000111111110E0002060E1E0E060200000A
:100A5000040404040404000010080402010000005F
:080A600000000000000000008E
:04000005080000ED02
:00000001FF
