:020000040800F2
:100000006004002001010008E9020008E502000880
:10001000E702000849010008E504000800000000AC
:10002000000000000000000000000000B103000814
:100030004B01000800000000EB020008F10300087B
:100040001B0100081B0100081B0100081B01000820
:100050001B0100081B0100081B0100081B01000810
:100060001B0100081B0100081B0100081B01000800
:100070001B0100081B0100081B0100081B010008F0
:100080001B0100081B0100081B0100081B010008E0
:100090001B0100081B0100081B0100081B010008D0
:1000A0001B0100081B0100081B0100081B010008C0
:1000B0001B0100081B0100081B0100081B010008B0
:1000C0001B0100081B0100081B0100081B010008A0
:1000D0001B0100081B0100081B0100081B01000890
:1000E0001B0100081B0100081B010008DFF80CD0F1
:1000F00000F018F800480047E506000860040020FA
:100100000648804706480047FEE7FEE7FEE7FEE7B1
:10011000FEE7FEE7FEE7FEE7FEE7FEE7F503000881
:10012000ED000008064C074D06E0E06840F00103D2
:1001300094E8070098471034AC42F6D3FFF7DAFF93
:10014000D4080008F4080008FEE7704738B5032417
:10015000ADF800408DF8024028258DF8035069461F
:10016000074800F05FF80C20ADF800008DF8024061
:100170008DF803506946034800F054F838BD00007C
:1001800000080140001001402DE9F843012104203E
:1001900000F0ACF80121082000F0A8F8012110209F
:1001A00000F0A4F80324ADF800408DF802401025BB
:1001B0008DF803506946184800F034F80C20ADF86B
:1001C0000000164F8DF802408DF8035069463846FE
:1001D00000F028F84FF47C40ADF80000DFF84080D4
:1001E0008DF802408DF803506946404600F01AF839
:1001F0002E01ADF800606946404600F013F8ADF8F6
:1002000000608DF802408DF803506946384600F0D2
:1002100009F8BDE8F8830000000801400010014023
:10022000000C01402DE9F001CB78002203F00F0C07
:1002300013F0100F1CBF8B7843EA0C0C0B784FF0B7
:100240000F0613F0FF0F4FF0010518BF046819D017
:100250000F8805FA02F31F409F420FD1970006FA5C
:1002600007F824EA08040CFA07F73C43CF78282F54
:1002700008BF436102D0482F08BF0361521C082AFF
:10028000E6D304600A88FF2A87BF44680022BDE8DD
:10029000F001704702F108030F8805FA03F31F40CD
:1002A0009F420FD1970006FA07F824EA08040CFAD7
:1002B00007F73C43CF78282F08BF4361CF78482FFA
:1002C00008BF0361521C082AE4D34460BDE8F00172
:1002D00070470246002092680A4218BF012070470A
:1002E00041617047FEE7FEE770477047044A002906
:1002F000916914BF084321EA000090617047000033
:1003000000100240254910B44A6812F00C03244A38
:1003100018BF042B01D0082B01D0026015E04A68F9
:100320004B6802F470124FF0020C13F4803F0CEB98
:10033000924203D04B6813F4003F03D0194B5A4349
:10034000026002E0164B5A4302604A680F2303EA38
:100350001212154B9A5CD0F800C02CFA02F24260DF
:10036000D1F804C0072404EA1C2C13F80CC022FAAC
:100370000CFCC0F808C0D1F804C004EADC2C13F867
:100380000C30DA40C2604968032303EA9131074B1D
:10039000595CB2FBF1F1016110BC704700100240E2
:1003A00000127A0000093D00040000200000002037
:1003B00070474FF0E021042808690CBF40F00400AA
:1003C00020F00400086170474FF0E021012804BFCD
:1003D000086940F0010009D010F1020F07BF086959
:1003E00020F001000020886118BF70470861704745
:1003F00070470000374882B0016841F00101016098
:100400004168354A11404160016821F4102121F012
:1004100080710160016821F480210160416821F44C
:10042000FE0141604FF41F018160002201920092A1
:10043000016841F480310160016801F400310091EC
:100440000199491C0191009919B90199B1F5A06F61
:10045000F2D1016811F4003F08BF009233D00121AE
:1004600000911E490A6842F010020A600A6822F0F0
:1004700003020A600A6842F002020A6041684160B1
:1004800041684160416841F480614160416821F404
:100490007C114160416841F4E8114160016841F01C
:1004A00080710160016811F0007FFBD0416821F08C
:1004B00003014160416841F002014160416801F07F
:1004C0000C010829FAD106494FF00060086002B01B
:1004D00070470000001002400000FFF800200240BA
:1004E00008ED00E0FEE702E008C8121F08C1002A7C
:1004F000FAD170477047002001E001C1121F002AA5
:10050000FBD1704700B585B06846FFF7FBFE6FF082
:100510000400FFF74EFF4FF0E020016921F00201D7
:100520000161074901984FF4FA52B0FBF1F1054817
:1005300001700199B1FBF2F1418005B000BD0000EE
:1005400000127A0014000020124A00B55188484376
:10055000B0F1807F1BD200BF4FF0E0235861002034
:10056000FFF732FF0120FFF72FFF1969002011F478
:10057000803F18BF012050700028F6D06FF00100B6
:10058000FFF722FF00205DF804EBFFF71DBF6FF0BF
:100590007F40E1E714000020491ECA1701EB1272E8
:1005A00022F00F02891A012804D001F1C000C0B264
:1005B00000F064B801F18000C0B200F05FB8000044
:1005C00070B52C4C2068C0F3090020606420FFF750
:1005D000BBFF032000F052F80120FFF7B5FF2068B1
:1005E00040F400602060206820F40060206001205A
:1005F000FFF7AAFF206840F400602060206820F424
:1006000000602060022000F039F80120FFF79CFF15
:10061000332000F033F8322000F030F8282000F0CA
:100620002DF80C2000F02AF8134C0026E51C66700B
:10063000207800F023F8A6706078A17805EBC00060
:10064000405C00F0FBF8A078401CC0B2A070072806
:10065000F2D92078083020706078401CC0B26070F9
:100660000728E5D9012000F009F8BDE87040052011
:10067000FFF76ABF0C0C01401800002011490A68FE
:10068000C2F309020A600A6800F0F00342EA03229A
:100690000A600A6842F400620A600A6822F4006292
:1006A0000A600A68C2F309020A600A6842EA003076
:1006B0000860086840F400600860086820F4006082
:1006C000086070470C0C014010B504460078002803
:1006D00008BF10BD14F8010B00F0B0F82078002816
:1006E000F8D110BDFFF750FDFFF70CFF2C4D4FF474
:1006F00080712846FFF7F4FDFFF762FF29A0FFF79E
:10070000E3FF01210220FFF747FF29A0FFF7DCFFED
:100710004FF4C870FFF718FF01210220FFF73CFFDC
:1007200027A0FFF7D1FFFFF711FD2A4C012120463A
:10073000FFF7CFFD38B101210846FFF72DFF26A0B6
:10074000FFF7C2FF16E002212046FFF7C2FD28B1E5
:1007500001210846FFF720FF24A009E004212846D4
:10076000FFF7B7FD50B101210846FFF715FF24A0A0
:10077000FFF7AAFF3220FFF7E7FED7E70821284658
:10078000FFF7A7FD00284FF00101084603D0FFF74F
:1007900003FF20A0ECE7FFF7FFFE23A0E8E700003F
:1007A0000010014053656C616D20427572616B00F1
:1007B0007777772E4578704B6974732E636F6D0071
:1007C0002020202020202020202020202020202029
:1007D00000000000000801405357332765202042E5
:1007E000617374696E697A210000000053573227E3
:1007F00079652042617374696E697A210000000096
:100800005357352765202042617374696E697A21D8
:10081000000000005357342765202042617374693B
:100820006E697A21000000002D4275746F6E6120A0
:10083000426173696E697A2D00000000E72816D0C6
:100840000CDCDC281BD004DCC72810D0D62812D042
:1008500016E0DD280DD0DE280FD011E0F6280AD0F2
:10086000FC280CD0FD2804D0FE2806D008E000208B
:1008700006E0012004E0022002E0032000E0042062
:1008800013490A68C2F309020A600B6800F0F00C11
:100890000A1542EA0C2C43EA0C030B600B6843F484
:1008A00000630B600B6823F400630B600B68C3F3F9
:1008B00009030B600B6842EA0030184308600868BF
:1008C00040F400600860086820F400600860704729
:1008D0000C0C0140F4080008000000205C0000003F
:1008E000E6040008500900085C0000200404000031
:1008F000F6040008020406080000000001020304D8
:10090000010203040607080900000000400000007F
:100910000E1010110E040000000C0404040E000A56
:10092000000E1111110E00000F100E011E04000A1E
:1009300000111111110E0002060E1E0E060200001B
:100940000404040404040000100804020100000070
:04000005080000ED02
:00000001FF
