:020000040800F2
:100000001004002035010008CF020008CB020008D0
:10001000CD0200087D010008350400080000000042
:100020000000000000000000000000005103000874
:100030007F0100080000000035030008DD03000810
:100040004F0100084F0100084F0100084F01000850
:100050004F0100084F0100084F0100084F01000840
:100060004F0100084F0100084F0100084F01000830
:100070004F0100084F0100084F0100084F01000820
:100080004F0100084F0100084F0100080000000068
:100090000000000000000000000000004F01000808
:1000A0004F0100084F0100084F0100084F010008F0
:1000B0004F0100084F0100084F0100084F010008E0
:1000C0004F0100084F0100084F0100084F010008D0
:1000D0004F0100084F0100084F0100084F010008C0
:1000E0004F0100084F0100084F0100080000000008
:1000F0000000000000000000000000000000000000
:1001000000000000000000000000000000000000EF
:1001100000000000000000004F0100084F0100082F
:10012000DFF80CD000F018F800480047550400082C
:10013000100400200648804706480047FEE7FEE717
:10014000FEE7FEE7FEE7FEE7FEE7FEE7FEE7FEE787
:10015000E103000821010008064C074D06E0E068B5
:1001600040F0010394E8070098471034AC42F6D3FE
:10017000FFF7DAFFDC040008FC040008FEE7704724
:1001800002490A6802430A607047000010040140F7
:1001900030B51A498379026853B30B6893430B60F7
:1001A0000A1D13680468A343136002790A441368A4
:1001B000046823431360114A083213680468A34398
:1001C0001360131D1C680568AC431C604479102C37
:1001D00005D021440A68006802430A6030BD1168F6
:1001E000046821431160196800680143196030BD3B
:1001F0000079084401689143016030BD000401406A
:1002000010B58A0721F003040649130F21440F2279
:100210008C689A4094438C608A68984002438A6054
:1002200010BD000000000140F0B5CA78002502F0C2
:100230000F03D20601D58A7813430A784FF00F0EC8
:1002400012F0FF0F4FF001021CD004680F8802FA71
:1002500005F63740B74211D14FEA850C0EFA0CF77C
:1002600024EA070703FA0CF43C43CF78282F02D086
:10027000482F02D002E0466100E006616D1C082DA7
:10028000E4D304600C88FF2C1ED944685FF000069C
:1002900006F1080702FA07F50F882F40AF420FD189
:1002A0004FEA860C0EFA0CF7BC4303FA0CF73C43FA
:1002B000CF78282F00D14561CF78482F00D1056134
:1002C000761C082EE4D34460F0BDFEE7FEE77047DD
:1002D00070B50F23C47801780122F4B1144C24685E
:1002E000457804F4E064C4F5E064240AC4F104062B
:1002F000E3408478B5401C402C4301F1E021230108
:1003000081F80034007800F01F018A404009800025
:1003100000F1E020C0F8002170BD01F01F00824014
:100320004809800000F1E020C0F8802170BD000085
:100330000CED00E070470000044A0029916901D0EB
:10034000014300E0814391617047000000100240CA
:10035000704700000CB500211F4801910091026810
:1003600042F4803202604FF4A063026802F400326B
:100370000092019A521C0192009A12B9019A9A4273
:10038000F3D10268920324D50121009141684160B4
:100390004168416041684160416821F47C114160DD
:1003A000416841F498114160016841F08071016039
:1003B00001688901FCD5416821F003014160416871
:1003C00041F0020141604168C1F381010229FAD183
:1003D0000CBD00910CBD00000010024070470000F1
:1003E000104810B5016841F00101016041680E4AF2
:1003F0001140416001680D4A11400160016821F41B
:1004000080210160416821F4FE0141604FF41F0129
:1004100081600021C162FFF79DFF05494FF0006038
:10042000086010BD001002400000FFF8FFFFF6FE5C
:1004300008ED00E0FEE702E008C8121F08C1002A2C
:10044000FAD170477047002001E001C1121F002A55
:10045000FBD1704708B501210420FFF76DFF4FF471
:100460008070ADF8000010208DF80300194E0325B0
:100470008DF8025069463046FFF7D6FE0124ADF8EC
:10048000004004208DF803008DF802506946304684
:10049000FFF7CAFE01210846FFF74EFF002108467C
:1004A000FFF7AEFE0C480021046001710821417184
:1004B0008471FFF76DFE08480621001F01700F21AF
:1004C00041708170C470FFF703FF0120FFF758FEF1
:1004D000FEE700000008014004000020FC040008C2
:1004E000000000200C000000360400080805000889
:1004F0000C00002004040000460400080000000076
:080500000000000000000000F3
:0400000508000121CD
:00000001FF
