:020000040800F2
:10000000780400203501000801030008FD02000803
:10001000FF020008FD010008710B0008000000004D
:100020000000000000000000000000008107000840
:10003000FF01000800000000B10300080D080008DF
:100040004F0100084F0100084F010008CD050008CE
:100050004F0100084F0100084F0100084F01000840
:100060004F0100084F0100084F0100084F01000830
:100070004F0100084F0100084F0100084F01000820
:100080004F0100084F0100084F0100080000000068
:100090000000000000000000000000004F01000808
:1000A0004F0100084F0100084F0100084F010008F0
:1000B0004F0100084F0100084F0100084F010008E0
:1000C0004F0100084F0100084F0100084F010008D0
:1000D0004F0100084F0100084F0100084F010008C0
:1000E0004F0100084F0100084F0100080000000008
:1000F0000000000000000000000000000000000000
:1001000000000000000000000000000000000000EF
:1001100000000000000000004F0100084F0100082F
:10012000DFF80CD000F02EF8004800472D0D000835
:10013000780400200648804706480047FEE7FEE7AF
:10014000FEE7FEE7FEE7FEE7FEE7FEE7FEE7FEE787
:10015000110800082101000830B50B4601460020B7
:100160002022012409E021FA02F59D4205D303FA79
:1001700002F5491B04FA02F52844151EA2F10102FA
:10018000F1DC30BD064C074D06E0E06840F00103AD
:1001900094E8070098471034AC42F6D3FFF7C4FF49
:1001A0005C0F00087C0F000810B5012000F01AF960
:1001B000BDE81040002000F015B90000034A118886
:1001C00021F4607101431180704700002C6C0040E5
:1001D00008B5024908440090008808BD006C004042
:1001E000014908607047000000860D4208B5024AC8
:1001F00010440090016008BD006C0040FEE77047AD
:10020000F0B5CA78002502F00F03D20601D58A782E
:1002100013430A784FF00F0E12F0FF0F4FF0010258
:100220001CD004680F8802FA05F63740B74211D196
:100230004FEA850C0EFA0CF724EA070703FA0CF4D0
:100240003C43CF78282F02D0482F02D002E04661ED
:1002500000E006616D1C082DE4D304600C88FF2CBF
:100260001ED944685FF0000606F1080702FA07F598
:100270000F882F40AF420FD14FEA860C0EFA0CF7D1
:10028000BC4303FA0CF73C43CF78282F00D14561DB
:10029000CF78482F00D10561761C082EE4D3446046
:1002A000F0BD0000F0B5144C002801DAE36900E06D
:1002B0006368420D120185B2C0F301579540C0F347
:1002C0000346032F05D0C2020AD50322B24093434E
:1002D00007E023F07062636823F07063636002E0FC
:1002E000AB4343F0706201B12A43002801DAE261B6
:1002F000F0BD6260F0BD000000000140FEE7FEE7D7
:10030000704708B54FF4C06000F042F803208DF844
:10031000000001208DF8010000218DF802108DF8F9
:100320000300684600F002F808BD000070B50F2316
:10033000C47801780122F4B1144C2468457804F49F
:10034000E064C4F5E064240AC4F10406E340847860
:10035000B5401C402C4301F1E021230181F8003419
:10036000007800F01F018A404009800000F1E02081
:10037000C0F8002170BD01F01F00824048098000D4
:1003800000F1E020C0F8802170BD00000CED00E01D
:100390000249084302490860704700000000FA055E
:1003A0000CED00E0014908627047000000000E42B9
:1003B00070470000044A0029D16901D0014300E0E0
:1003C0008143D1617047000000100240044A0029B7
:1003D000916901D0014300E08143916170470000C1
:1003E000001002400149086070470000400442428A
:1003F0000248416A41F0807141627047001002403A
:1004000030B521494A6812F00C03204A03D0042B6E
:1004100001D0082B01D0026015E04B684C6803F452
:1004200070134FF0020514F4803F05EB934307D09F
:10043000CC6A04F00F04641CB2FBF4F25A43EAE7FE
:10044000134A534303604A680F23124C03EA121203
:10045000A35C0268DA4042604B68072505EA132373
:10046000E35C22FA03F383604B6805EAD323E35C81
:10047000DA40C2604968032303EA9131231F595CC3
:10048000B2FBF1F1016130BD0010024000127A00B0
:1004900000093D00080000200246002053090949D8
:1004A000012B0BD0022B0BD0D1F8241002F01F022D
:1004B000012393400B4200D0012070470968F5E703
:1004C000096AF3E7001002400649002281F8202063
:1004D00081F82020012802D0042802D1052081F8CB
:1004E000200070470010024001490860704700007A
:1004F0003C04424202490A6A02430A627047000011
:100500000010024002490A8882430A8070470000B6
:100510000428004010B501214FF0C050FFF74AFFFA
:100520000120FFF73FFFFFF73FFE0120FFF7CCFF61
:100530004120FFF7B1FF0028FAD04FF48070FFF799
:10054000D9FF0120FFF7D0FF00F08AF800F080F813
:100550000121084600F050F800F07AF847F6FF70E5
:1005600000F066F8BDE8104000F072B8024801885B
:1005700041F01001018070470428004002480188C2
:1005800021F01001018070470428004006480188CE
:10059000031D1A880088814203D0198841EA00406F
:1005A000704742EA01407047182800400649098810
:1005B000C2B21140044A121F1288024202D009B18D
:1005C00001207047002070470428004010B501202A
:1005D000FFF7ECFF00280CD00120FFF793FF00206D
:1005E00000F0C0F8034901200860BDE8104000F0A9
:1005F0002FB810BD00000020044A0029118801D046
:10060000014300E081431180704700000028004052
:1006100000B50246FFF7AAFF0449100C0880081D28
:1006200002805DF804EBFFF7A9BF00001828004026
:1006300000B50246FFF79AFF0449C2F30340088061
:10064000081D02805DF804EBFFF798BF0828004002
:10065000024801888906FCD5704700000428004044
:100660000448018821F00801018001880907FCD5B0
:100670007047000004280040F8B50E46044627499C
:100680002648083150F8240051F82410084340F05F
:1006900001000121FFF79AFE204D083DBCB3012166
:1006A0000820FFF7FFFD55F824000121FFF782FE27
:1006B00018208DF8030019486946183830F81400DE
:1006C000ADF8000003208DF80200154850F8240012
:1006D000FFF796FD04208DF8030010486946143892
:1006E00030F81400ADF800000D48083050F8240030
:1006F000FFF786FD0A4D3146083D55F8240000F00D
:1007000073F955F82400012100F05CF9F8BDFFE70A
:1007100001212868FFF75AFECAE70000880E00088A
:100720002000002038B504460C48012150F8240070
:10073000FFF74CFE09486946203830F81400ADF840
:10074000000010208DF8030003208DF802000448FB
:1007500050F82400FFF754FD38BD0000980E000843
:1007600030000020044951F82010CA68034B33F8C8
:1007700010004240CA60704730000020780E000828
:10078000704700000CB500211F48019100910268DC
:1007900042F4803202604FF4A063026802F4003237
:1007A0000092019A521C0192009A12B9019A9A423F
:1007B000F3D10268920324D5012100914168416080
:1007C0004168416041684160416821F47C114160A9
:1007D000416841F498114160016841F08071016005
:1007E00001688901FCD5416821F00301416041683D
:1007F00041F0020141604168C1F381010229FAD14F
:100800000CBD00910CBD00000010024070470000BC
:10081000104810B5016841F00101016041680E4ABD
:100820001140416001680D4A11400160016821F4E6
:1008300080210160416821F4FE0141604FF41F01F5
:1008400081600021C162FFF79DFF05494FF0006004
:10085000086010BD001002400000FFF8FFFFF6FE28
:1008600008ED00E010B5FFF7F3FE00F03BF8FFF7EE
:10087000CFFEBDE81040FFF7EBBE000070B50446A8
:10088000FFF784FE0F49884204D10020FFF7C0FE25
:10089000FFF7DEFE4FF46160B4FBF0F200FB1242A2
:1008A000B4FBF0F1B4FBF0F53C2300FB1540B2FBC8
:1008B000F3F2B0FBF3F403FB1403BDE8704002A0B5
:1008C00000F058B97F51010054696D653A20253018
:1008D0002E32643A25302E32643A25302E32640DA1
:1008E0000000000070B5194800F044F918A000F0AD
:1008F00041F9172000F0D2F80446FF28F9D001464C
:1009000019A000F037F91AA000F034F93B2000F0EC
:10091000C5F80546FF28F9D0014613A000F02AF9D2
:1009200019A000F027F93B2000F0B8F80646FF2890
:10093000F9D001460CA000F01DF94FF4616044436A
:10094000C5EB051004EB8000304470BD180F0008A3
:100950000D0A2020506C6561736520536574204832
:100960006F757273000000003A20202564000000BB
:100970000D0A2020506C6561736520536574204D0D
:10098000696E7574657300000D0A2020506C6561F6
:10099000736520536574205365636F6E6473000044
:1009A00006A000F0E7F8064C002520680128FCD1DD
:1009B000FFF7ECFDFFF762FF2560F6E70A0D000088
:1009C000000000200029818902D041F4005101E09B
:1009D00021F40051818170470246002012880A42AA
:1009E00000D001207047000030B50446008A85B071
:1009F0000D464CF6FF710840E98801432182A18928
:100A00004EF6F3100140A8882A8910436A890A43E8
:100A10001043A081A08A4FF6FF410840A9890143F5
:100A2000A1826846FFF7ECFC1948844201D1039883
:100A300000E00298A189090400EBC00101EB00105D
:100A4000296801D5490000E08900B0FBF1F064227B
:100A5000B0FBF2F109010B096FF018056B4300EBD5
:100A60008300A3891D044FF0320306D503EBC000B9
:100A7000B0FBF2F000F0070005E003EB0010B0FB64
:100A8000F2F000F00F000843208105B030BD0000F7
:100A9000003801408088C0F3080070472DE9FC4110
:100AA0000024184F054600946E46019420213846D4
:100AB000FFF792FF0028F9D03846FFF7EBFF46F822
:100AC0002400641C06EB840050F8040C30380A281B
:100AD00003D30DA000F04EF8641E022CE6D3DDE92E
:100AE0000010144A01EB810102EB41010844A842C5
:100AF00006D9294610A000F03DF8FF20BDE8FC8192
:100B0000C0B2FBE7003801400A0D506C65617365A7
:100B100020656E7465722076616C6964206E756DF7
:100B2000626572206265747765656E203020616E43
:100B300064203900F0FDFFFF0A0D506C656173659C
:100B400020656E7465722076616C6964206E756DC7
:100B5000626572206265747765656E203020616E13
:100B60006420256400000000C1F308018180704703
:100B7000FEE700000FB4054B10B503A9044A029824
:100B800000F018F810BC5DF814FB0000090D000817
:100B90006000002002E008C8121F08C1002AFAD134
:100BA00070477047002001E001C1121F002AFBD1ED
:100BB000704700002DE9FF4F89B09B460446002591
:100BC00006E025280BD05A460B999047641C6D1CF3
:100BD00020780028F5D10DB02846BDE8F08F002719
:100BE000B8460122474900E0074314F8013F203B83
:100BF00002FA03F00842F7D120782E2819D114F810
:100C0000010F47F004072A280ED06FF02F0220783A
:100C1000A0F1300109290CD808EB880102EB410151
:100C200000EB0108641CF2E70A98641C50F8048B7E
:100C30000A9020780028CED0642808D0692806D0F1
:100C400075281ED05A460B9990476D1C58E00A999A
:100C50004FF00A0901C90A91002802DA40422D2109
:100C600002E0390504D52B218DF82010012103E085
:100C7000F90704D02021F7E78A4608AE0DE00021ED
:100C8000FAE70A994FF00A0901C90A91F7E74946BC
:100C9000FFF762FA303106F8011D0028F7D1ADEBFD
:100CA000060000F12009780701D44FF00108C8457B
:100CB00002DDA8EB090000E000208046002706E0E6
:100CC00008A85A46C05D0B9990476D1C7F1C57457C
:100CD000F6DB04E030205A460B9990476D1CB8F1C2
:100CE0000001A8F10108F5DC05E016F8010B5A46F1
:100CF0000B9990476D1CB9F10001A9F10109F4DCD1
:100D0000641C65E70928010070B5074D0446C1B2AF
:100D10002846FFF729FF40212846FFF75DFE0028FF
:100D2000F9D0204670BD0000003801400020FFF7D8
:100D3000F9FC28484FF4E131016000218180C18035
:100D4000018181810C21418101460020FFF794FC43
:100D5000FFF7D7FA0420FFF73BFA4AF2A554A04266
:100D60000ED01DA0FFF706FFFFF7D4FB22A0FFF770
:100D700001FFFFF777FD21460420FFF737FA17E060
:100D80007B20FFF789FB08B121A004E07A20FFF760
:100D900083FB10B126A0FFF7EDFE2DA0FFF7EAFEC2
:100DA000FFF75EFC01210846FFF726FCFFF750FC29
:100DB00001214FF0C050FFF7FDFA0120FFF7F2FAD2
:100DC0000020FFF70DFA8020FFF7F8F9FFF710FB7E
:100DD000FFF7E6FD640000200D0A0A20525443206C
:100DE0006E6F742079657420636F6E6669677572C3
:100DF00065642E2E2E2E00000D0A205254432063CF
:100E00006F6E666967757265642E2E2E2E00000067
:100E10000D0A0A20506F776572204F6E205265735D
:100E20006574206F636375727265642E2E2E2E00BA
:100E30000D0A0A2045787465726E616C20526573E4
:100E40006574206F636375727265642E2E2E2E009A
:100E50000D0A204E6F206E65656420746F20636FED
:100E60006E666967757265205254432E2E2E2E00D1
:100E70000002200000044000400080000001000249
:100E800000400000000002000400000020000000FC
:100E9000040000002000000010000000100000000E
:100EA00010000000100000000100002000020200FD
:100EB00001000001004000100400000010000000CC
:100EC000080000004000000040000000200000007A
:100ED00020000000200000000100002000020200AD
:100EE00001000001004000100000020001000400A9
:100EF000040003000300030000000D0009000100CE
:100F0000000008000E000C00060028001700070073
:100F100006001700280028000D0A3D3D3D3D3D3DDF
:100F20003D3D3D3D3D3D3D3D54696D6520536574FE
:100F300074696E67733D3D3D3D3D3D3D3D3D3D3DED
:100F40003D3D3D3D3D3D3D3D3D3D3D3D3D3D3D3DD1
:100F50003D3D3D3D3D3D3D3D3D3D00007C0F00089C
:100F60000000002064000000940B0008E00F00085F
:100F70006400002014040000A40B0008000000001E
:100F80000204060800000000010203040102030439
:100F900006070809003801400044004000080140ED
:100FA00000140140000801400014014000100140FD
:100FB00000100140001001400010014000080140F5
:100FC00000100140000C01400018014000180140D1
:100FD0000014014000140140001401400000000012
:0400000508000121CD
:00000001FF
