:020000040800F2
:10000000200400207D0400088504000887040008FF
:10001000890400088B0400088D040008000000001B
:100020000000000000000000000000008F04000835
:10003000910400080000000093040008DD0100089E
:100040009704000897040008970400089704000824
:100050009704000897040008970400089704000814
:100060009704000897040008970400089704000804
:1000700097040008970400089704000897040008F4
:1000800097040008970400089704000897040008E4
:1000900097040008970400089704000897040008D4
:1000A00097040008970400089704000897040008C4
:1000B00097040008970400089704000897040008B4
:1000C00097040008970400089704000897040008A4
:1000D0009704000897040008970400089704000894
:1000E000970400089704000897040008DFF80CD074
:1000F00000F0C6FA00480047B102000820040020C2
:1001000070B504460D46204600F046F870BD10B5A7
:10011000044600F04EF810BD01464FF0FF30704726
:1001200010B50446204600F037F810BD00BFFEE7CA
:100130002648806940F00400244988610846C06967
:1001400040F40030C8610846806940F001008861D1
:100150001F48406820F008001D4948601D4800689D
:1001600020F47F401B4908600846006840F4306076
:1001700008600846006840F480400860D0201649B6
:100180000880002014490C310880091F088042F2C1
:100190000C00091F0880704700BF0F490839098803
:1001A00001F080010029F8D0C1B20B4A121F118062
:1001B000704709480838008800F0200018B1064848
:1001C000001F008870474FF0FF30FBE7001002402F
:1001D00000000140000801400844004061480068F8
:1001E000401C6049086070475E4A116800E000BF2B
:1001F0005C4A1268521A8242F9D370475A48006822
:1002000040F001005849086000BF5748006800F0FE
:1002100002000028F9D000205349486000BF52482E
:10022000406800F00C000028F9D110204F49086008
:100230000846006840F0030008604B4840684A499F
:1002400048600846406840F480604860084640685E
:1002500048600846006820F08070086008464068E2
:1002600020F47C1048600846406840F42010486044
:100270000846006840F08070086000E000BF3A481F
:10028000006800F000700028F8D03748406820F07F
:100290000300354948600846406840F00200486065
:1002A00000BF3148406800F00C000828F9D17047C1
:1002B00000F0DCF805460024FFF7A0FF00F086F907
:1002C00000F08EF800F062F8FFF732FF284800686F
:1002D0004FF47A72B0FBF2F1481EB0F1807F00D388
:1002E0001BE0481E4FF0E022506150170F220028FB
:1002F00004DB13071E0E1F4B1E5406E013071F0ED0
:100300001D4B00F00F06361F9F5500BF00204FF019
:10031000E02290610720106100BF00BF204600F07E
:1003200074F84FF4FA70FFF75FFF00BF00F049F870
:1003300000F001000028F9D1204600F074F84FF4D5
:10034000FA70FFF751FF00BF00F03BF800F001002A
:100350000028F9D1641CAC4200DB002407A000F0A7
:10036000A1F9DBE708000020001002400020024055
:100370000C00002000E400E018ED00E048656C6C23
:100380006F20576F726C640A0D000000124880697C
:1003900040F01000104988611048406820F4700057
:1003A0000E4948600846406840F4800048600020DC
:1003B00070470A48406820F47000084948600020EF
:1003C000704700200549896801F4005109B940F0DF
:1003D00001007047012070470010024000100140EA
:1003E0002348806940F00400214988612148006861
:1003F00020F470001F4908600846006840F480102F
:1004000008600020704700207047014649B919482C
:1004100010300068184A52F821201043154A103253
:10042000106000207047014651B912481030006832
:10043000114A32F8212040EA02400E4A1032106080
:100440000020704710B5044600230BE001209840BF
:10045000204018B11846FFF7D8FF02E01846FFF712
:10046000E2FF5B1C012BF1DB002010BD0120704777
:100470000010024000080140F406000806488047CA
:1004800006480047FEE7FEE7FEE7FEE7FEE7FEE779
:10049000FEE7FEE7FEE7FEE77F050008ED00000847
:1004A0000CB50020019000906C48006840F480304A
:1004B0006A49086000BF6948006800F40030009095
:1004C0000198401C0190009818B90198B0F5A06FF0
:1004D000F1D16248006800F4003010B101200090B2
:1004E00001E0002000900098012843D15C4800689A
:1004F00040F010005A4908600846006820F00300E8
:1005000008600846006840F00200086053484068F0
:10051000524948600846406848600846406840F4D0
:10052000806048600846406820F47C1048600846B7
:10053000406840F4E81048600846006840F0807069
:10054000086000BF4548006800F000700028F9D03E
:100550004248406820F0030040494860084640682F
:1005600040F00200486000BF3C48406800F00C00CA
:100570000828F9D10CBD10B5FFF792FF10BD10B5DA
:100580003648006840F00100344908600846406879
:1005900034490840314948600846006832490840FB
:1005A0002E4908600846006820F48020086008464C
:1005B000406820F4FE0048604FF41F008860FFF799
:1005C000DAFF4FF000602949086010BD10B5002126
:1005D00000200022214B5B6803F00C0121B10429AB
:1005E00006D0082928D107E0214B224C236027E0C0
:1005F0001F4B204C236023E0184B5B6803F4701002
:10060000164B5B6803F48032022303EB904022B95F
:10061000194B4343174C23600DE0104B5B6803F408
:10062000003323B1144B4343124C236003E0104BBF
:100630004343104C236003E00D4B0E4C236000BF7E
:1006400000BF064B5B68C3F303130C4CE15C094B22
:100650001B68CB40074C236010BD00000010024017
:10066000002002400000FFF8FFFFF6FE08ED00E06A
:1006700000127A000C00002000093D00100000204C
:10068000064C074D06E0E06840F0010394E80700DF
:1006900098471034AC42F6D3FFF72CFDF80600085B
:1006A00018070008014A024900F013B801010008C8
:1006B0000000002002E008C8121F08C1002AFAD179
:1006C00070477047002001E001C1121F002AFBD1D2
:1006D00070472DE9F04116460F460446002503E019
:1006E0003946B047641C6D1C20780028F8D1284694
:1006F000BDE8F0812000000018070008000000207D
:1007000020000000B4060008380700082000002080
:1007100000040000C4060008000000000000000003
:100720000000000000A24A040000000000000000D9
:08073000010203040607080999
:04000005080000ED02
:00000001FF
