:020000040800F2
:1000000018040020790100086D0100086F01000844
:1000100000000000000000000000000000000000E0
:100020000000000000000000000000007301000854
:1000300000000000000000007501000877010008C2
:100040008B0100088B0100088B0100088B01000860
:100050008B0100088B0100088B0100088B01000850
:100060008B0100088B0100088B0100088B01000840
:100070008B0100088B0100088B0100088B01000830
:100080008B0100088B010008000000008B010008B4
:100090008B0100088B0100088B0100088B01000810
:1000A0008B0100088B0100088B0100088B01000800
:1000B0008B010008000000008B0100080000000018
:1000C0000348854600F078F900480047E900000839
:1000D0001804002008B5009002E00099491E009124
:1000E00000990029F9DC08BD1D4840690121C904B7
:1000F00008431B4948611B4800680521090408435F
:100100001849086008468088032109028843154978
:100110008880084680680F210904084311498860D7
:100120000846C0680F21090488430E49C86015E0DD
:10013000012040020B498861C00388610A490968AF
:10014000C808FFF7C7FF0120400606498861401430
:10015000886105490968C808FFF7BCFFE8E70000A7
:10016000001002400008004800000020704700BF57
:10017000FEE77047704770470448804704480047CF
:10018000FEE7FEE7FEE7FEE7FEE7FEE763020008A4
:10019000C10000080CB50020019000907348006871
:1001A0000121090408437149086000BF6F480068D5
:1001B00001214904084000900198401C01900098DA
:1001C000002804D10521090201988842EED1674830
:1001D0000068012149040840002802D00120009055
:1001E00001E0002000900098012839D111206049D9
:1001F00008605E4840685D4948600846406848605D
:10020000084640683F210904884358494860084629
:1002100040681121090408435449486008460068B1
:100220000121090608435149086000BF4F48006892
:100230000121490608400028F8D04C484068800851
:1002400080004A49486008464068022108434749FF
:10025000486000BF454840680C2108400828F9D193
:100260000CBD10B541480068012108433F490860B2
:10027000084640683F4908403C49486008460068D5
:100280003D49084039490860084600680121890451
:10029000884336490860084640683F21090488437E
:1002A000324948600846C06A00090001C862084631
:1002B000006BFF21543188432C4908630846406B8A
:1002C00040084000486300208860FFF763FF10BDCE
:1002D000F8B50025002400260027244840680C219A
:1002E00008400546002D04D0042D06D0082D2AD143
:1002F00007E022482249086029E020482049086098
:1003000025E01A4840680F21890408400446174830
:1003100040680121090408400646A00C841C002EF8
:1003200004D118486043164908600BE00F48C06AC2
:100330000007000F471C3946104800F027F86043BB
:100340000F49086003E00D480D49086000BF00BF79
:1003500006484068F021084000090B490D5C084838
:100360000068E84006490860F8BD0000001002403F
:10037000002002400CB8FFF8FFFFF6FE00127A00E2
:100380000000002000093D000400002030B50B46AD
:10039000014600202022012409E00D46D5409D425F
:1003A00005D31D469540491B2546954040191546E5
:1003B000521E002DF1DC30BD064C0125064E05E035
:1003C000E36807CC2B430C3C98471034B442F7D376
:1003D000FFF77AFEFC0300081C04000802E008C8CE
:1003E000121F08C1002AFAD170477047002001E0AF
:1003F00001C1121F002AFBD1704700001C04000835
:100400000000002014000000DC0300083004000895
:100410001400002004040000EC030008006CDC025F
:1004200000000000000000000102030406070809A4
:04000005080000C12E
:00000001FF
